:1000000000200020F5030000DD030000DF030000F6
:1000100000000000000000000000000000000000E0
:10002000000000000000000000000000DD030000F0
:100030000000000000000000DD030000DD03000000
:10004000DD030000DD030000DD030000DD03000030
:10005000DD030000DD030000DD030000DD03000020
:10006000DD030000DD030000DD030000DD03000010
:10007000DD030000000000000000000000000000A0
:100080000000000000000000000000000000000070
:100090000000000000000000000000000000000060
:1000A0000000000000000000000000000000000050
:1000B0000000000000000000000000000000000040
:1000C0000448054B10B5834203D0044B002B00D0ED
:1000D000984710BD6005002060050020000000006A
:1000E00006480749091A8B10C90FC91810B54910DD
:1000F00003D0044B002B00D0984710BD60050020B2
:10010000600500200000000010B5074C2378002B8C
:1001100009D1FFF7D5FF054B002B02D0044800E0C2
:1001200000BF0123237010BD8005002000000000E7
:10013000BCAF0000054B10B5002B03D004490548A7
:1001400000E000BFFFF7CCFF10BDC046000000007C
:1001500084050020BCAF0000402292029A1A924609
:100160007047C046174B002B00D1134B9D46FFF73D
:10017000F3FF00218B460F461348144A121A0AF067
:100180001BF80E4B002B00D098470D4B002B00D0D6
:1001900098470020002104000D000D48002802D0DF
:1001A0000C4800E000BF0AF00FF82000290000F022
:1001B00061FD09F0EDFFC0460000080000000000EE
:1001C000E90300000020002080050020A80900208D
:1001D000000000000000000010B500F0ABF800F0D7
:1001E00013F800F04AF800F05FF810BD10B500F009
:1001F00043F800F057F800F099F810BD10B5FFF77C
:10020000EBFFFFF7F3FF10BD10B50021012007F051
:10021000B3FF22220021012007F0F4FE002101207B
:1002200007F088FF0121012007F0A6FF222201210B
:10023000012007F0E7FE0121012007F07BFF0021EC
:10024000022007F099FF012319220021022007F064
:10025000FDFE0021022007F06DFF0021032007F0C2
:100260008BFF002300220021032007F0EFFE002176
:10027000032007F05FFF10BD704710B50022012179
:10028000002007F033FF00220321012007F02EFF9A
:100290008020400108F088F9002008F095F908F066
:1002A000A5F910BD7047000010B5154A154C022184
:1002B000200006F005FD144A0321200006F000FD91
:1002C000124A0421200006F0FBFC114A05212000FF
:1002D00006F0F6FC0F4A104C0021200006F0F0FC5E
:1002E0000E4A0221200006F0EBFC0D4A03212000FB
:1002F00006F0E6FC0B4A01210B4806F0E1FC10BDBC
:10030000E8A400000002044000A5000048A5000089
:1003100030A50000D0A400000003044078A5000030
:1003200060A5000018A5000000040440704701BE4D
:100330007047000070B5302008F01EF81A4C802578
:100340002D062563194807F0B1FC002007F010FEC8
:10035000A36A0C229343A362A36AB4329343A362B9
:1003600000F098F8002007F027FFE36A1D43E562DC
:100370000F4807F09BFC002007F0FAFD011E0ED18C
:10038000094B9A6A0C218A439A629A6AB4318A4369
:100390009A62202007F0F0FF00F07CF870BD062084
:1003A000FFF7C5FFECE7C0460000034000366E01D2
:1003B0000048E80110B5044808F00EF8002801D004
:1003C000002010BD0148FCE7AC040020000002063C
:1003D00010B5FFF713FFFFF7EDFF10BDFEE710B5F7
:1003E00007F0C8FF10BD704710B5FFF7FCFF10BD48
:1003F0007047000010B5FFF7FBFF00F03FF8174C07
:100400001749C022200009F003FF164B9C60BFF380
:100410004F8F154A09E01468990050686458445099
:10042000013391688B42F6D30C32104B9A4201D2C1
:100430000023F6E70E4909E00A6898001218002028
:10044000106001334A689342F6D30831094B994250
:1004500001D20023F6E7FFF785FEC046000000202A
:100460000000000000ED00E0C8AF0000D4AF0000C5
:10047000D4AF0000DCAF00007047000010B5034BA4
:10048000034A9A6372B6FFF7F7FF10BD00000340FE
:100490006588EDAC70B5114B9B6A9B0903251D4027
:1004A0000124AC4007F090FD64080019E84014D026
:1004B0000B4B1860441E0B49200008F001F9013075
:1004C000094B1870FA218900200008F0F9F8013072
:1004D000064B1860C003064B186070BD0000034057
:1004E000C804002040420F00D4040020D0040020A3
:1004F000CC04002010B50249024804F003F910BDF5
:100500002C0100200000294010B582B06A46144B2F
:1005100011CB11C2134801F0FFFE002801D002B038
:1005200010BD1149684607F0A7FE6B4600229B5E8E
:10053000002B07DB1F21194001228A400B48C021F4
:1005400049004250002B06DB1F2213401E3A9A40FE
:100550001300064A1360034801F02CFEDFE7C04693
:10056000A8A500002C010020F504000000E100E037
:1005700010B5114806F03EFA002819D00F4B1B6841
:10058000002B0FD001F0F6FC96235B00984212DBA3
:100590000A4B00221A600A4801F0EBFC064801F001
:1005A000A3FF08E001F0ECFC044B01221A60E9E72C
:1005B000024B00221A6010BD2C0100209C08002074
:1005C00090A5000010B51349022006F050FA0379F7
:1005D0000268D288012B05D0002B19D10E4B0022C6
:1005E0001A7015E00D4B9C5C0B4B1B78002B03D055
:1005F0000B4B1B78A34209D0074B01221A70200035
:1006000000F0E0F800F088F801F0BAFC044B1C7030
:1006100010BDC0462C01002098080020D8040020FE
:100620009908002010B5104A0121002004F057F865
:10063000002815D101F099FD040007E007F080FFC4
:10064000200001F096FD01F090FD0400064804F042
:1006500054F80028F2D1200001F08BFD002010BDDD
:1006600001204042FBE7C0462C01002010B5104A93
:100670000721012004F033F8002815D101F075FDA1
:10068000040007E007F05CFF200001F072FD01F0BC
:100690006CFD0400064804F030F80028F2D1200078
:1006A00001F067FD002010BD01204042FBE7C0467D
:1006B0002C01002010B5024801F0F3FD10BDC0462A
:1006C0002C01002010B50249002001F0BDFD10BD35
:1006D0002C01002010B5054A0021002006F0ADF9DC
:1006E000002801D0012010BD0020FCE72C010020D3
:1006F00010B5064A0121064806F0E2FA054A1368D9
:10070000F0218B431360002010BDC04618A50000E7
:10071000000404400004024070B5044C0125256427
:10072000012007F0FBFD656470BDC0460003044076
:1007300010B50249024807F0FFF910BDA0080020DB
:100740000000254070B5174A1749184807F02CF8E3
:10075000002800D001BE1649164807F08DFD051E81
:1007600000D001BE0F4C1449104E2300042230006B
:1007700007F0D4F9114B6364114B80221A60326880
:1007800080231B0613433360F36EA278002A06D041
:10079000802252001343054AD366280070BD002210
:1007A000F8E7C046A0080020B8A4000000002540DB
:1007B00031070000A0AB0000F8080020490B000042
:1007C00000E100E010B504490870044B0122044820
:1007D00007F098F910BDC046F4080020A0080020DA
:1007E00000002540014B18687047C046FC080020F7
:1007F00010B500F04BFCA64B01221A80A54B5B788C
:10080000012B06D00A2B00D930E19B00A24AD35815
:100810009F46A04B9B78012B03D0A04801F0A9FB79
:1008200010BD9F4801F0A5FB9E4B01221A60F7E71F
:10083000984B9B78012B09D0022B0ED0032B13D0A1
:10084000042B18D0984801F094FBE9E7974801F091
:1008500090FB944B02221A60E2E7954801F089FB75
:10086000904B03221A60DBE7924801F082FB8D4B2C
:1008700004221A60D4E7904801F07BFB894B0522E3
:100880001A60CDE7834B9B78012B05D0062B24D82B
:100890009B008A4AD3589F46894801F06AFBBFE70C
:1008A000884801F066FBBBE7874801F062FB7D4B9F
:1008B00006221A60B4E7854801F05BFBB0E7844884
:1008C00001F057FB774B07221A60A9E7814801F036
:1008D00050FB744B08221A60A2E77F4801F049FBE5
:1008E0009EE76C4B9B78012B07D0022B0CD0032B7F
:1008F00011D07A4801F03DFB92E7794801F039FBCD
:10090000684B09221A608BE7764801F032FB654B91
:100910000A221A6084E7744801F02BFB614B0B221A
:100920001A607DE75B4B9B78012B0BD0022B10D01C
:10093000032B15D0042B1AD0052B1FD06B4801F0C8
:1009400018FB6DE76A4801F014FB564B0C221A6045
:1009500066E7684801F00DFB524B0D221A605FE715
:10096000654801F006FB4F4B0E221A6058E76348BA
:1009700001F0FFFA4B4B0F221A6051E7604801F07B
:10098000F8FA484B10221A604AE7424B9B78012B39
:100990000BD0022B10D0032B15D0042B1AD0052B13
:1009A0001FD0584801F0E5FA3AE7574801F0E1FA5C
:1009B0003C4B11221A6033E7544801F0DAFA394B04
:1009C00012221A602CE7524801F0D3FA354B132259
:1009D0001A6025E74F4801F0CCFA324B14221A6016
:1009E0001EE74D4801F0C5FA2E4B15221A6017E795
:1009F000284B9B78012B05D0022B0AD0474801F0E9
:100A0000B8FA0DE7464801F0B4FA264B16221A60F0
:100A100006E7444801F0ADFA224B17221A60FFE6C0
:100A20001C4B9B78012B05D0022B0AD03E4801F0CD
:100A3000A0FAF5E63D4801F09CFA1A4B18221A601C
:100A4000EEE63B4801F095FA164B19221A60E7E6EC
:100A5000384801F08EFA134B1A221A60E0E6364845
:100A600001F087FA0F4B1B221A60D9E6334801F0D8
:100A700080FA084C607801F07BFA314801F079FA8D
:100A8000A07801F075FA2F4801F073FAC8E6C04665
:100A900036090020F808002058AB0000C0A500006F
:100AA000B0A50000FC0800208CA60000E4A5000012
:100AB00008A600002CA6000050A6000084AB000091
:100AC000B0A60000D0A60000F0A6000018A7000005
:100AD00038A7000068A7000094A700002CA8000019
:100AE000B4A70000DCA7000004A8000018A90000BB
:100AF0004CA8000078A800009CA80000C0A8000036
:100B0000F0A80000F0A9000038A9000060A90000CA
:100B100084A90000A4A90000CCA900004CAA0000F0
:100B200010AA00002CAA0000C8AA000078AA0000A1
:100B30009CAA0000ECAA00001CAB000034AB000033
:100B400050AB000054AB000010B50400830607D57D
:100B500043060AD5114B12490422124806F0DEFF63
:100B6000E30601D5640611D510BD0C490D4806F009
:100B7000E0FF0428EED10A4B1B78012BEAD1084B89
:100B8000DB78172BE6D1FFF733FEE3E7034B06498B
:100B90000122044806F0B6FFE6E7C046A0080020A0
:100BA000F808002000002540F408002000207047CD
:100BB00010B5054807F010FC044807F00DFC044888
:100BC00007F00AFC10BDC0460C050020F004002010
:100BD0003005002010B5FFF78BFDFFF7B3FD0028AF
:100BE00000D001BE00F072FA002800D001BE01F072
:100BF0006DFA064801F0BDF9054801F0BAF905485B
:100C000001F0B7F9044801F0B4F910BDA8AB000039
:100C1000B4AB0000F4AB000034AC0000F8B5070042
:100C20000E00134C22000421042003F074FD220066
:100C30000421042003F06FFD2100102002F03DFA92
:100C40000500E36819692422380009F0E1FA22005E
:100C50000621042003F05FFD2100202002F02DFA80
:100C6000236AD9680422300009F0D2FA2800F8BDBE
:100C70002C01002030B58DB001230B93FFF7A8FBAA
:100C8000002800D001BE62B6FFF792FFFFF7A2FF77
:100C9000FFF73AFC01A902A8FFF7C0FF002800D027
:100CA00001BEC34C200003F049FE2100C14803F0FF
:100CB00021FE01F04FF80025F9E0FFF793FD002831
:100CC00003D1BD4B1B78002B09D0BC4B1B68002BFC
:100CD0000FD0BB4B01221A6001F05EF9F1E0143035
:100CE00001F026F8B74B01221A60B74B00221A60B8
:100CF000EBE7B24B01221A605020FFF763FDFFF7CC
:100D00000BFDE6E7B04B1B68002B12D101F03EF95A
:100D10001D2800DCD5E001F03FF9AB4B01221A6041
:100D2000A64B00221A607020FFF74CFDFFF7F4FC81
:100D3000C7E001F02BF909F061F802000B0007F0A1
:100D400083FEA24C09F024F82060FFF74BFDA04B76
:100D500018602068142802DC1B68002B20D09C4BF4
:100D60001B68002B15D09B4801F003F9984B1868BD
:100D700001F0FEF8984801F0FCF8914A0023136056
:100D8000914A13608F4A1360944B904A12681A601C
:100D900097E0002000F0CCFF914801F0EAF8ECE782
:100DA0008E4B1B689842EFD009F028F802000B0028
:100DB00000208C4908F06AFC07F05CFD80B200F06E
:100DC000B7FFE1E7884801F0D4F8814B186801F0DB
:100DD000CFF8814801F0CDF8794B1B68012B00D08A
:100DE00084E0774A00231360774A1360754A1360E2
:100DF0007CE07E4B1B68002B1BD07D4B1B68012BBE
:100E000026D07B4B1B68002B4FD10B9B012B38D07E
:100E100001F0C8F83C2848DD674B1B78002B39D01F
:100E2000744B02221A706249734803F063FD002577
:100E30003BE0FFF7F7FB002803D0704B01221A704C
:100E400033E0FFF73FFCFFF745FC694B1860D4E740
:100E50000B935749FA20800003F04CFDFFF706FC86
:100E6000624B1860002803D0644B01221A701CE00A
:100E7000FFF720FCFFF7A6FB4D494E4803F03AFD73
:100E800013E001F095F800250B9549495C4803F003
:100E900031FD0AE05B4801F001F9C1E7FFF7C2FB51
:100EA000002838D0554B01221A70FFF761FB504BD8
:100EB0001B68012B00D100E7414B1B68012B00D1BF
:100EC00020E7FFF78FFC424B18601B68002B02D114
:100ED0004D4B00221A603E4B1B68002B0AD04A4B38
:100EE0001A683B4B1B689A4200D06BE7384B1A6874
:100EF000454B1A60414B1B78002B55D03F4B0022CD
:100F00001A703C4B1B78022BC8D0032B23D0012B2B
:100F100000D16EE7FEE7FFF7D5FBFFF7DBFB344BB5
:100F200018601B68012B0BD0314B1B68002BBCD108
:100F30000135192DB9D92F4B03221A700025B4E7BA
:100F40002F4801F0ABF82B4B01221A7018491948B1
:100F500003F0D0FCA9E7164804F0FAFD01E007F021
:100F6000EFFA134803F0C9FB041EF8D1104D290015
:100F7000012001F069F9280005F059FD051E0BD08C
:100F80001C4B01221A701E4801F088F808490948D4
:100F900003F0B0FC250088E7164B02221A700449C2
:100FA000154803F0A7FC80E707F0CAFA7FE7C046C0
:100FB0002C010020E44D00003C090020180900200D
:100FC000140900201C090020080900200009002045
:100FD0000C09002074AC000054AB00002805002070
:100FE00090AC000000003440A8AC000004090020D0
:100FF00020090020EC040020040D03002C05002033
:1010000050C30000400D03001009002070B505001A
:101010000C0001800F484843642107F051FBE88130
:10102000002C0BD16968AA68072A00D901BE0123E8
:1010300093404B64084B01221A7070BD642CF9D1A7
:101040006968AA68072A00D901BE012393400B648E
:10105000F0E7C046204E00003C09002070B50D00AE
:101060001400074B01001800FFF7D0FF05482900C6
:10107000FFF7CCFF04482100FFF7C8FF70BDC04652
:1010800060090020500900204009002010B5044BE1
:1010900000221A6000210020FFF7E0FF10BDC046CB
:1010A0003009002010B504004360826001800548CB
:1010B0004843054907F004FBE08100232373002027
:1010C00010BDC046204E0000A086010010B50A4C9D
:1010D0000A48230004220021FFF7E4FF0848230008
:1010E00005220021FFF7DEFF0648074B0122002101
:1010F000FFF7D8FF10BDC046000204406009002081
:1011000050090020400900200004044010B51D4B88
:10111000186814280DD9272811D81A4C206808F00F
:101120009DFE0022184B07F08FFC07F0A3FB206008
:1011300010BD80B200220021FFF790FFEDE708F01C
:101140008DFE0022114B08F0A1FA07F093FB04007A
:1011500008F084FE02000B0000200D4908F096FA0A
:1011600007F088FB80B200220021FFF777FF132CE5
:10117000D3D9044B00221A60064A13880133138026
:10118000D6E7C0463009002000001040000044406F
:10119000000034403609002010B5114B1C68032CA8
:1011A00006D9082C0AD80E4A13680133136010BD03
:1011B000A0B200220021FFF751FFF4E7093C032011
:1011C000001B80B200220021FFF748FF022CEAD961
:1011D000034B00221A60034A138801331380E6E7A9
:1011E000300900203609002010B51D4B186814285E
:1011F0000DD9272811D81A4C206808F02FFE00229C
:10120000184B07F021FC07F035FB206010BD81B2C0
:1012100000220020FFF722FFEDE708F01FFE00226A
:10122000114B08F033FA07F025FB040008F016FE16
:1012300002000B0000200D4908F028FA07F01AFB05
:1012400081B200220020FFF709FF132CD3D9044BF1
:1012500000221A60064A138801331380D6E7C0467D
:1012600030090020000010400000444000003440DD
:101270003609002010B51D4B186814280DD92728F1
:1012800011D81A4C206808F0E9FD0022184B07F02D
:10129000DBFB07F0EFFA206010BD82B200210020D6
:1012A000FFF7DCFEEDE708F0D9FD0022114B08F056
:1012B000EDF907F0DFFA040008F0D0FD02000B00A2
:1012C00000200D4908F0E2F907F0D4FA82B20021BB
:1012D0000020FFF7C3FE132CD3D9044B00221A6061
:1012E000064A138801331380D6E7C0463009002030
:1012F0000000104000004440000034403609002047
:1013000010B51D4B186814280DD9272811D81A4C70
:10131000206808F0A3FD0022184B07F095FB07F0AA
:10132000A9FA206010BD80B202000100FFF796FE0E
:10133000EDE708F093FD0022114B08F0A7F907F044
:1013400099FA040008F08AFD02000B0000200D4904
:1013500008F09CF907F08EFA80B202000100FFF756
:101360007DFE132CD3D9044B00221A60064A138841
:1013700001331380D6E7C04630090020000010403A
:10138000000044400000344036090020F0B5C64655
:1013900000B5324B1868142829D808F05FFD040006
:1013A0000D002F4A2F4B07F0AFFE06000F002C4A0E
:1013B0002D4B2000290007F0A7FE07F05BFA84B24E
:1013C0003000390007F056FA80B200222100FFF702
:1013D00045FE224C206808F041FD0022234B07F017
:1013E00033FB07F047FA206080BCB846F0BD08F038
:1013F00035FD00221E4B08F049F907F03BFA804604
:1014000008F02CFD02000B000020194908F03EF9FD
:1014100004000D00124A134B07F076FE06000F0081
:101420000F4A114B2000290007F06EFE07F022FA48
:1014300084B23000390007F01DFA80B2002221008A
:10144000FFF70CFE4346132BC3D9044B00221A604E
:10145000084A138801331380C6E7C04630090020CC
:101460009A9999999999E93F9999D93F0000104023
:10147000000034403609002010B5214B18681428AC
:1014800018D808F0EBFC1F4A1F4B07F03DFE07F091
:10149000F1F980B202000021FFF7E0FD184C20684E
:1014A00008F0DCFC0022194B07F0CEFA07F0E2F955
:1014B000206010BD08F0D2FC0022154B08F0E6F8C1
:1014C00007F0D8F9040008F0C9FC02000B00002066
:1014D0000F4908F0DBF80B4A0B4B07F015FE07F03D
:1014E000C9F980B202000021FFF7B8FD132CD5D94D
:1014F000034B00221A60074A138801331380D8E790
:10150000300900209A9999999999E93F0000104073
:10151000000034403609002010B51C4B1868142810
:1015200011D880B200220021FFF798FD174C2068E7
:1015300008F094FC00228023DB0507F085FA07F011
:1015400099F9206010BD08F089FC0022104B08F0CA
:101550009DF807F08FF9040008F080FC02000B00F2
:1015600000200B4908F092F807F084F980B20022BD
:101570000021FFF773FD132CD8D9044B00221A6009
:10158000044A138801331380DCE7C0463009002089
:10159000000034403609002010B51C4B1868142890
:1015A00011D881B200220020FFF758FD174C2068A7
:1015B00008F054FC00228023DB0507F045FA07F011
:1015C00059F9206010BD08F049FC0022104B08F0CA
:1015D0005DF807F04FF9040008F040FC02000B0032
:1015E00000200B4908F052F807F044F981B20022BC
:1015F0000020FFF733FD132CD8D9044B00221A60CA
:10160000044A138801331380DCE7C0463009002008
:10161000000034403609002010B51C4B186814280F
:1016200011D882B200210020FFF718FD174C206866
:1016300008F014FC00228023DB0507F005FA07F010
:1016400019F9206010BD08F009FC0022104B08F0C9
:101650001DF807F00FF9040008F000FC02000B0071
:1016600000200B4908F012F807F004F982B20021BB
:101670000020FFF7F3FC132CD8D9044B00221A608A
:10168000044A138801331380DCE7C0463009002088
:101690000000344036090020F0B5C64600B5324B94
:1016A000186814282AD808F0D9FB04000D002F4A26
:1016B0002F4B07F029FD06000F002C4A2D4B200070
:1016C000290007F021FD07F0D5F884B23000390079
:1016D00007F0D0F880B200222100FFF7BFFC224CB7
:1016E000206808F0BBFB00228023DB0507F0ACF983
:1016F00007F0C0F8206080BCB846F0BD08F0AEFB33
:1017000000221D4B07F0C2FF07F0B4F8804608F036
:10171000A5FB02000B000020174907F0B7FF0400EB
:101720000D00124A124B07F0EFFC06000F000F4AA3
:10173000104B2000290007F0E7FC07F09BF884B26B
:101740003000390007F096F880B200222100FFF740
:1017500085FC4346132BC2D9034B00221A60074A6B
:10176000138801331380C6E7300900209A999999AC
:101770009999E93F9999D93F0000344036090020F2
:1017800010B5224B1868142819D808F067FB204AB6
:10179000204B07F0B9FC07F06DF880B20200002181
:1017A000FFF75CFC194C206808F058FB00228023EE
:1017B000DB0507F049F907F05DF8206010BD08F07F
:1017C0004DFB0022144B07F061FF07F053F80400B3
:1017D00008F044FB02000B0000200F4907F056FF01
:1017E0000B4A0C4B07F090FC07F044F880B2020063
:1017F0000021FFF733FC132CD4D9044B00221A60CC
:10180000064A138801331380D8E7C0463009002008
:101810009A9999999999E93F000034403609002036
:1018200010B5BB4B1B681A2B00D965E29B00B94A67
:10183000D3589F46B84B01221A70B84B00221A8029
:10184000B34B1A60FFF722FC10BDB44B1B88013B61
:101850009BB2022B0BD9B14B1B88032BF4D9AF4B96
:1018600000221A80AA4B1A60FFF710FCECE7FFF782
:10187000D3FEF0E7A94B1B88013B9BB29622520096
:1018800093420DD3A54B1A8896235B009A42DBD96D
:10189000A24B00221A809E4B1A60FFF7F7FBD3E79A
:1018A000FFF7BAFEEEE79D4B1B88013B9BB2022B74
:1018B0000BD99A4B1B88032BC6D9984B00221A8050
:1018C000934B1A60FFF7E2FBBEE7FFF7D3FCF0E7AC
:1018D000924B1B88052BB7D89B00914AD3589F4643
:1018E000FFF7C8FCB0E7FFF711FCADE78B4B002218
:1018F0001A80874B1A60FFF7C9FBA5E7874B1B8847
:10190000013B9BB2022B0CD9844B1B88032B00D8C4
:101910009AE7824B00221A807D4B1A60FFF7B6FBD4
:1019200092E7FFF7EDFCEFE77C4B1B88013B9BB296
:10193000022B0CD9794B1B88032B00D884E7774BFB
:1019400000221A80724B1A60FFF7A0FB7CE7FFF7BA
:10195000D7FCEFE7714B1B88052B00D974E79B0080
:10196000704AD3589F46FFF7CBFC6DE7FFF7CEFBDD
:101970006AE76A4B00221A80654B1A60FFF786FB04
:1019800062E7664B1B88013B9BB2012B0CD9634B72
:101990001B88022B00D857E7604B00221A805C4B53
:1019A0001A60FFF773FB4FE7FFF776FEEFE75B4B3D
:1019B0001B88013B9BB2022B0CD9584B1B88032B75
:1019C00000D841E7554B00221A80514B1A60FFF7AF
:1019D0005DFB39E7FFF7DAFCEFE7504B1B88052B7F
:1019E00000D931E79B00504AD3589F46FFF7CEFC01
:1019F0002AE7FFF78BFB27E7484B00221A80444B6E
:101A00001A60FFF743FB1FE7444B1B88013B9BB267
:101A1000012B0CD9414B1B88022B00D814E73F4BFC
:101A200000221A803A4B1A60FFF730FB0CE7FFF7F1
:101A3000B3FDEFE7394B1B88013B9BB2022B0CD95E
:101A4000364B1B88032B00D8FEE6344B00221A804D
:101A50002F4B1A60FFF71AFBF6E6FFF7C5FBEFE71F
:101A60002E4B1B88013B9BB2022B0CD92B4B1B88A6
:101A7000032B00D8E8E6294B00221A80244B1A6079
:101A8000FFF704FBE0E6FFF741FBEFE7234B1B8882
:101A9000013B9BB2092B0CD9204B1B880A2B00D889
:101AA000D2E61E4B00221A80194B1A60FFF7EEFA9D
:101AB000CAE6FFF72BFBEFE7184B1B88013B9BB2F5
:101AC000092B0CD9154B1B880A2B00D8BCE6134BED
:101AD00000221A800E4B1A60FFF7D8FAB4E6FFF71F
:101AE00015FBEFE70D4B1B88013B9BB2012B0CD97B
:101AF0000A4B1B88022B00D8A6E6084B00221A804E
:101B0000034B1A60FFF7C2FA9EE6FFF739FEEFE7D4
:101B1000FC080020E8AC0000540500203609002035
:101B200054AD00006CAD000084AD0000794B1B8803
:101B3000013B9BB2022B0CD9764B1B88032B00D8A0
:101B400082E6744B00221A80734B1A60FFF79EFAEC
:101B50007AE6FFF749FBEFE76E4B1B88013B9BB230
:101B6000022B0CD96B4B1B88032B00D86CE6694BFE
:101B700000221A80684B1A60FFF788FA64E6FFF7C4
:101B8000CBFCEFE7634B1B88013B9BB2312B0CD99D
:101B9000604B1B88322B00D856E65E4B00221A8021
:101BA0005D4B1A60FFF772FA4EE6FFF765FCEFE750
:101BB000584B1B88052B00D946E69B00574AD35843
:101BC0009F46FFF759FC3FE6FFF7A0FA3CE6514B72
:101BD00000221A80504B1A60FFF758FA34E6504B37
:101BE00001221A704B4B1B88013B9BB2022B0CD974
:101BF000484B1B88032B00D826E6464B00221A8050
:101C0000454B1A60FFF742FA1EE6FFF77FFAEFE74F
:101C1000434B00221A703F4B1B88013B9BB2022BA7
:101C20000CD93C4B1B88032B00D80DE6394B002206
:101C30001A80394B1A60FFF729FA05E6FFF7D4FA44
:101C4000EFE7344B1B88013B9BB2012B0CD9314B86
:101C50001B88022B00D8F7E52E4B00221A802E4B52
:101C60001A60FFF713FAEFE5FFF796FAEFE7294B53
:101C70001B88013B9BB2022B0CD9264B1B88032BE4
:101C800000D8E1E5234B00221A80234B1A60FFF7AE
:101C9000FDF9D9E5FFF780FAEFE71E4B1B88013B02
:101CA0009BB2272B13D81F4B18680A2106F008FD9A
:101CB000C0071BD4002232210020FFF7CFF9194AB8
:101CC000136801331360134A138801331380114BD7
:101CD0001B88282B00D8B7E5124A002313600D4A51
:101CE00013800D4A1360FFF7D1F9ADE50022002102
:101CF0003220FFF7B3F9E2E70B4800F03AF9064C5F
:101D0000206800F035F9094800F033F9002323601A
:101D10009AE5C04636090020FC0800209CAD000072
:101D20005405002038090020B4AC000030AC00009D
:101D300010B5074B1B78002B05D1002201000020B5
:101D4000FFF78CF910BD00220021FFF787F9F9E7B2
:101D50005405002070B50B4C10262664FA256D0042
:101D6000280006F0DBFA666410362664280006F0C8
:101D7000D5FA6664044C1E3E2664280006F0CEFAAE
:101D8000666470BD000204400004044010B56E4B50
:101D90001B7B002B00D16EE06B4A1288642A00D1B5
:101DA00069E0694BDA89694B1B889A420BD8664B0C
:101DB00059689A68072A00D901BE012393404B64F1
:101DC000614B00221A73624B1B7B002B00D16DE02C
:101DD0005F4A1288642A00D168E05D4BDA895B4B68
:101DE0001B889A420BD85A4B59689A68072A00D91F
:101DF00001BE012393404B64554B00221A73554B8F
:101E00001B7B002B00D16BE0524A1288642A00D160
:101E100066E0504BDA894D4B1B889A420BD84D4BEC
:101E200059689A68072A00D901BE012393404B6480
:101E3000484B00221A73454A1388FA2189008C46C0
:101E400063449BB21380444A934200D162E03E4B0C
:101E50001B88002B07D13E4B1B88002B03D13D4B29
:101E60001B88002B5AD03D4B01221A70FA208000AB
:101E700000F014F910BD002BA5D1334B1B88002BAB
:101E800000D1A0E7304BDA89304B1B889A4200D250
:101E900099E72D4B59689A68072A00D901BE01239A
:101EA000180090400864284A13738CE7002BA6D1D1
:101EB000274B1B88002BA2D0254BDA89234B1B888C
:101EC0009A4200D29BE7224B59689A68072A00D9A8
:101ED00001BE01231800904008641D4A13738EE769
:101EE000002BA8D11B4B1B88002BA4D0194BDA89DF
:101EF000164B1B889A4200D29DE7164B59689A6888
:101F0000072A00D901BE0123180090400864114A35
:101F1000137390E70D4B00221A8098E70B4B0022B9
:101F20001A800E4B1A700E4B1B78012B03D00D4BF1
:101F30001B68002B03D00C4800F0B0F89AE70B4860
:101F400000F0ACF896E7C046600900203409002094
:101F50005009002040090020204E00003C090020CC
:101F6000EC040020FC08002050C30000400D0300DA
:101F700070477047014B188880B27047760900207F
:101F8000014B00221A80704776090020014B188807
:101F900080B2704772090020014B00221A807047FE
:101FA00072090020014B188880B270477009002028
:101FB000014B00221A8070477009002010B5044BB5
:101FC000186C044B1B68C01880B206F0EDFA10BD07
:101FD000000003407809002010B506F007FB264AF0
:101FE000D36C01218B43D364244B1B78002B17D077
:101FF000FFF7CCFE224A1388FA2189008C466344FD
:102000009BB213801F4A934212D91D4B00221A80A3
:102010001D4A1378013313701C4B01221A7007E01C
:10202000194B03221A70194B023A1A70FFF7C6FFB8
:10203000154B1B78032B05D00F4AD36C01210B43A2
:10204000D36410BD104B00221A70FEF7CBFB0028A2
:102050000FD10F4A138801339BB213800D4A1388A6
:1020600001339BB213800C4A138801339BB2138057
:10207000E2E7FFF7D5FBECE7000003403C09002056
:1020800074090020E34D0000550500202C050020B8
:1020900070090020720900207609002010B50300A5
:1020A0008000C018C000FA21890006F009FB054B2A
:1020B0001860054AD06B1B68C01880B206F074FA2D
:1020C00010BDC046780900200000034010B5002074
:1020D00006F07AFA194B1B6C1B0C1B0700D001BED3
:1020E00006F084FA154AD16A80231B060B43D3629B
:1020F000022006F013F91248FFF7D0FF11491248E9
:1021000006F0BAF8002800D001BE104B20221A6059
:102110000A4BDA6C01210A43DA6400229A639A6B53
:102120000B4B9A4204D006F01DF9012802D010BDD5
:1021300001BEF8E70748FFF71CFFF8E7000003407F
:1021400050C30000D91F0000F0AD000000E100E026
:102150006588EDACB4AD00000230800803D00130DA
:102160000238FCD1C046C0467047EFF3108072B60B
:10217000704780F31088704770B5050004F089FC43
:10218000041E01D0200070BD280000F0FDFD2800D5
:1021900004F07AFA04436B68DB79002BF2D1280053
:1021A00004F086FD280000F08CFF6B680122DA71D4
:1021B000E8E70000F8B504004268916880231B023C
:1021C0000B439360FFF7D8FF051E09D0200000F0F5
:1021D0008BF9626893681A490B4093602800F8BD38
:1021E000200004F0B1FA28430700200002F08FFA23
:1021F0000743200004F018F90743200002F073FAA7
:102200000743236818680F4906F05AFA01000522AF
:102210000C4802F0D9FB0600200002F06EFA0028FC
:102220000AD0002E01D0013EF6E7042704E0210089
:10223000280000F00DFF0135022DF8D93D00C5E75B
:10224000FF7FFFFF40420F0070B504000E00022820
:1022500024D8CD688C234343ED187B23EB5C072BFC
:1022600001D101241BE004F0BBFC002801D10824AB
:1022700015E03100200000F0EBFE3100200000F0FE
:10228000A3FD04007A23EB5C012B02D001231C4345
:1022900005E03100280000F0ADFE00E00124200040
:1022A00070BD70B505000026032300E023005C1E0E
:1022B000002B13D02900200004F092FC0028F5D058
:1022C000EB688C2262439B187B229B5C072BEDD032
:1022D00029002000FFF7B8FF0643E7E7300070BD94
:1022E00010B5040003689B6818685A681378002BBF
:1022F00001D0802010BD022104F08AFD002801D009
:102300000820F7E72100013003F04EF9F2E710B59D
:10231000FFF7E6FF10BD0000F8B5041E00D18EE007
:102320008368002274215A5401315A541A605A6049
:10233000DA609A60C2681268002006E02325515DC9
:102340000626314351553C3201300228F6D900228D
:10235000DA613C49D96221685A614C201A541D380F
:102360000D5C28301D542A380D5C2B301D54273845
:102370000D5C28301D54C88A1886088B5886342076
:102380000D5C1F301D541E380D5C1F301D542E482F
:1023900098874E201A544F32B13098540132713818
:1023A000985401328C389854E2681268002001E099
:1023B0003C320130022810D89588002D04D1232604
:1023C000955D08273D439555D588002DF0D12326EE
:1023D000955D10273D439555EAE7C88B40229852FA
:1023E0008A8BDA87488C44229852098C023A995297
:1023F000413A72215A542539032058540D315A5408
:1024000001315A5401315A540131033058540131C9
:102410000238585401310630585401315A540B4A8D
:102420005A624A22683199522100002003F0BCF818
:10243000002800D0F8BD2000FFF769FFFAE701206F
:10244000F8E7C0468F0200004C080000400D030072
:1024500010B54988C94389B212888A420BD023211A
:10246000425C0424A24342541A6A936821390B4304
:102470009360022010BD0020FCE700230372028855
:102480004280C3717047F8B50E00D5688C23434372
:10249000ED180027002F00D0F8BD6868B400A4191B
:1024A00064000019FFF7E9FF6B681B195A88696916
:1024B0007300D243CA520137ECE770B505000E0035
:1024C000CB688C2242439B187B229A5C072A0AD055
:1024D0001B8F05E0320021002800FFF7D4FF230006
:1024E0005C1E002BF6D170BD70B50500032304E01F
:1024F00029002000FFF7E1FF23005C1E002BF7D12D
:1025000070BD504380235B009B1A59434018000A5A
:102510007047F0B5C64600B582B005000C00170044
:102520009846FFF795FF061E2ED1208861888842C5
:1025300001D30023E371AB8B01901B1899420AD998
:10254000E379AA89934202D20133E37119E02000B2
:10255000FFF793FF15E043461A682823D35C002B4E
:1025600004D16B8BCB18019A9A420AD80902237ABC
:1025700019432223EA5C0002FFF7C3FF030A6380CA
:1025800020726388DB433B80300002B080BCB846D9
:10259000F0BD0000F0B58FB0060087683C006334E2
:1025A000456A703523493822684607F031FE00231A
:1025B00002E0FF22E25401330D2BFAD968230022F6
:1025C000FA54B2680C33D35C012B0BD0022B12D11E
:1025D0006422BA5CFF2A01D001230DE09B3A01215D
:1025E000B95409E06322BA5CFF2A05D16323FE3A9D
:1025F000FA54613B00E001236B22BA5CFF2A04D04D
:10260000B16862228B54002305E0943ABB54013335
:10261000DBB2F5E701330D2B08D8E25CFF2AF9D0D5
:102620009200990068460958A950F3E700200FB0BE
:10263000F0BDC046F8AD000070B515688543156063
:102640005468844354609368834393604E0701D574
:10265000054315608D0701D504435460C90701D5B2
:102660000343936070BD0000F0B5068843889C4624
:10267000D0688C237343C0187A23C45C95681769AB
:1026800033019B1B9B00FB189B8E002B00D0013B52
:102690001B04254F3B40CF683B43CB60012C14D03B
:1026A000022C21D00A2C24D08023DB0352689268AC
:1026B000D20407D4012C23D005682E22AA5C134330
:1026C000012C26D00B610020F0BD5A23EB5C012BBE
:1026D000E6D105683123ED5C2D07E023DB051D40C5
:1026E000C0231B042B43E1E75B23EB5C012BD9D117
:1026F000EFE75C23EB5C012BEBD08023DB03D5E71A
:102700003A22825C6245D7D805682F22AA5C13431F
:10271000D6E7406862469200624452008218527ABC
:1027200012021343CEE7C0460000FF0FF0B5446A23
:102730002B4B220090321900E0C9E0C2E0C9E0C290
:1027400009681160043219001C31E0C9E0C2E0C917
:10275000E0C2096811600432383362CB62C262CBD6
:1027600062C21B68136082685A23D35C012B0FD0AE
:1027700082685B23D35C012B15D082687523D35C00
:10278000052B1BD082685C23D35C012B1DD0F0BDD0
:10279000134B22009032543362CB62C262CB62C2CE
:1027A0001B681360E4E70E4B2200AC32703362CB3F
:1027B00062C262CB62C21B681360DEE72200AC32E9
:1027C0001169FB330B431361DCE7054BC8348C33D1
:1027D00007CB07C407CB07C41B682360D7E7C046F5
:1027E00030AE0000F0B5DE4657464E464546E0B5F1
:1027F000C1B00400856880235B009B461A0000215D
:10280000684607F0D9FC5E4A00928020400501909E
:1028100031239A46059380235B0299460793F02360
:102820001B0198460A930223FF339C460C93554E96
:10283000189619961A96636A1A6058600021996072
:10284000D960196157465F6199614F46DF6147461C
:102850009F6267461F639963D96319649964D96459
:10286000196559659965D9651E665E669E66D96665
:102870007131695C0904C026B60231400A431A600E
:1028800021683722895C303A0A4010435860216839
:1028900038228A5C120259460A401043586044228A
:1028A000AA5A002A67D0120241460A409A60422181
:1028B000685A002862D0BD3101400A439A602068FE
:1028C0003621415C09038020400101400A439A609F
:1028D0002A8E1205120DDA60698E09042A48014019
:1028E0000A43DA605322AA5C5A61A1684D228A5CCD
:1028F0009A61A0684021415A0904F0200003014078
:102900000A439A61A168C98F0902F826760131400D
:102910000A439A61A1688A8F1205120D4E26895DBD
:10292000090401400A431A62802252045A62A168D3
:102930004F228A5C5020095C09040A43DA6254225F
:10294000AA5C12029A6206215964A0685122825C34
:10295000013A12040D4802400A435A642000FFF76E
:10296000E5FE2000FFF716FE41B0F0BCBB46B246C4
:10297000A946A046F0BD8022520097E701219CE7BE
:1029800011001000230032000000FF0F0000FF03C1
:1029900010B50400100003230B40022B00D010BD23
:1029A000012C03D00A2C01D05008F8E78008F6E784
:1029B000F8B5DE4657464E464546E0B58B4616000E
:1029C0001A009C68002843D11D6B8B00A8469844D0
:1029D000D76843461D888C236B43FF1813699C46B8
:1029E0002B015D1BAD0065447A23FB5C99469A463A
:1029F000012832D08423FC5C013CA4038023DB014A
:102A00001C40AB8D013B9B049B0C1C43F4603723A3
:102A1000EB5C7B20385C0438C0B2012856D91B0718
:102A20002343F3603220285C01285DD0310040460A
:102A3000FFF71AFE041E04D1EA895346012B5CD02D
:102A400001242000F0BCBB46B246A946A046F8BD12
:102A50005D6B8B00A8469844BAE76023E35C0E30B8
:102A600018405D23E35C1B019C46FF2361460B403D
:102A700003435E20205C0002F0210901084003436B
:102A8000A8890004FC218903084003435F20205CDF
:102A90000006034333606B8BA88B00040343736011
:102AA0002B892020285C0004E024E402204003431A
:102AB0004946012908D0802040040343B360002325
:102AC000F3603361143695E70020F6E73A20385C6E
:102AD0008446404640888445A1D87A20385C012845
:102AE0009DD13823EB5C9AE77F30385A58459DD00A
:102AF000802109020B43F36098E77A33FB5C043BC7
:102B0000DBB2012B1DD92123EF5C92B2390048467C
:102B1000FFF73EFF01383023EB5C013B1B061B0C2B
:102B200000040C4A104003433F07C022920517409F
:102B30003B433622AA5C920713430322134373617B
:102B40007FE73A23F95C43465B889942DBD82A8ABF
:102B5000D9E7C0460000FF0FF0B5DE4657464E46A7
:102B60004546E0B589B082460C0048698B680493FD
:102B70000027002105E04279012393401F430830DC
:102B80000131226893898B42F5D8A069002105E0C4
:102B900045790123AB401F43083001312C23D35C1E
:102BA0008B42F5D87523049AD35C022B06D0052BF3
:102BB00020D06323049AD35C079303E06423049A30
:102BC000D35C07936423049AD35C05937423D35C8A
:102BD000022B19D0042B12D16733D35C06935346D2
:102BE000012B14D0A66A236B0393082302930025BC
:102BF000B94629E06D23049AD35C0793E2E7632387
:102C0000049AD35C0693EAE7059B0693E7E7E66A36
:102C1000636B039353460293E9E7079B019301E03B
:102C2000069B01935346012B2CD032000199484654
:102C3000FFF702FD22682C23D15C002924D14346F2
:102C4000012B3DD018360135029B9D4253D2230003
:102C5000320029005046FFF7ABFEAB00039A9446C2
:102C600063445A8893461A88E7688C235343FF18B5
:102C70007A23FB5C9846012BD2D0022BCDD0059B4A
:102C80000193CFE71436D0E74346012B03D0002051
:102C90000023AC460CE06A33049AD35C0193F6E758
:102CA000A269DD00521955790122AA40104301336F
:102CB0009942F5D8654632000199FFF7BDFCBEE7A1
:102CC0006733049AD35C9C46BF685B46DB00FF1801
:102CD0000020002307E03A68D900521851790122F8
:102CE0008A40104301337A799A42F4D8320061461F
:102CF000FFF7A2FCA6E709B0F0BCBB46B246A94666
:102D0000A046F0BDF8B5CE688C234343F61837686B
:102D10007368328F7B21715C072926D02320395CB0
:102D20000124A1433954110005E099790325A943F1
:102D300099710A3321004C1E0029F6D17B23F35CE4
:102D4000042B13D0062B17D0012B0FD07B23F35C61
:102D5000023B032B09D828230022FA54336FFF3299
:102D60001A4202D0F36B00221A71F8BDB06A202318
:102D7000F95C07F021FAE9E7B06A2023F95C520018
:102D800007F01AFAE2E7000070B5050042689368A0
:102D900006490B409360032304E029002000FFF75D
:102DA000B1FF23005C1E002BF7D170BDFFFBFFFFBE
:102DB00010B500238B800A884C88438BE3189A4215
:102DC00001D9121B8A8010BDF8B5DE4657464E4623
:102DD0004546E0B58A46CD688C234343ED18002371
:102DE00098469B46994637E06C6853461B68DB89DA
:102DF0005A4653439A00D2185200A4186E695B00D9
:102E0000F6187423EB5A80229200C02189000B40EF
:102E1000934201D05F4603E02B6A9846FAE70137F8
:102E20002B8FBB4215D92868534632002100FFF78B
:102E300070FB4B460343994628682100FFF7B8FF13
:102E40000A3402364346002BE9D001239C46E04475
:102E5000E5E701239C46E3445B46002BC4D048468B
:102E6000F0BCBB46B246A946A046F8BDF0B5816AA3
:102E70004368056823242A5D0126B2432A550022AF
:102E800027E002269F793E4230D1EF8B3C190F7824
:102E9000002F01D0013F0F709F88A74205D8202442
:102EA0002C5D0C709C79B4439C710C78002C02D181
:102EB0009C7934439C719C79264204D02326AC5DD6
:102EC00001273C43AC556446002C00D00A33013145
:102ED0000132048F640094420BD92C8901263700FB
:102EE0001740BC461642CCD16C89CBE7EF8BE41B74
:102EF000CDE7F0BDF0B5DE4657464E464546E0B557
:102F000083B03A23C35C9946826A43680668716A53
:102F10008B462324315D0125A943315500210091C1
:102F20008A468C460027B8465D4601954F460CE020
:102F30003489F58B641B11E00124A246D0444C4631
:102F40000C1BA2460A3301320131048F8C4221D975
:102F50009C79002CECD13489F58B64191578002DFF
:102F600001D0013D15709D88A54204D82024345D10
:102F7000147000249C711478002C01D101349C71D0
:102F80009C79002CDED0B942D6D20124A346DC4481
:102F90000091D7E74746019B9B4663467B43DBB2E4
:102FA0002822B354012B02D92823D732F2542823E4
:102FB000F35C012B0ED063461F4304D02322B35C85
:102FC00001210B43B35403B0F0BCBB46B246A94643
:102FD000A046F0BD6B461B885A461380524692B2FB
:102FE00059464A80002158468180494651435B1822
:102FF000C380E0E710B57B23C35C042B02D0062B13
:1030000003D010BDFFF776FFFBE7FFF72FFFF8E7D0
:1030100010B5CB688C225043181843680268948816
:10302000002208E03931415C91420BD80168CC881C
:1030300008E00A330132018F914208D97A21415CBC
:103040000129EFD01988A142F3D91C80F1E710BD06
:1030500010B5CB688C2242439B187B229B5C072BCC
:1030600000D110BDFFF7D4FFFBE730B5D3688C2249
:103070005043181842688B005B185B00D318046833
:10308000A2887A25455D012D04D01988914200D986
:103090001A8030BD3935405D8842F6D8E288F4E7C1
:1030A00010B5D3688C2444431B197B241B5D072B6C
:1030B00000D110BDFFF7D9FFFBE710B501F02EFAE4
:1030C00010BD10B501F0E8FA10BD000003689B6860
:1030D00019682B4B0B6000234B60802252058A60DD
:1030E000284ACA600B614B618B61CB610B624B62FA
:1030F0008B620B634B630222FF328A630B650B67A3
:103100004B67813A0120885004321F488850BC32F6
:103110008B50C0328B5004321C48885004328B5084
:1031200004328B5014328B5005E01A00C0329200EA
:10313000002050500133122BF7D9002305E05A1C10
:10314000FF329200002050500133072BF7D90023A3
:10315000A022D2008B500E4A8B50FC328B500D4A6D
:103160008B5004320C4888500C4A0D488850043269
:103170000C4888500C4A8B5004328B507047C04624
:1031800011001000011100000600030023003200AE
:103190000405000004060000140900010C060000EC
:1031A00010004000000401871406000010B50B6AEF
:1031B0000922DA620A6A30230024D454012801D09B
:1031C000052802D10B6A0E22DA62042800D010BD55
:1031D0000A6A30230130D0540A680333D35C022BCF
:1031E000F5D10B6A0E22DA62F1E70000F0B5C1B04A
:1031F0000400802252000021684606F0DDFF4B4BA0
:10320000009380235B0501933123059380235B02A8
:103210000793F0231B010A930223FF330C93444BC3
:10322000189319931A9323689B681868236ADB8B99
:10323000012B63D0013B1B043E4A13401193216ACA
:10324000CB8E002B5DD01B0202930B8F03934A8F12
:10325000120413430393A2685323D35C3122134314
:1032600005934823CB5C8A8F120413430693822371
:10327000DB051C938023DB051D932F4B1E9301233D
:103280001F9383332D4A6946CA5008332C4ACA50CB
:103290002268593BD35C012B37D08823294A6946E1
:1032A000CA50294B24AA1900E0C9E0C2E0C9E0C213
:1032B000096811602BAA19001C31E0C9E0C2E0C9FD
:1032C000E0C20968116032AA383362CB62C262CBB5
:1032D00062C21B681360236A5A78062A19D02368D1
:1032E0009B685B680222694603F0AAFD200002F099
:1032F000B1F8192005F02CF841B0F0BD134A009246
:1033000098E780235B0002939FE78733104ACA50F7
:10331000C7E746329A5C012AE1D022229B5C012B4E
:10332000DDD0BC230B4A6946CA50D8E71100100013
:10333000230032000000FF03000006080A00020418
:103340000001004000000809D8AE00001100100183
:10335000000A02040001018730B583B01C001B6A1B
:103360001D7885420ED01870256A2223E954216AFF
:103370002A33CA54032825D004283FD002280AD073
:1033800003B030BD22255D5D8D42ECD14C255D5DE5
:103390009542E8D1F4E72000FFF728FF00940123CD
:1033A00000220021092001F0E1FB2300012200217D
:1033B000092001F014FC230001220021092001F062
:1033C000BBFBDDE700940023002200210E2001F06A
:1033D000CDFB2300002200210E2001F000FCE36958
:1033E00000225A75230000210E2001F0A5FB2000C9
:1033F000FFF76CFE200002F02DF8C1E700940023D7
:1034000000220021092001F0B1FB2300002200214D
:10341000092001F0E4FBE36900225A752300002132
:10342000092001F089FB2000FFF750FE200002F088
:1034300011F8A5E770B505000C00FEF796FE2A68A6
:103440002B79072B00D901BE012C00D901BE002C1D
:1034500005D1012199405164FEF78BFE70BD012119
:1034600099401164F8E770B506000D0014001300D0
:103470000422002103F0F8FB226A9368190708D49C
:1034800008210B439360226A2523D654226A013314
:10349000D55470BDF0B5C64600B586B005000C0029
:1034A0000B689B681E6800230093019302930B6ACC
:1034B000402290469A5A013A80231B0213430393F9
:1034C000174B0493174B0593684602F005F8236ADF
:1034D00042469A5A93009B181803C01A192105F006
:1034E000EFF8210002F020F8002812D0C8239B0139
:1034F000F758FB030FD43F043F0C002033685B00F8
:103500005B083360002808D12F6006B080BCB84645
:10351000F0BD0720F2E70520F0E700232B60F4E779
:10352000FA0040000000FF0FF8B505000F00110081
:103530000023002007E02C68DE00A419667901242E
:10354000B440204301336C799C42F4D83A00FFF731
:1035500073F8F8BDF0B5D6464F464646C0B50600EE
:103560001500506900290ED1126B2B6A5B8E9B00EF
:10357000D118D25A4B889846EF688C235343BA46E9
:103580009A44002306E0526BEFE79A00B21800213C
:1035900011600133052BF8D92A6A4923D25C8023B4
:1035A000DB03134333612A6A4C23D45C012C1AD009
:1035B0002E335146CB5C012B13D00121138C022CEE
:1035C00013D0013B928E013A9204920C1B04494C99
:1035D00023401A43F26089010B43736100240021E8
:1035E0000CE00021EAE70021E8E78023DB00E8E7C0
:1035F0004279012393401C43083001312A689389A2
:103600008B42F5D8A869002105E047790123BB402A
:103610001C43083001312C23D35C8B42F5D82B6A34
:103620005B78042B26D0062B26D0022B20D000213D
:1036300032002000FFF700F82A6A4C23D35C022BEB
:103640001CD0012B04D07A215046415C012930D195
:10365000012B2CD0534698684346DB00C018052246
:103660003100FFF761FFE0BCBA46B146A846F0BDA5
:103670000121DDE70621DBE70721D9E75378042B99
:103680000FD00024002307E0AA69D900521851790D
:1036900001228A401443013329682C228A5C9A4211
:1036A000F2D8320005212000FEF7C6FFDBE7906A62
:1036B000D5E784683B239946C15C404605F000F895
:1036C000C000201803223100FFF72EFF53469D68EB
:1036D0003A235246D45C53464A46995C404605F02C
:1036E00075F86418E000281802223100FFF71CFF6B
:1036F000B9E7C0460000FF0FF8B50400036ADD8B90
:10370000002D00D10135188C9A8E0023002105F080
:1037100083F802000B002800002105F07DF8050069
:103720000E001922002305F057F802000B00002EAE
:1037300004D101D1182D01D80122002316001F0049
:10374000B6185F41B6185F4123681868044904F051
:10375000B7FF01000522300001F036F9F8BDC04680
:1037600040420F00F0B5C64600B586B00500140013
:1037700013689B681E68126A49236420D054220093
:103780006846FFF7E7FE2100684601F0A5FE20002D
:10379000FFF7B2FF210001F0C7FE002826D0C823A2
:1037A0009B01F758FB0324D43F043F0C00239846A9
:1037B00033685B005B0833604346002B1CD1104824
:1037C0007843246AA18E04F07BFF4923E45C4443E0
:1037D0006421200004F074FF0A4B9C4200D90A487F
:1037E0002860404606B080BCB846F0BD0723984626
:1037F000DEE705239846DBE700232B60F1E7C046B0
:1038000076030000632D3101400D0300F0B5CE4674
:10381000474680B587B0140013689B681F6800296D
:1038200054D1126B8300D018D25A43889946E56868
:103830008C235343ED18236A4C229A5C022A47D00A
:103840007A22AA5C022A47D0492264209854220096
:103850006846FFF77FFE2100684601F03DFE20002C
:10386000FFF74AFF210001F05FFE002838D0C8238F
:103870009B01FE58F30336D43604360C00239846D9
:103880003B685B005B083B604346002B18D11B483C
:103890007043266AB18E04F013FF4923F45C44435D
:1038A0006421200004F00CFF4C23F35C022B1DD09C
:1038B000134B9C4200D913482A694B469B00D050B9
:1038C000404607B0C0BCB946B046F0BD526BA9E750
:1038D0004732C8209854BAE7473232209854B6E7A6
:1038E00007239846CCE705239846C9E7064B9C4238
:1038F00000D90648F3681860E2E7C0467603000086
:10390000632D3101400D030063688909006A1800C6
:10391000F8B506000C00FEF728FC35683179072958
:1039200000D901BE0F2322009A4300D001BE4E00F1
:103930007618AA6807231F00B740BA432340B34054
:103940001343AB60AA6901231E008E40B243E40812
:1039500023408B401343AB61FEF70BFCF8BDF0B581
:10396000D6464F464646C0B515001F00DB688C2280
:1039700042439B189B68C90059180C68002D05D05C
:10398000032399464B79984600260EE00223994678
:10399000F8E729002000FFF74DFD0E212000FFF77A
:1039A000B7FFAA4526D00834013646451CD201216E
:1039B00069402000FFF73EFD49462000FFF7A8FFC1
:1039C0003A6A2423D05C04F0C3FC22682379082BD4
:1039D00000D901BE5068D84001231A000240924627
:1039E0000342D6D09A46D4E70020E0BCBA46B1469E
:1039F000A846F0BD0F20F8E7F8B5CE46474680B59B
:103A000006000F0090461D00DB688C224243914661
:103A10004B447A229A5C022A0BD02B004246FFF7D5
:103A20009EFF0400002C22D12000C0BCB946B04645
:103A3000F8BD3932995C380004F042FE01002B00D9
:103A400042463000FFF78BFF041EEBD1EC684C447C
:103A50003B23E15C380004F0B9FE3A23E35CC9186B
:103A60002B0042463000FFF77AFF0400DAE72A0015
:103A700039003000FFF7F7FCD6E770B505000C1EE3
:103A800022D00A682423D35C834201D8012070BD70
:103A900003F050F8236A9A6969008A5A824215D065
:103AA0009A68D20708D49883226A2323D554226ABD
:103AB000936801210B439360230004220021280016
:103AC00003F0D2F80F20E2E70120E0E70020DEE774
:103AD00070B50500002400E001342A682423D35C7B
:103AE000A34207D929002000FFF7C7FF0028F3D021
:103AF0000F2000E0002070BD70B504000D0003F041
:103B000019F82B6A9B696400185370BDF0B5D6464E
:103B10004F464646C0B582B08246894690461F0051
:103B20005C69002504E0012393400B6408340135EF
:103B30003E68B689AE4219D92068217901230093E5
:103B40004346524600F052FF4B46002B05D02168F9
:103B50002279072AE7D901BEE5E721682279072AF9
:103B600000D901BE012393404B64DFE702B0E0BC03
:103B7000BA46B146A846F0BD70B505000C00FFF787
:103B800015FB052D08D00021236A30229A5CD86AE3
:103B90002300FFF7BBFF70BD0121F5E7F0B5D64666
:103BA0004F464646C0B582B08246894690461F00C1
:103BB0009C69002504E0012393400B64083401351F
:103BC0003B682C269E5DAE4219D9206821790123DD
:103BD00000934346524600F009FF4B46002B05D0A8
:103BE00021682279072AE6D901BEE4E72168227913
:103BF000072A00D901BE012393404B64DEE702B0DF
:103C0000E0BCBA46B146A846F0BD70B505000C0050
:103C10000A682C23D35C002B00D170BDFFF7C6FAD5
:103C2000052D08D00021236A30229A5CD86A23002F
:103C3000FFF7B4FFF1E70121F5E7F0B5DE4657469F
:103C40004E464546E0B587B00290039193461B6807
:103C50009A460024002C06D007B0F0BCBB46B24602
:103C6000A946A046F0BD53469B68E200121B920095
:103C70009B189F681D7B1E691B7D99460495012337
:103C8000984600935B46029A2900380000F0AEFE89
:103C90004B460593434600935B46029A49463000E3
:103CA00000F0A4FE039B002B13D0049B072B00D92C
:103CB00001BE0123AB403B64039B002B11D0059B4D
:103CC000072B00D901BE01234A46934033640134D7
:103CD000C0E7049B072B00D901BE0123AB407B64E6
:103CE000EAE7059B072B00D901BE01234A46934012
:103CF0007364ECE710B50B00012807D0052808D045
:103D0000002109200022FFF798FF10BD00210E209E
:103D1000F8E701210E20F5E7F8B5CE46474680B515
:103D200005000300002200210120FFF715FB2900F8
:103D30000520FFF721FF29000520FFF766FF290076
:103D40000520FFF7D7FF2A6A2423D05C04F000FB8C
:103D500000239946002608E039329F5C013A9B5CBB
:103D6000FF1812E00F23994601362A682423D35CFA
:103D7000B34217D9EB688C2272439B187A229A5C63
:103D80000A2AF1D0022AE7D01F8F0024BC42EBD2CE
:103D90002B00012221003000FFF72EFE0028E1D188
:103DA0000134F3E729000120FFF7E6FE2900012096
:103DB000FFF72BFF29000120FFF79CFF2A6A24232D
:103DC000D05C04F0C5FA002398461BE039329F5CB2
:103DD000013A9B5CFF1824E00134BC420FD2EB682F
:103DE0009B197A229B5C0A2BF6D02B000022210023
:103DF0004046FFF701FE0028EED00F23994601232D
:103E00009C46E0442A682423D35C43450BD9EB68E5
:103E10008C26424656439B197A229A5C022AD5D0B8
:103E20001F8F0024D9E74846C0BCB946B046F8BD4C
:103E3000F8B50D00141E47D012682423D35C8342CA
:103E400044D9E3688C2646439B197A229A5C012A5E
:103E50000CD000230120AB4239D9012837D02000F3
:103E600000F04BFC071E07D0022030E01B8F226AB7
:103E7000917951700020EEE76368882212019A6000
:103E80002100032001F090FBE3689B199B68EA0086
:103E9000216A9B188B622300012201210220FFF777
:103EA0005BFAE3689B197B229A5C072A0AD0D868E0
:103EB000AD00401922003900FFF754FC636800226E
:103EC0009A6004E00137F2E7012000E00120F8BD2C
:103ED000F0B5C64600B5060000239846002516E05A
:103EE00039329F5C013A9B5CFF1820E00134BC42F0
:103EF0000CD2320021002800FFF79AFF0028F5D0ED
:103F00004346002BF2D10F339846EFE70135326874
:103F10002423D35CAB420CD9F3688C226A439B18F0
:103F20007A229A5C0A2AF1D0022AD9D01F8F002463
:103F3000DDE7404680BCB846F0BDF8B505000E0090
:103F4000141E40D0002905D1176B0823AB4204D8BA
:103F50000120F8BD576B0123F8E7200000F0CDFBEE
:103F6000002801D00220F4E76368882212019A60D9
:103F70002100033001F018FB226A4C230021D154A8
:103F8000236A5D86AB00F95AE2688C234B43D21852
:103F90007A21525C012A04D00120636800229A60D1
:103FA000D7E7226A91795170E268D3187A22995C36
:103FB000230000220220FFF7CFF922003100280061
:103FC000FFF724FCE9E70120C3E710B50021FFF764
:103FD000B4FF10BD10B50A000121FFF7AEFF10BD00
:103FE000F0B5C64600B50500066B436B9846002742
:103FF000002400E00134072C14D8A300F25AEB6827
:104000008C2151435B187A229B5C0A2BF2D02A0048
:1040100000212000FFF7D9FF0028EBD0002FE9D1C5
:104020000F37E7E70024002C03D0380080BCB846E7
:10403000F0BDA3004246D15AEB688C224A439B183C
:104040007A229B5C0A2B01D10134ECE72900200085
:10405000FFF7C0FF0028F7D0002FF5D10F37F3E7A7
:1040600070B50C1E2DD00A682C23D35C002B05D113
:104070000B6A5B79042B01D0012070BD236A5A7949
:104080005A70200000F039FB002801D00220F4E72C
:104090006368882212019A602100033001F084FADB
:1040A000236A00255D862300022201210220FFF7FA
:1040B00053F9220000210020FFF7A8FB63689D60F0
:1040C000DBE70120D9E70000F8B5CE46474680B5CA
:1040D00005000C009046FEF748F8072C00D901BEF9
:1040E000434BEB181B0A434A944663441B021B686C
:1040F000A200D3400F261E40072C00D901BE3C4B26
:10410000EB181B0A3B4A944663441B021A68A7003B
:104110000F21B9408A431A60FEF72BF8FEF725F805
:10412000072C00D901BE62001219AB68D3400727E3
:104130001F40AB69E340DB00082213401F43072CFC
:1041400000D901BE0123A3406B64072C00D901BE36
:1041500062001219AB68072191408B430621914000
:104160000B43AB60AB690122A24093431343AB61A5
:10417000FDF7FFFF43461B6AD88F04F0E9F8FDF70F
:10418000F4FF072C00D901BE61000919AB689846FD
:10419000072399461A008A40434693431A004B4628
:1041A0003B408B401343AB60AA6901231900A14037
:1041B0008A43FF083B40A3401343AB61072C00D95F
:1041C00001BE0B4B9C4665442D0A0A4B9C46654438
:1041D0002D022B68A4000F22A2409343A6401E4349
:1041E0002E60FDF7C6FFC0BCB946B046F8BDC0465C
:1041F0000000FCBF00024000F0B5CE46474680B547
:1042000085B0040000230393029303689B681A6837
:1042100090469F681B7B9946026A40230321D15236
:10422000314B10224146CA5088239B000F3ACA5096
:10423000036A2732DA87036ADA8F002A01D1013252
:10424000DA87220049463800FFF73EFF0026009635
:10425000062309224946380000F0C8FB210003A8C4
:10426000FFF718F905000096002309224946380097
:1042700000F0BCFB002D05D0280005B0C0BCB9463D
:10428000B046F0BD88239B004246D650164B174AD5
:104290004146CA50220049463800FFF715FF0096F4
:1042A000062309224946380000F0A0FB210002A89D
:1042B000FFF7F0F805000096002309224946380070
:1042C00000F094FB002D0BD1029B09485843039941
:1042D00004F0F6F9074B9C466044236A1882CBE74A
:1042E000236A00221A82C7E70C0600001000400073
:1042F000B3060000C6020000F0B5D6464F4646465B
:10430000C0B584B006000F0015001C000023039305
:10431000002C00D1A1E0192A00D9A0E0002A00D188
:10432000A5E0012801D901269AE0200000F0E5F976
:10433000002800D09DE06368882212019A60002E58
:1043400068D0012E71D0012600239A462100032057
:1043500001F02AF900287BD1002E7AD12300002217
:1043600000210330FEF7F8FF6801401B8000401970
:104370000001FA21890004F0A3F9236AD887236A8F
:10438000DA8F002A01D10132DA87220049464046FD
:10439000FFF79AFE38486843FA2104F091F90300C8
:1043A0004001C01A8000C018C000344904F088F9E8
:1043B00001308023DB01984200D33148226A402338
:1043C000D052002500953A3B09224946404600F06C
:1043D0000DFB210003A8FFF75DF806000095002300
:1043E00009224946404600F001FB002E29D1039ADC
:1043F00053019B18D9015B181801801A800080189E
:10440000204904F05DF980B253461880002F20D077
:1044100038601EE023689B689A6890461B7B99462B
:10442000236A442292469A4490E723689B681A695B
:1044300090461B7D9946236A462292469A4400265E
:1044400084E7002352461380002F02D03B6000E037
:104450000526636800229A6002E0012600E001263A
:10446000300004B0E0BCBA46B146A846F0BD012613
:10447000F6E70226F4E7C046308C1100649D29025D
:10448000FF3F0000A086010030B583B00400002388
:1044900001930300052201A90020FFF72DFF05006D
:1044A0002300052201A90120FFF726FF002800D1E3
:1044B000280003B030BD70B505000C1E2BD00800DD
:1044C00000F01BF9002801D0022025E06368882253
:1044D00012019A602100033001F066F8002804D030
:1044E0000520636800229A6016E023000022002164
:1044F0000430FEF731FF2000FFF77EFE002805D1D3
:10450000002DEED0236A1B8A2B60EAE7002DE8D04D
:1045100000232B60E5E7012070BD000070B50400AA
:104520000D00434B18427AD1002900D17AE00800EF
:1045300000F0E3F8002800D076E0E30725D4002659
:104540002900032001F030F8002800D06EE0230796
:1045500027D4230631D463063CD4E30646D4E305CE
:1045600050D4A4065CD52A683323D35C002B57D0E3
:1045700029000020FFF774FD002851D02A6A9368B3
:1045800020210B4393600F264AE02800FFF7A0FA92
:10459000061ED5D02A6A936801210B4393600F262B
:1045A000CEE72800FFF7B8FB0028D2D02A6A93682C
:1045B00008210B4393600F26CBE729000020FFF76B
:1045C0007AFF0028C7D02A6A936880210B43936042
:1045D0000F26C0E72800FFF757FF0028BDD02A6A42
:1045E000936840210B4393600F26B6E72800FFF73E
:1045F000F7FC0028B3D02A6A936810210B4393601C
:104600000F26ACE72800FFF763FC0028A9D02A6A30
:10461000916880235B000B4393600F26A1E701267E
:10462000300070BD0126FBE70226F9E70526F7E713
:1046300006FEFFFF10B5040001000120FFF79CFA01
:1046400021000120FFF7E1FA21000120FFF752FBD2
:10465000226A00231370226A537010BD036ADA8B3A
:10466000002A01D10132DA831A8C002A02D10132E8
:10467000FF321A841A8C032A01D804221A84198C56
:1046800080225201914200D91A8464229A861A8C9F
:104690005208DA869A87704770B5050002682423AD
:1046A000D65C002404E029002000FFF725FA01343D
:1046B000B442F8D32800FFF7D1FF2A6A0023137011
:1046C0002A6A5370296A22228B542B6ADA789A71EB
:1046D0002B6A1A79DA712B6A9A785A7170BD10B503
:1046E00000F0F4FF10BD10B5021E04D00821002018
:1046F000FFF7F5FF10BD0120FCE743689B688020B1
:104700001840704710B5002000F069F910BD10B5D1
:1047100001F060FE10BDF8B504000F00161E74D045
:10472000D36900225A753100002000F03DFF042CAF
:1047300022D01DD8012C21D0022C21D10223042FFC
:1047400022D00125052F2FD0062F3CD0012F48D095
:10475000F36900225A75002D58D1012F56D131002E
:104760000020FEF7F9F931000120FEF7F5F94DE0E0
:10477000052C07D10623E2E70423E0E70123DEE767
:104780000023DCE70023DAE7621E012A03D9042CA8
:1047900001D00125D6E7326A9179994202D093710E
:1047A0000025CFE70025CDE7012C03D0052C01D053
:1047B000022CC9D1326AD179994202D0D371002535
:1047C000C2E70025C0E7621E012A01D9042CBDD131
:1047D000326A5179994202D053710025B6E700251B
:1047E000B4E7631E012B01D9042CB1D1B368742244
:1047F0009A5CE4B2A24201D10025A9E774229C543C
:104800003000FDF7C7FE0500A2E701252800F8BD2E
:10481000F0B5CE46474680B583B006000D00CC68A3
:104820008C234343E41820682323C35C1B070AD46A
:1048300000277A23E35C012B0FD0380003B0C0BC03
:10484000B946B046F0BD8023E25A043000910023FF
:10485000310001F0EDFD0700EBE77A33E35C043B48
:10486000DBB2012BE9D820682323C35CDB06E4D547
:104870008023E35A8222A25A9B18013B99460630B4
:10488000009500234A46310001F0D2FD0743002382
:10489000002B10D0002B01D010231F433B23E25CE0
:1048A00043465B889A42C8D323689A88D9889980FE
:1048B0002368DA80C1E7296BDA004A44920088183D
:1048C0008046895A024A9142E4D90133E0E7C04662
:1048D000FCFF00008B68DB6A5843800B00D0013876
:1048E00080235B02984200D270470148FCE7C04633
:1048F000FFFF000070B50C1E1DD08B68D8618D685D
:10490000FFF7E8FF286263689B68102210001840D8
:104910001A420FD023689B681A68136F1B0C1B0484
:10492000136723689B681A68136FA168096A0B43B1
:104930001367002070BD0120FCE7000070B582B055
:104940000500FA235B000193002837D003F036FA04
:10495000019801A903F076FA041EF9D1184B1E68DC
:1049600003F052FA3006AE68164903F0A9FEF06271
:10497000AE68F0692900FFF7ADFF3062AE68706A7B
:104980002900FFF7A7FFB062AA68136A01936B685A
:104990009B689B0601D5936A01932B689B681A68F4
:1049A000136F1B0C1B0413672B689B681A68136F2B
:1049B00001990B431367200002B070BD0124FAE790
:1049C0002000034040420F0010B50B00111E03D021
:1049D000584303F075FE10BD01204042FBE710B5BF
:1049E00008008B681B69984710BD0000F8B5CE46DB
:1049F000474680B505000C0016001F00FDF7B5FB0B
:104A0000002F4DD1072C00D901BE0F233A009A4345
:104A100000D001BE464BEB181B0A464A944663443D
:104A20001B021A689046A1008C460F2162469140F5
:104A300042468A430F2139406746B9400A431A600B
:104A4000072C00D901BE0F2332009A4300D001BECB
:104A500061000919AA6807231F008F40BA43334039
:104A60008B401343AB60AA6901231900A1408A431C
:104A7000F6083340A3401343AB61089B002B4BD097
:104A8000072C00D901BE6B6A0121A140FF220A4018
:104A900013436B62FDF76DFBC0BCB946B046F8BD71
:104AA000072C00D901BE0F2332009A4300D001BE6B
:104AB00061000919AB689846072399461A008A4095
:104AC000434693431A004B4633408B401343AB603D
:104AD000AA6901231900A1408A43F6083340A34084
:104AE0001343AB61072C00D901BE0F233A009A4350
:104AF00000D001BE0E4BEB181B0A0E4A94466344CD
:104B00001B021A68A6000F21B1408A430F213940C9
:104B1000B1400A431A60B0E7072C00D901BE6B6AA6
:104B20000121A140FF220A4093436B62B2E7C046D5
:104B30000000FCBF00024000F0B583B004000D008F
:104B400016001F001B689B68197B986800922B0059
:104B50002200FFF74BFF3B689B68197D18690096A0
:104B60002B002200FFF742FF03B0F0BDF0B5DE4698
:104B700057464E464546E0B583B083468A46914641
:104B800098460C9F7C69002504E0012393400B6448
:104B9000083401353B689E89AE4219D920682179D5
:104BA0004346009353465A46FFF720FF4B46002BDF
:104BB00005D021682279072AE7D901BEE5E72168F7
:104BC0002279072A00D901BE012393404B64DFE715
:104BD00003B0F0BCBB46B246A946A046F0BDF0B556
:104BE000D6464F464646C0B582B082468946904674
:104BF0001F009C69002604E001259D40556408348F
:104C000001363A682C23D35CB3420DD92068217950
:104C1000434600934B465246FFF7E8FE226823794D
:104C2000072BE9D901BEE7E702B0E0BCBA46B146BE
:104C3000A846F0BD4268936881210B43936070479A
:104C400010B54268936801218B4393604268936872
:104C50007F318B43936083685B68002B01D0002019
:104C6000984710BD70B50A6903011B1A9B00D31841
:104C70009D8E002D00D0013DCB688C2242439B18B5
:104C80007B229B5C072B04D00C6B8B6A0C330022BD
:104C900018E04C6BCB6A20330022002A00D070BD94
:104CA0002188814203D004342C330132F5E719689E
:104CB0000B4E314019602E0431431960F3E7043480
:104CC00018330132072AEAD821888142F7D11968BE
:104CD000034E314019602E0431431960EFE7C0469E
:104CE000FFFF00F030B5CB688C2242439B187B223B
:104CF0009B5C072B04D00A6B896A1031002316E0F5
:104D00004C6BCB6A24330022002A00D030BD2188AE
:104D1000814203D004342C330132F5E71D68FF21B2
:104D2000090229431960F5E7043218310133072BD2
:104D3000ECD814888442F7D10D68FF2424022C4358
:104D40000C60F1E770B50400914211D80125022CE6
:104D500003D0049A9A4200D20025002C06D11900F3
:104D6000049803F033FD002900D02500280070BD11
:104D70000025ECE7020080231B02044801E0400804
:104D80005B08012801D91A42F9D07047FFFF0000E3
:104D900010B5828D8B684D215C5CA418988FFFF74D
:104DA000E9FF01308008844203D30220082318431E
:104DB00010BD0020FAE7032303405B1801330120F4
:104DC0009840704770B504000E001D00424310006B
:104DD000642103F075FC0300EB40A01BE840834214
:104DE00000D8180070BD0000F0B5DE4657464E46AC
:104DF0004546E0B587B004000768BA8D8B684D2141
:104E00005E5CB61880225202964200D32D4E3622A6
:104E1000BD5C4A329543323A9A5C91468822A25C44
:104E200092468722A25C9346988FFFF7A3FF0390D8
:104E300049462800FFF7BFFF04907A23E55C012D67
:104E400021D00A2D1CD004230593F8894B465A46DD
:104E50000599FFF7B7FF02000096039B049950469F
:104E6000FFF770FF8046012D10D004204346034316
:104E7000180007B0F0BCBB46B246A946A046F0BD3C
:104E8000723B0593E1E708230593DEE77B23E35CB0
:104E9000043BDBB2012BE8D80028E6D0388A4B4629
:104EA0005A460599FFF78EFF02003604360C00962D
:104EB000039B04995046FFF745FF8045D5D000235A
:104EC0009846D2E7FFFF000010B5FFF77BFF0F28E1
:104ED00005D8072805D8032805D9012000E00320BC
:104EE00010BD0220FCE70020FAE7F8B504000668D0
:104EF000F58928008A684E23D35C8722A25C7A2138
:104F0000615C012909D0012914D00A2910D000219F
:104F1000FFF7DAFF80231843F8BD7B27E45D043CEC
:104F2000E4B2012CEFD8348AA542ECD92000EAE79C
:104F30000239EDE70821EBE7F8B5DE4657464E4665
:104F40004546E0B58346C468002399469A4698468C
:104F500051E07A33E35C072B57D0002555E000255C
:104F600058E03623F356002B18DB002F1DD17A238F
:104F7000E75C012F23D00A2F1ED00123994603237B
:104F80002B40012B1ED0F389534527D38022520199
:104F9000934226D980231B01994622E059462000DE
:104FA000FFF7A3FF3623F054DFE759462000FFF751
:104FB0001BFF2123F054DAE7723B9A46DFE7082310
:104FC0009A46DCE73533F05C4A3398435B469A688F
:104FD0004E23D15CFFF7EFFE8244D4E780231B0110
:104FE0009946012F28D080231B01994538D08C3455
:104FF00001239C46E0444346022B31D826682123F6
:10500000F55C5933E35C012BA3D07A23E25A184BA9
:105010009A42A4D004231F002F402B42A1D1013B70
:105020002B40012B9DD02B07A1D559463000FFF70F
:10503000AFFE2123F0549AE77B23E35C043BDBB211
:10504000012BD0D8338A534507D380225201934293
:10505000C9D980231B01994602E080231B01994690
:105060004846F0BCBB46B246A946A046F8BDC0467D
:105070000107000010B50400010000208023DB01BF
:1050800000E09B08002B07D01A0002434008914221
:10509000F7D3891A1843F4E703004343A34200D22D
:1050A000013010BDF8B5CE46474680B50400150066
:1050B00013689B681B68984641184B1E994601E08F
:1050C000198001344C4522D82B6BA6009F5B290028
:1050D000380001F085FD0028F3D02B6B9B19588810
:1050E000C8239B014246D158EB688C227A439B1817
:1050F0005B688200121852009B189A790420824340
:105100009A71C803DCD5042002439A71D8E7C0BC69
:10511000B946B046F8BD0000F0B5DE4657464E46EB
:105120004546E0B583B00190160052680092B76B17
:1051300033689B681B689A464318013B9946294B84
:105140005046C0584005400D274B5446E358002BAD
:105150000CDB0323009A1377009C019B2376617676
:1051600003F0AEFAA07600239B462DE001231377CF
:10517000F2E71B689B88A34221D91C1B3C800237A5
:1051800001354D451DD8C8239B015246D4582404EF
:10519000240C726BAB00D35A98463100180001F012
:1051A0001FFD0028EBD0F3688C2241464A439B1830
:1051B0007A229A5C022ADCD00A2ADFD1D9E70024BD
:1051C000DCE701239C46E344009B9B7E5B4501D9C1
:1051D000019DD6E703B0F0BCBB46B246A946A04647
:1051E000F0BDC0461034000014340000F8B50400CF
:1051F0000D0016008B1E012B01D9012708E00D06BA
:1052000080277F043D4003E0012003F0A1F8013C2A
:1052100033689B681868C0235B00C3583B40AB42AF
:1052200003D1002CF0D1042000E00020F8BD0000E4
:10523000F0B5C64600B5904613689B681F680C0021
:10524000242900D9242443469A684623D4520029AD
:1052500062D043469E6A43001B18DB00F618802389
:105260009B01FD183B685B005B083B6080230022CC
:10527000FA500133FF33FB58DB0106D5A2235B0054
:1052800080225202FA5000220DE0A2235B0001327C
:10529000FA50BA2042460221FF30FFF7A7FFF2E79B
:1052A00008CE08C5013263001B195B009342F7D892
:1052B000043D2B68042213432B60FB681F490B40FD
:1052C000FB603A681E4B1A4080231B0213433B606D
:1052D000BA680A4080235B001B1B1B0419490B4062
:1052E0001343BB6043469B681A68002A03D06121C0
:1052F0005B5C012B13D043469A686123D35C012B7E
:1053000011D001228023FA50396880231B060B43F9
:105310003B60A0235B00FA5080BCB846F0BD43461A
:10532000D8699047E7E78033FF33FB58DB01E8D5C6
:10533000A2235B0080225200FA50E2E7FFFF00FC4C
:10534000FF0FFFFF0000FF03F8B5040003689B6830
:105350001D68866890235B00EA580833EB581340B9
:10536000DB032AD490235B00EB58DB0705D54268AA
:1053700091688023DB000B43936090235B00274AF6
:10538000EA506368DB8ADB070CD42B685B005B08A0
:105390002B60A2235B0080225200EA502000FFF71E
:1053A0004FFCF8BDB08E4623F15A2200FFF7B4FE41
:1053B0006268D37E0133D376E7E790235B00174A18
:1053C000EA50B08E4627F15B2200FFF76BFEF35BDD
:1053D000B28E9B189BB2B386F18E8B420DD8C91A40
:1053E00001312B6F1B0C1B042B6761230022F2542D
:1053F000B08E2200FFF71CFFD3E72B685B005B0831
:105400002B60A2235B0080225200EA5062689388DE
:10541000013393802000FFF713FCC2E71100110154
:105420000200002000E00130012383409342FAD3C0
:105430000F2800D870470F20FCE710B5FFF7F0FFEA
:1054400001238340180080235B00984200D810BDE0
:105450001800FCE770B5050003689B681C682368AA
:105460005B005B08236001238022A35002689268DE
:105470001168C02252008A5813421CD0226880232F
:105480001B06134323600023636794225200A3503A
:10549000083A0E49A150203A0D49A150A9688F3A07
:1054A0008B5423680B4A13402360A26880235B055A
:1054B0001343A36070BD4433FF330122E2503C200C
:1054C0002A000021FF30FFF791FED7E711001101FC
:1054D000111101C1FFFFFCFF10B502000B689B68B2
:1054E0001C68216880231B060B43236090235B000C
:1054F0000A49E150203B0A49E1500621200001F011
:1055000073FD084BE25806210A43E250E258053980
:105510000A43E250E0239B01E15010BD110011014C
:10552000111101C13430000070B505000B689A6894
:10553000146818680A4903F0C3F80100052228001E
:10554000FFF742FA00E0013880235B00E2581A427C
:1055500001D10028F7D180235B00024AE25070BDE0
:1055600040420F00111101C110B503689B681C680F
:10557000FFF770FF8023DB000022E2500DE0930173
:10558000E318C121C9005918C020800408600449EB
:105590008C466344034919600132022AEFD910BDD9
:1055A0000C06000000101000F0B5C64600B582B031
:1055B00005000C000F68BB681B6898468A68552375
:1055C000D25C824276D0032A15D005D9053AD2B2F0
:1055D000012A17D9012602E0022A11D90126A26860
:1055E00073230021D154002E56D1062D68D8AB006C
:1055F000344AD3589F460800FFF71CF80026EEE710
:105600000026ECE70026EAE70094012300220021AF
:105610000920FFF7ABFA2300012200210920FFF740
:10562000DEFA6268936830218B439360E36900225D
:105630005A752300013200210920FFF77DFA616AC3
:10564000BB685B680222404601F0FAFB002801D0EB
:10565000402630E084235B0000224146CA501833C4
:10566000194ACA50193002F073FE15E00094012364
:10567000002200210920FFF779FA230001220021EE
:105680000920FFF7ACFAE36900225A7523000132C2
:1056900000210920FFF750FA002E0CD1A2685523F3
:1056A000D55408E02000FFF75FFFF5E72000FFF783
:1056B000D1FEF1E70026300002B080BCB846F0BD54
:1056C0000126F8E780AF000011001101F0B5D646C1
:1056D0004F464646C0B506000F00141E00D1ADE08F
:1056E000002900D1ACE0072800D9B0E00B18013B3D
:1056F0009846072B01D90125A3E01000FEF7FDFF16
:10570000802800D1A5E02000FFF794FAA36899460D
:1057100023689B681B689A46732300224946CA5433
:105720001E3BCB5C022B56D0042B54D02100022010
:10573000FFF73AFF051E00D083E0626893683021CE
:105740008B4393606268936820390B4393607123A5
:1057500003224946CA5453461A68C0239B02134386
:105760005246136013683C4A134052461360136F4D
:105770003A4A134052461367136F80225202134372
:1057800051460B6723689B6819680B6F1B0C1B0441
:105790000B6723689B6819680B6FA068006A034356
:1057A0000B67002351464B672933FF33CA50B3B20E
:1057B000482249468B528B864246CA866123012283
:1057C000CA54242F01D81233CA54220039003000A1
:1057D000FFF72EFD35E048234A46D35AB342A5D100
:1057E0004623D35ABB42A1D1242F9FD8636899681E
:1057F000802292010D001540114297D19B68DB0673
:1058000094D5732301224946CA548E86A3681B6827
:10581000002B01D0E069984753461B685B005B088A
:1058200052461360126880231B06134352461360CE
:10583000A0235B0001225146CA5002E0012500E08E
:1058400001252800E0BCBA46B146A846F0BD0125B6
:10585000F7E74025F5E7C046FF0FFFFFFFFF00C059
:10586000F0B5D6464F464646C0B582B080460C00DD
:1058700015004618013E002A00D148E1002900D158
:1058800047E1082900D94CE1002E01D0012741E170
:1058900052689368A5490B4093602800FEF72DFFDE
:1058A000802800D13FE129000220FFF77DFE071E7E
:1058B00000D02FE12800FFF7BDF9AB689A462B68AE
:1058C0009B681B689946732301225146CA548B8EEC
:1058D000434532D0534642469A86DE864623524698
:1058E000D4522B3303225146CA544B461A68C02364
:1058F0009B0213434A46136013688D4A13404A467D
:1059000013608C4B5367536F012213434A4653670E
:1059100013685B005B081360C0235B00D358DB0196
:105920001FD5A2235B00802252024946CA5001972C
:10593000EA6A2C21434659432FE0CB8EB342C9D1AA
:105940006B689B689B06C5D5C0235B004A46D2584E
:10595000803BFF3B110019401A4200D0C5E00F0008
:1059600096E0802300224946CA50C4330132CA500F
:105970003C202A000221FF30FFF738FC019000286C
:10598000D6D0070033E0BB005618F65880231B0121
:10599000FB189B0048461E500137A3001B195B00F3
:1059A0001B19BB42EFD8644A944663449B004A46A5
:1059B0009A5804210A4349465A50F02189014B461E
:1059C0005B5801221343484643505C4BC3581A426C
:1059D00000D188E0019FC0235B004A46D358DB0119
:1059E00005D5A2235B00802252004946CA50002FF1
:1059F0004ED14B46DB68524A13404A46D360136887
:105A00004B4A13404A461360136F4E4A13404A46AE
:105A10001367AB684A22995A8022D201914202D37D
:105A20004A22494999524B461B6FA9684A228A5A11
:105A3000120413434A461367126F80231B06134355
:105A40004A4613672B689B681A68136F1B0C1B046C
:105A500013672B689B681A68136FA968896A0B43E0
:105A60001367802301224946CA508E68344B1E407A
:105A700021008020400002F023FE0B3844438023A5
:105A80005B001B1B1B04314A13401E434B469E60A8
:105A90006A68936830218B4393606A689368103911
:105AA0000B439360002F35D153461B68002B01D068
:105AB000E86998474B461B685B005B084A461360E1
:105AC000126880231B0613434A46136094235B002D
:105AD00011224946CA503032FF328B5801210B4304
