:1000000000200020F1030000D9030000DB03000002
:1000100000000000000000000000000000000000E0
:10002000000000000000000000000000D9030000F4
:100030000000000000000000D9030000D903000008
:10004000D9030000D9030000D9030000D903000040
:10005000D9030000D9030000D9030000D903000030
:10006000D9030000D9030000D9030000D903000020
:10007000D9030000000000000000000000000000A4
:100080000000000000000000000000000000000070
:100090000000000000000000000000000000000060
:1000A0000000000000000000000000000000000050
:1000B0000000000000000000000000000000000040
:1000C0000448054B10B5834203D0044B002B00D0ED
:1000D000984710BD5C0500205C0500200000000072
:1000E00006480749091A8B10C90FC91810B54910DD
:1000F00003D0044B002B00D0984710BD5C050020B6
:100100005C0500200000000010B5074C2378002B90
:1001100009D1FFF7D5FF054B002B02D0044800E0C2
:1001200000BF0123237010BD8005002000000000E7
:10013000A4AE0000054B10B5002B03D004490548C0
:1001400000E000BFFFF7CCFF10BDC046000000007C
:1001500084050020A4AE0000402292029A1A924622
:100160007047C046174B002B00D1134B9D46FFF73D
:10017000F3FF00218B460F461348144A121A09F068
:10018000BBFE0E4B002B00D098470D4B002B00D030
:1001900098470020002104000D000D48002802D0DF
:1001A0000C4800E000BF09F0AFFE2000290000F07D
:1001B000B7FB09F03DFEC04600000800000000004B
:1001C000E50300000020002080050020E409002055
:1001D000000000000000000010B500F0ABF800F0D7
:1001E00013F800F04AF800F05FF810BD10B500F009
:1001F00043F800F057F800F099F810BD10B5FFF77C
:10020000EBFFFFF7F3FF10BD10B50021012008F050
:1002100093F919220021012008F0D4F800210120CF
:1002200008F068F90121012008F086F9192201215E
:10023000012008F0C7F80121012008F05BF9002136
:10024000022008F079F9012319220021022008F088
:10025000DDF80021022008F04DF90021032008F00C
:100260006BF9002300220021032008F0CFF80021C1
:10027000032008F03FF910BD704710B5002201219E
:10028000002008F013F900220321012008F00EF9E4
:100290008020400108F068FB002008F075FB08F0A2
:1002A00085FB10BD7047000010B5154A154C0221A2
:1002B000200006F00DFD144A0321200006F008FD81
:1002C000124A0421200006F003FD114A05212000F6
:1002D00006F0FEFC0F4A104C0021200006F0F8FC4E
:1002E0000E4A0221200006F0F3FC0D4A03212000F3
:1002F00006F0EEFC0B4A01210B4806F0E9FC10BDAC
:100300006CA200000002044084A20000CCA2000005
:10031000B4A2000054A2000000030440FCA20000AC
:10032000E4A200009CA2000000040440704701BE4B
:100330007047000070B5302008F0FEF91A4C802597
:100340002D062563194E300007F090FE002007F0BF
:10035000EFFFA36A0C229343A362A36AB4329343D0
:10036000A36200F095F8002008F006F9E36A1D4347
:10037000E562300007F07AFE002007F0D9FF011E89
:100380000ED1094B9A6A0C218A439A629A6AB43157
:100390008A439A62182008F0CFF900F079F870BD0E
:1003A0000620FFF7C4FFECE70000034000366E01B3
:1003B00010B5044808F0F0F9002801D0002010BD65
:1003C0000148FCE7AC0400200000020610B5FFF76E
:1003D00015FFFFF7EDFF10BDFEE710B508F0AAF915
:1003E00010BD704710B5FFF7FCFF10BD704700004F
:1003F00010B5FFF7FBFF00F03FF8174C1749C0227C
:10040000200009F0A5FD164B9C60BFF34F8F154AE5
:1004100009E01468990050686458445001339168A9
:100420008B42F6D30C32104B9A4201D20023F6E7EE
:100430000E4909E00A689800121800201060013384
:100440004A689342F6D30831094B994201D20023FE
:10045000F6E7FFF787FEC04600000020000000001E
:1004600000ED00E0B0AE0000BCAE0000BCAE00008D
:10047000C4AE00007047000010B5034B034A9A63F6
:1004800072B6FFF7F7FF10BD000003406588EDACC2
:1004900070B5114B9B6A9B0903251D400124AC409C
:1004A00007F072FF64080019E84014D00B4B186085
:1004B000441E0B49200008F0E3FA0130094B187084
:1004C000FA218900200008F0DBFA0130064B1860A1
:1004D000C003064B186070BD00000340C804002034
:1004E00040420F00D4040020D0040020CC0400209F
:1004F00010B50249024804F00DF910BD2C0100208E
:100500000000294010B582B06A46144B11CB11C2CD
:10051000134801F009FF002801D002B010BD1149B5
:10052000684608F089F86B4600229B5E002B07DBCB
:100530001F21194001228A400B48C0214900425026
:10054000002B06DB1F2213401E3A9A401300064A76
:100550001360034801F036FEDFE7C0463CA300000D
:100560002C010020F104000000E100E010B511486A
:1005700006F048FA002819D00F4B1B68002B0FD04B
:1005800001F010FD96235B00984212DB0A4B00221B
:100590001A600A4801F0C0FC064801F0ADFF08E00F
:1005A00001F006FD044B01221A60E9E7024B00222C
:1005B0001A6010BD2C0100209C08002014A300002C
:1005C00000B583B06B460022DA711C49022006F0A8
:1005D00056FA0279036818885988012A04D0002A3B
:1005E00029D1174B1A7026E0164B4A0052189B1857
:1005F000185C6B46D871124B1B78002B03D0124B42
:100600001B78984212D00E4B01221A7000F012F99A
:1006100000F088F80D4801F07FFC6B46D81D01F012
:100620007BFC0B4801F078FC01F0C2FC064B6A46EB
:10063000073212781A7003B000BDC0462C010020AA
:1006400098080020D8040020990800202CA300005E
:10065000D4A3000010B5104A0121002004F047F88F
:10066000002815D101F089FD040007E008F048F9E1
:10067000200001F086FD01F080FD0400064804F032
:1006800044F80028F2D1200001F07BFD002010BDCD
:1006900001204042FBE7C0462C01002010B5104A63
:1006A0000721012004F023F8002815D101F065FD91
:1006B000040007E008F024F9200001F062FD01F0D9
:1006C0005CFD0400064804F020F80028F2D1200068
:1006D00001F057FD002010BD01204042FBE7C0465D
:1006E0002C01002010B5024801F0E3FD10BDC0460A
:1006F0002C01002010B50249002001F0ADFD10BD15
:100700002C01002010B5054A0021002006F09DF9BB
:10071000002801D0012010BD0020FCE72C010020A2
:100720000020704770B5044C01252564012007F0B6
:10073000D5FF656470BDC0460003044010B5024992
:10074000024807F01BFA10BDA00800200000254059
:1007500010B50400830607D543060AD5114B12498C
:100760000422124807F0FCF9E30601D5640611D50E
:1007700010BD0C490D4807F0FEF90428EED10A4BD4
:100780001B78012BEAD1084BDB78172BE6D101F05F
:10079000C9F8E3E7034B06490122044807F0D4F9FE
:1007A000E6E7C046A0080020F80800200000254029
:1007B000F408002070B5174A1749184807F016F8D2
:1007C000002800D001BE1649164807F035FF051E67
:1007D00000D001BE0F4C1449104E230004223000FB
:1007E00007F0BEF9114B6364114B80221A60326826
:1007F00080231B0613433360F36EA278002A06D0D1
:10080000802252001343054AD366280070BD00229F
:10081000F8E7C046A0080020F8A10000000025402D
:100820003D07000044A30000F80800205107000025
:1008300000E100E010B504490870044B01220448AF
:1008400007F082F910BDC046F4080020A00800207F
:10085000000025400020704710B5054807F09CFFB8
:10086000044807F099FF044807F096FF10BDC04602
:1008700008050020EC0400202C05002010B501F034
:100880007FFBFFF74DFFFFF795FF002800D001BE6B
:1008900000F0A4FA002800D001BE01F01DFC0648BB
:1008A00001F03AFB054801F037FB054801F034FB45
:1008B000044801F031FB10BD4CA3000058A3000018
:1008C00098A30000D8A30000F8B507000E00134C51
:1008D00022000421042003F026FF2200042104202A
:1008E00003F021FF2100102002F0EFFB0500E36878
:1008F00019692422380009F02BFB2200062104206C
:1009000003F011FF2100202002F0DFFB236AD968E9
:100910000422300009F01CFB2800F8BD2C01002047
:1009200030B58DB001230B93FFF750FD002800D0A8
:1009300001BE62B6FFF790FFFFF7A0FFFFF7E2FDF1
:1009400001A902A8FFF7C0FF002800D001BECF48D0
:1009500001F0E2FA002409E0A20002ABD05801F055
:10096000A5FACB4801F0D8FA0134E4B2082CF3D947
:10097000C84801F0D1FAC84801F0CEFA0024002C92
:100980000FD0C64801F0C8FAC54C200003F0DEFFC6
:100990002100C44803F0B6FF01F082F901240025CC
:1009A00003E1A30030229B186B442C3B186801F034
:1009B0007DFAB74801F0B0FA0134E4B2DFE700F0A5
:1009C000CFF9002807D0B84B1B68002B0DD0B74BD0
:1009D00001221A60F3E03C3001F050F9B44B0122DF
:1009E0001A60B44B00221A60EDE7B34801F094FAA4
:1009F000AD4B01221A605020FFF71CFFFFF792FE5B
:100A0000A749022001F061FDE1E7AA4B1B68002B1A
:100A100010D101F0D9FAA74B01221A60A24B002293
:100A20001A60A64801F078FA7020FFF703FFFFF77D
:100A300079FEC4E001F0C2FAA14B1860A14B1B681B
:100A4000984222D100F08CF99F4B18609C4B1B6898
:100A50003B2B04DC9C4B1B68002B00D1AFE09A4B76
:100A60001B68002B1BD0994801F056FA964B18686A
:100A700001F01CFA964801F04FFA8C4A00231360EB
:100A80008C4A13608A4A136099E03C23181A80B29A
:100A900001F0F4F88B4B8A4A12681A60D2E78D484D
:100AA00001F03AFAE9E78C4801F036FA864B18680B
:100AB00001F0FCF9864801F02FFAA31EDBB2012BEE
:100AC0000CD97A4B1B68012B00D08DE0774A0023AC
:100AD0001360784A1360764A136085E07F4801F01E
:100AE000E3FA7F4801F018FA774B186801F0DEF955
:100AF000774801F011FA0124E3E77A4B1B68002BD9
:100B00001DD0794B1B68012B28D0774B1B68002B1D
:100B100049D10B9B012B3AD001F05CFA96239B0044
:100B2000984240DD00F01CF900283CD16F4801F0EC
:100B3000BBFA5B496E4803F0E5FE022433E0FFF7A1
:100B400089FD002803D06B4B01221A702BE0FFF7C0
:100B5000D1FDFFF7D7FD644B1860D2E70B935049E6
:100B6000FA20800003F0CEFEFFF798FD5D4B186081
:100B7000002803D05F4B01221A7014E0FFF7B2FD8A
:100B8000FFF71EFD4649474803F0BCFE0BE001F0AD
:100B900027FA00250B9506E0FFF75CFD002837D00B
:100BA000544B01221A70FFF7E1FC4F4B1B68012BDD
:100BB00000D104E73D4B1B68012B00D125E700F075
:100BC000CFF8414B18601B68002B02D14A4B002222
:100BD0001A603D4B1B68002B0AD0474B1A683A4BF2
:100BE0001B689A4200D05EE7374B1A68424B1A6086
:100BF000404B1B78002B00D189E03E4B00221A703D
:100C0000022CC9D0032C22D0012C00D175E7FEE7BD
:100C1000FFF770FDFFF776FD334B18601B68012B63
:100C20000CD0314B1B68002BBDD1304801F03CFA91
:100C30000135192DB7D903240025B4E7274801F061
:100C400033FA1749174803F05DFE0124ABE7144857
:100C500004F086FF01E007F053FE114803F055FD54
:100C6000041EF8D10E4D2900012001F0F5FA2800EC
:100C700005F0E5FE051E41D0184801F015FA0849B7
:100C8000084803F03FFE250001348CE718A400005B
:100C900030A40000D4A3000034A400006CAC000019
:100CA0002C010020E44D0000140900201009002050
:100CB00018090020040900204CA4000078A40000BA
:100CC000FC0800202405002008090020A4A400003E
:100CD000C0A40000C4A40000E8A4000050C30000A9
:100CE000DCA40000000900201C090020400D0300C6
:100CF000040D0300280500200C090020054801F020
:100D0000D3F90549054803F0FDFD02244BE707F040
:100D1000F7FD4AE7400D03002C010020040D0300FD
:100D2000018014234B43C381002908D141688268A4
:100D3000072A00D901BE012393404B647047642900
:100D400003D0064B01221A70F8E741688268072A2F
:100D500000D901BE012393400B64EFE73C0900205A
:100D6000014B18687047C0463809002070B50D0067
:100D70001400074B01001800FFF7D2FF05482900B7
:100D8000FFF7CEFF04482100FFF7CAFF70BDC04641
:100D900060090020500900204009002010B5044BD4
:100DA00000221A6000210020FFF7E0FF10BDC046BE
:100DB0002C09002010B504004360826001804B01C3
:100DC0005B1A980040180001034907F059FEE081C2
:100DD00000232373002010BD1027000010B50A4C1B
:100DE0000A48230004220021FFF7E4FF08482300FB
:100DF00005220021FFF7DEFF0648074B01220021F4
:100E0000FFF7D8FF10BDC046000204406009002073
:100E100050090020400900200004044010B5124B86
:100E20001868642806D9C7280AD80F4A13681933E6
:100E3000136010BD80B200220021FFF797FFF4E796
:100E400096246400201A80B200220021FFF78EFF52
:100E5000054B1B68A342E8D1034B00221A60034AEA
:100E6000138801331380E4E72C09002032090020A5
:100E700010B5124B1868032806D909280AD80F4A5A
:100E800013680133136010BD80B200220021FFF708
:100E90006DFFF4E70D23181A80B200220021FFF73E
:100EA00065FF064B1B680D2BE9D1044B00221A602D
:100EB000034A138801331380E5E7C0462C0900205C
:100EC0003209002010B5124B1968642906D9C729C8
:100ED0000AD80F4A13681933136010BD89B2002273
:100EE0000020FFF743FFF4E796246400611A89B2FB
:100EF00000220020FFF73AFF054B1B68A342E8D110
:100F0000034B00221A60034A138801331380E4E77D
:100F10002C0900203209002010B5124B1A68642AEF
:100F200006D9C72A0AD80F4A13680A33136010BDBE
:100F300092B200210020FFF719FFF4E79624640025
:100F4000A21A92B200210020FFF710FF054B1B6888
:100F5000A342E8D1034B00221A60034A13880133ED
:100F60001380E4E72C0900203209002010B5124B51
:100F70001868642806D9C7280AD80F4A1368193395
:100F8000136010BD80B202000100FFF7EFFEF4E72E
:100F900096246400201A80B202000100FFF7E6FEEA
:100FA000054B1B68A342E8D1034B00221A60034A99
:100FB000138801331380E4E72C0900203209002054
:100FC000F8B5264B1868C82824D0642829D9C82326
:100FD000181A08F093FD04000D00214A214B07F078
:100FE00013FF06000F001E4A1F4B2000290007F0C8
:100FF0000BFF07F01FFE84B23000390007F01AFE25
:1010000080B200222100FFF7B1FE144A13681933A1
:101010001360F8BD00221A60144A1388013313804C
:10102000F7E708F06BFD04000D000D4A0D4B07F0CB
:10103000EBFE06000F000A4A0B4B2000290007F0C8
:10104000E3FE07F0F7FD84B23000390007F0F2FD4F
:1010500080B200222100FFF789FED6E72C0900208C
:101060009A9999999999E93F9999D93F320900201C
:10107000F0B583B0334B1868C82832D0642837D90C
:10108000C823181A08F03AFD04000D002E4A2F4B11
:1010900007F0BAFE009001912D4A2E4B2000290046
:1010A00007F0B2FE06000F002B4A2C4B200029004F
:1010B00007F0AAFE07F0BEFD85B23000390007F048
:1010C000B9FD84B20098019907F0B4FD80B22A00FE
:1010D0002100FFF74BFE1B4A13681933136003B05E
:1010E000F0BD00221A601E4A138801331380F6E710
:1010F00008F004FD04000D00134A144B07F084FEB1
:1011000000900191124A134B2000290007F07CFE49
:1011100006000F00104A114B2000290007F074FE52
:1011200007F088FD85B23000390007F083FD84B2F6
:101130000098019907F07EFD80B22A002100FFF798
:1011400015FEC8E72C0900209A9999999999E93FC9
:10115000CBA145B6F3FDB43F79E9263108ACE03FB9
:101160003209002010B5124B1868632806D964288C
:101170000AD80F4A13680A33136010BD80B20022E8
:101180000021FFF7F3FDF4E7C823181A80B200220C
:101190000021FFF7EBFD064B1B68C72BE9D9044B79
:1011A00000221A60034A138801331380E5E7C04622
:1011B0002C0900203209002010B5124B1968632950
:1011C00006D964290AD80F4A13680A33136010BD80
:1011D00089B200220020FFF7C9FDF4E7C823591A9D
:1011E00089B200220020FFF7C1FD064B1B68C72B08
:1011F000E9D9044B00221A60034A13880133138093
:10120000E5E7C0462C0900203209002010B5104B3C
:101210001A68642A09D892B200210020FFF7A6FDBF
:101220000B4A13680A33136010BDC8239A1A92B28E
:1012300000210020FFF79AFD054B1B68C72BEFD953
:10124000034B00221A60034A138801331380EBE733
:101250002C09002032090020F8B5294B18686328B2
:1012600006D9642821D8264A13680A331360F8BDCA
:1012700008F044FC04000D00224A234B07F0C4FD93
:1012800006000F001F4A214B2000290007F0BCFD7B
:1012900007F0D0FC84B23000390007F0CBFC80B2FC
:1012A00000222100FFF762FDDDE7C823181A08F0CD
:1012B00025FC04000D00134A134B07F0A5FD0600A2
:1012C0000F00104A114B2000290007F09DFD07F088
:1012D000B1FC84B23000390007F0ACFC80B20022CF
:1012E0002100FFF743FD064B1B68C72BBBD9044BFE
:1012F00000221A60064A138801331380B7E7C046FC
:101300002C0900209A9999999999E93F9999D93F7F
:1013100032090020F0B583B0364B1868632807D92E
:1013200064282FD8334A13680A33136003B0F0BD22
:1013300008F0E4FB04000D002F4A304B07F064FD79
:10134000009001912E4A2F4B2000290007F05CFDF0
:1013500006000F002C4A2D4B2000290007F054FDF9
:1013600007F068FC85B23000390007F063FC84B2F6
:101370000098019907F05EFC80B22A002100FFF777
:10138000F5FCCFE7C823181A08F0B8FB04000D00DD
:10139000194A1A4B07F038FD00900191184A194B71
:1013A0002000290007F030FD06000F00164A174BF9
:1013B0002000290007F028FD07F03CFC85B2300032
:1013C000390007F037FC84B20098019907F032FC2D
:1013D00080B22A002100FFF7C9FC064B1B68C72B0F
:1013E000A0D9044B00221A60094A138801331380E4
:1013F0009CE7C0462C0900209A9999999999E93F50
:10140000CBA145B6F3FDB43F79E9263108ACE03F06
:101410003209002010B5BB4B1B681A2B00D965E2BE
:101420009B00B94AD3589F46B84B01221A70B84B5B
:1014300000221A80B34B1A60FFF7B0FC10BDB44B0A
:101440001B88013B9BB2022B0BD9B14B1B88032B92
:10145000F4D9AF4B00221A80AA4B1A60FFF79EFC0A
:10146000ECE7FFF7D3FEF0E7A94B1B88013B9BB2EB
:101470009622520093420DD3A54B1A8896235B0007
:101480009A42DBD9A24B00221A809E4B1A60FFF7CA
:1014900085FCD3E7FFF7BAFEEEE79D4B1B88013BC7
:1014A0009BB2022B0BD99A4B1B88032BC6D9984BA6
:1014B00000221A80934B1A60FFF770FCBEE7FFF71B
:1014C0002BFDF0E7924B1B88052BB7D89B00914A68
:1014D000D3589F46FFF720FDB0E7FFF79FFCADE72D
:1014E0008B4B00221A80874B1A60FFF757FCA5E749
:1014F000874B1B88013B9BB2022B0CD9844B1B886A
:10150000032B00D89AE7824B00221A807D4B1A6089
:10151000FFF744FC92E7FFF729FDEFE77C4B1B88C0
:10152000013B9BB2022B0CD9794B1B88032B00D8B3
:1015300084E7774B00221A80724B1A60FFF72EFC6B
:101540007CE7FFF713FDEFE7714B1B88052B00D9F4
:1015500074E79B00704AD3589F46FFF707FD6DE77D
:10156000FFF75CFC6AE76A4B00221A80654B1A6041
:10157000FFF714FC62E7664B1B88013B9BB2012B13
:101580000CD9634B1B88022B00D857E7604B002215
:101590001A805C4B1A60FFF701FC4FE7FFF75CFE17
:1015A000EFE75B4B1B88013B9BB2022B0CD9584BDE
:1015B0001B88032B00D841E7554B00221A80514B62
:1015C0001A60FFF7EBFB39E7FFF7FAFCEFE7504B48
:1015D0001B88052B00D931E79B00504AD3589F4602
:1015E000FFF7EEFC2AE7FFF719FC27E7484B00223C
:1015F0001A80444B1A60FFF7D1FB1FE7444B1B884E
:10160000013B9BB2012B0CD9414B1B88022B00D80C
:1016100014E73F4B00221A803A4B1A60FFF7BEFBDB
:101620000CE7FFF7C9FDEFE7394B1B88013B9BB285
:10163000022B0CD9364B1B88032B00D8FEE6344B0B
:1016400000221A802F4B1A60FFF7A8FBF6E6FFF77F
:1016500039FCEFE72E4B1B88013B9BB2022B0CD9C8
:101660002B4B1B88032B00D8E8E6294B00221A805D
:10167000244B1A60FFF792FBE0E6FFF7CFFBEFE7A2
:10168000234B1B88013B9BB2092B0CD9204B1B8899
:101690000A2B00D8D2E61E4B00221A80194B1A6082
:1016A000FFF77CFBCAE6FFF7B9FBEFE7184B1B8897
:1016B000013B9BB2092B0CD9154B1B880A2B00D878
:1016C000BCE6134B00221A800E4B1A60FFF766FB34
:1016D000B4E6FFF7A3FBEFE70D4B1B88013B9BB282
:1016E000012B0CD90A4B1B88022B00D8A6E6084B0D
:1016F00000221A80034B1A60FFF750FB9EE6FFF7AB
:1017000009FEEFE73809002028A500005005002059
:101710003209002094A50000ACA50000C4A500007B
:10172000794B1B88013B9BB2022B0CD9764B1B8853
:10173000032B00D882E6744B00221A80734B1A6088
:10174000FFF72CFB7AE6FFF7BDFBEFE76E4B1B883C
:10175000013B9BB2022B0CD96B4B1B88032B00D88F
:101760006CE6694B00221A80684B1A60FFF716FB83
:1017700064E6FFF7F7FCEFE7634B1B88013B9BB286
:10178000312B0CD9604B1B88322B00D856E65E4BB0
:1017900000221A805D4B1A60FFF700FB4EE6FFF750
:1017A00067FCEFE7584B1B88052B00D946E69B00EA
:1017B000574AD3589F46FFF75BFC3FE6FFF72EFBE7
:1017C0003CE6514B00221A80504B1A60FFF7E6FAB4
:1017D00034E6504B01221A704B4B1B88013B9BB2E5
:1017E000022B0CD9484B1B88032B00D826E6464B0E
:1017F00000221A80454B1A60FFF7D0FA1EE6FFF769
:101800000DFBEFE7434B00221A703F4B1B88013B57
:101810009BB2022B0CD93C4B1B88032B00D80DE646
:10182000394B00221A80394B1A60FFF7B7FA05E6E8
:10183000FFF748FBEFE7344B1B88013B9BB2012BC2
:101840000CD9314B1B88022B00D8F7E52E4B002218
:101850001A802E4B1A60FFF7A1FAEFE5FFF708FB9D
:10186000EFE7294B1B88013B9BB2022B0CD9264B7F
:101870001B88032B00D8E1E5234B00221A80234B61
:101880001A60FFF78BFAD9E5FFF7F2FAEFE71E4B84
:101890001B88013B9BB2272B13D81F4B18680A21CA
:1018A00007F0EEF8C0071BD4002232210020FFF71A
:1018B0005DFA194A136801331360134A1388013320
:1018C0001380114B1B88282B00D8B7E5124A002340
:1018D00013600D4A13800D4A1360FFF75FFAADE500
:1018E000002200213220FFF741FAE2E70B4800F026
:1018F00013FB064C206800F0D9FA094800F00CFBF5
:10190000002323609AE5C0463209002038090020F0
:10191000DCA500005005002034090020F4A40000DC
:10192000D4A3000010B5FFF739FAA64B01221A80A4
:10193000A54B5B78012B06D00A2B00D930E19B0028
:10194000A24AD3589F46A04B9B78012B03D0A048B6
:1019500000F0E2FA10BD9F4800F0DEFA9E4B012233
:101960001A60F7E7984B9B78012B09D0022B0ED019
:10197000032B13D0042B18D0984800F0CDFAE9E7D8
:10198000974800F0C9FA944B02221A60E2E79548A2
:1019900000F0C2FA904B03221A60DBE7924800F095
:1019A000BBFA8D4B04221A60D4E7904800F0B4FAD9
:1019B000894B05221A60CDE7834B9B78012B05D01C
:1019C000062B24D89B008A4AD3589F46894800F0AA
:1019D000A3FABFE7884800F09FFABBE7874800F00A
:1019E0009BFA7D4B06221A60B4E7854800F094FA12
:1019F000B0E7844800F090FA774B07221A60A9E715
:101A0000814800F089FA744B08221A60A2E77F48E7
:101A100000F082FA9EE76C4B9B78012B07D0022BDB
:101A20000CD0032B11D07A4800F076FA92E779486F
:101A300000F072FA684B09221A608BE7764800F0D2
:101A40006BFA654B0A221A6084E7744800F064FA66
:101A5000614B0B221A607DE75B4B9B78012B0BD00F
:101A6000022B10D0032B15D0042B1AD0052B1FD01E
:101A70006B4800F051FA6DE76A4800F04DFA564B9A
:101A80000C221A6066E7684800F046FA524B0D22B5
:101A90001A605FE7654800F03FFA4F4B0E221A606C
:101AA00058E7634800F038FA4B4B0F221A6051E7B1
:101AB000604800F031FA484B10221A604AE7424B66
:101AC0009B78012B0BD0022B10D0032B15D0042BAD
:101AD0001AD0052B1FD0584800F01EFA3AE7574895
:101AE00000F01AFA3C4B11221A6033E7544800F018
:101AF00013FA394B12221A602CE7524800F00CFA04
:101B0000354B13221A6025E74F4800F005FA324B97
:101B100014221A601EE74D4800F0FEF92E4B1522E4
:101B20001A6017E7284B9B78012B05D0022B0AD0AF
:101B3000474800F0F1F90DE7464800F0EDF9264B73
:101B400016221A6006E7444800F0E6F9224B1722F5
:101B50001A60FFE61C4B9B78012B05D0022B0AD0A4
:101B60003E4800F0D9F9F5E63D4800F0D5F91A4BAA
:101B700018221A60EEE63B4800F0CEF9164B192207
:101B80001A60E7E6384800F0C7F9134B1A221A60CA
:101B9000E0E6364800F0C0F90F4B1B221A60D9E688
:101BA000334800F0B9F9084C607800F07FF931480B
:101BB00000F0B2F9A07800F079F92F4800F0ACF904
:101BC000C8E6C04632090020F808002098AB0000A3
:101BD00004A60000F4A5000038090020D0A60000EB
:101BE00028A600004CA6000070A6000094A60000E5
:101BF000C4AB0000F4A6000014A7000034A7000046
:101C00005CA700007CA70000ACA70000D8A70000DC
:101C100070A80000F8A7000020A8000048A8000055
:101C20005CA9000090A80000BCA80000E0A800008B
:101C300004A9000034A9000034AA00007CA9000017
:101C4000A4A90000C8A90000E8A9000010AA00008B
:101C500090AA000054AA000070AA00000CAB00007B
:101C6000BCAA0000E0AA000030AB000060AB00009E
:101C700078AB000094AB0000C0A4000010B5074B87
:101C80001B78002B05D1002201000020FFF76EF821
:101C900010BD00220021FFF769F8F9E75005002088
:101CA00070B5104800F038F90F4C10262664FA255C
:101CB000ED00280006F012FD66640C4800F02CF9D7
:101CC00010362664280006F009FD6664084800F016
:101CD00023F9084C1E3E2664280006F0FFFC6664CB
:101CE00070BDC046E0AB00000002044010AC000034
:101CF00040AC00000004044010B5664B1B7B002B79
:101D000000D16BE0634A1288642A00D166E0614B1F
:101D1000DA89614B1B889A420BD85E4B59689A68E6
:101D2000072A00D901BE012393404B64594B00227E
:101D30001A735A4B1B7B002B00D169E0574A12885B
:101D4000642A00D164E0554BDA89534B1B889A42D0
:101D50000BD8524B59689A68072A00D901BE012353
:101D600093404B644D4B00221A734D4B1B7B002B51
:101D700000D167E04A4A1288642A00D162E0484BE9
:101D8000DA89454B1B889A420BD8454B59689A68AB
:101D9000072A00D901BE012393404B64404B002227
:101DA0001A733D4A138864339BB21380FA22D2001F
:101DB000934200D160E0374B1B88002B07D1374B93
:101DC0001B88002B03D1364B1B88002B58D0354B7A
:101DD00001221A70642000F067F910BD002BA8D111
:101DE0002C4B1B88002BA4D02A4BDA892A4B1B884A
:101DF0009A4200D29DE7274B59689A68072A00D972
:101E000001BE0123180090400864224A137390E732
:101E1000002BAAD1214B1B88002BA6D01F4BDA899F
:101E20001D4B1B889A4200D29FE71C4B59689A6849
:101E3000072A00D901BE0123180090400864174A00
:101E4000137392E7002BACD1154B1B88002BA8D045
:101E5000134BDA89104B1B889A4200D2A1E7104B32
:101E600059689A68072A00D901BE012318009040DA
:101E700008640B4A137394E7074B00221A809AE711
:101E8000054B00221A80074B1A70074800F00CF926
:101E9000A3E7C04660090020300900205009002057
:101EA000400900203C09002050C3000010B582B05A
:101EB000164A1368F0218B4360390B431360144CAE
:101EC000226880231B06134323600A22694607F019
:101ED000DBFF6946200005F03EF90D4982229200A1
:101EE0008B58DB05DB0D8958C90B01220A409B1872
:101EF000002BF2D10749064806F088F8034A136818
:101F0000F0218B43136002B010BDC04600040240B4
:101F1000000024407009002010B50100154A136824
:101F2000F0208343603803431360134A1068802312
:101F30001B0603431360002919D00F4805F00BF965
:101F40000D49822292008B58DB05DB0D8958C90BA5
:101F500001220A409B18002BF2D10849064806F0DE
:101F600055F8044A1368F0218B43136010BD01BE7D
:101F7000E3E7C0460004024000002440700900204E
:101F800010B5054A0549064805F08EFE002801D027
:101F900072B601BE10BDC0467009002010A200003C
:101FA00000002440014B188880B27047B20900201D
:101FB000014B00221A807047B2090020014B18889B
:101FC00080B27047AE090020014B00221A80704792
:101FD000AE090020014B188880B27047AC09002080
:101FE000014B00221A807047AC09002010B5044B49
:101FF000186C044B1B68C01880B206F0B5FC10BD0D
:1020000000000340B409002010B506F0CFFC1E4AC2
:10201000D36C01218B43D3641C4B1B78002B0DD058
:10202000FFF76AFE1A4A138864339BB21380194A79
:10203000934220D9164B00221A8001E0FFF7D6FF09
:10204000154B01221A70FEF78BFE002819D1134A96
:10205000138801339BB21380114B1B889BB23B2B1F
:1020600004D80F4A138805339BB213800D4A138896
:1020700001339BB21380044AD36C01210B43D36418
:1020800010BDFFF7C7F9E2E7000003403C0900205C
:10209000B0090020E34D000028050020AC09002015
:1020A000AE090020B209002010B503008000C0185E
:1020B000C000FA21890006F0E3FC054B1860054AD0
:1020C000D06B1B68C01880B206F04EFC10BDC04635
:1020D000B40900200000034010B5002006F054FCB5
:1020E000194B1B6C1B0C1B0700D001BE06F05EFCDD
:1020F000154AD16A80231B060B43D362022006F0E7
:10210000EDFA1248FFF7D0FF1149124806F094FA91
:10211000002800D001BE104B20221A600A4BDA6C56
:1021200001210A43DA6400229A639A6B0B4B9A42AC
:1021300004D006F0F7FA012802D010BD01BEF8E77E
:102140000748FFF7E9FEF8E70000034050C300002E
:1021500009200000B0AC000000E100E06588EDACB3
:1021600074AC0000000000000230800803D0013091
:102170000238FCD1C046C0467047EFF3108072B6FB
:10218000704780F31088704770B5050004F089FC33
:10219000041E01D0200070BD280000F0FDFD2800C5
:1021A00004F07AFA04436B68DB79002BF2D1280043
:1021B00004F086FD280000F08CFF6B680122DA71C4
:1021C000E8E70000F8B504004268916880231B022C
:1021D0000B439360FFF7D8FF051E09D0200000F0E5
:1021E0008BF9626893681A490B4093602800F8BD28
:1021F000200004F0B1FA28430700200002F08FFA13
:102200000743200004F018F90743200002F073FA96
:102210000743236818680F4906F032FC01000522C5
:102220000C4802F0D9FB0600200002F06EFA0028EC
:102230000AD0002E01D0013EF6E7042704E0210079
:10224000280000F00DFF0135022DF8D93D00C5E74B
:10225000FF7FFFFF40420F0070B504000E00022810
:1022600024D8CD688C234343ED187B23EB5C072BEC
:1022700001D101241BE004F0BBFC002801D108249B
:1022800015E03100200000F0EBFE3100200000F0EE
:10229000A3FD04007A23EB5C012B02D001231C4335
:1022A00005E03100280000F0ADFE00E00124200030
:1022B00070BD70B505000026032300E023005C1EFE
:1022C000002B13D02900200004F092FC0028F5D048
:1022D000EB688C2262439B187B229B5C072BEDD022
:1022E00029002000FFF7B8FF0643E7E7300070BD84
:1022F00010B5040003689B6818685A681378002BAF
:1023000001D0802010BD022104F08AFD002801D0F8
:102310000820F7E72100013003F04EF9F2E710B58D
:10232000FFF7E6FF10BD0000F8B5041E00D18FE0F6
:102330008368002274215A5401315A541A605A6039
:10234000DA609A60C2681268002006E02325515DB9
:102350000626314351553C3201300228F6D900227D
:10236000DA613C49D96221685A614C201A541D38FF
:102370000D5C28301D542A380D5C2B301D54273835
:102380000D5C28301D54C88A1886088B5886342066
:102390000D5C1F301D541E380D5C1F301D542E481F
:1023A00098874E201A544F32B13098540132713808
:1023B000985401328C389854E2681268002001E089
:1023C0003C320130022810D89588002D04D12326F4
:1023D000955D08273D439555D588002DF0D12326DE
:1023E000955D10273D439555EAE7C88B40229852EA
:1023F0008A8BDA87488C44229852098C023A995287
:10240000413A72215A542539032058540D315A54F7
:1024100001315A5401315A545C32563999540132BF
:1024200002399954013206319954013208399954CC
:102430000A4A5A624A22C63199522100002003F00A
:10244000BBF8002800D0F8BD2000FFF768FFFAE7CE
:102450000120F8E78F0200004C080000400D030047
:1024600010B54988C94389B212888A420BD023210A
:10247000425C0424A24342541A6A936821390B43F4
:102480009360022010BD0020FCE700230372028845
:102490004280C3717047F8B50E00D5688C23434362
:1024A000ED180027002F00D0F8BD6868B400A4190B
:1024B00064000019FFF7E9FF6B681B195A88696906
:1024C0007300D243CA520137ECE770B505000E0025
:1024D000CB688C2242439B187B229A5C072A0AD045
:1024E0001B8F05E0320021002800FFF7D4FF2300F6
:1024F0005C1E002BF6D170BD70B50500032304E00F
:1025000029002000FFF7E1FF23005C1E002BF7D11C
:1025100070BD504380235B009B1A59434018000A4A
:102520007047F0B5C64600B582B005000C00170034
:102530009846FFF795FF061E2ED1208861888842B5
:1025400001D30023E371AB8B01901B1899420AD988
:10255000E379AA89934202D20133E37119E02000A2
:10256000FFF793FF15E043461A682823D35C002B3E
:1025700004D16B8BCB18019A9A420AD80902237AAC
:1025800019432223EA5C0002FFF7C3FF030A6380BA
:1025900020726388DB433B80300002B080BCB846C9
:1025A000F0BD0000F0B58FB0060087683C006334D2
:1025B000456A703523493822684607F0C9FC002374
:1025C00002E0FF22E25401330D2BFAD968230022E6
:1025D000FA54B2680C33D35C012B0BD0022B12D10E
:1025E0006422BA5CFF2A01D001230DE09B3A01214D
:1025F000B95409E06322BA5CFF2A05D16323FE3A8D
:10260000FA54613B00E001236B22BA5CFF2A04D03C
:10261000B16862228B54002305E0943ABB54013325
:10262000DBB2F5E701330D2B08D8E25CFF2AF9D0C5
:102630009200990068460958A950F3E700200FB0AE
:10264000F0BDC046B8AC000070B515688543156094
:102650005468844354609368834393604E0701D564
:10266000054315608D0701D504435460C90701D5A2
:102670000343936070BD0000F0B5068843889C4614
:10268000D0688C237343C0187A23C45C956817699B
:1026900033019B1B9B00FB189B8E002B00D0013B42
:1026A0001B04254F3B40CF683B43CB60012C14D02B
:1026B000022C21D00A2C24D08023DB03526892689C
:1026C000D20407D4012C23D005682E22AA5C134320
:1026D000012C26D00B610020F0BD5A23EB5C012BAE
:1026E000E6D105683123ED5C2D07E023DB051D40B5
:1026F000C0231B042B43E1E75B23EB5C012BD9D107
:10270000EFE75C23EB5C012BEBD08023DB03D5E709
:102710003A22825C6245D7D805682F22AA5C13430F
:10272000D6E7406862469200624452008218527AAC
:1027300012021343CEE7C0460000FF0FF0B5446A13
:102740002B4B220090321900E0C9E0C2E0C9E0C280
:1027500009681160043219001C31E0C9E0C2E0C907
:10276000E0C2096811600432383362CB62C262CBC6
:1027700062C21B68136082685A23D35C012B0FD09E
:1027800082685B23D35C012B15D082687523D35CF0
:10279000052B1BD082685C23D35C012B1DD0F0BDC0
:1027A000134B22009032543362CB62C262CB62C2BE
:1027B0001B681360E4E70E4B2200AC32703362CB2F
:1027C00062C262CB62C21B681360DEE72200AC32D9
:1027D0001169FB330B431361DCE7054BC8348C33C1
:1027E00007CB07C407CB07C41B682360D7E7C046E5
:1027F000F0AC0000F0B5DE4657464E464546E0B523
:10280000C1B00400856880235B009B461A0000214C
:10281000684607F071FB5E4A0092802040050190F7
:1028200031239A46059380235B0299460793F02350
:102830001B0198460A930223FF339C460C93554E86
:10284000189619961A96636A1A6058600021996062
:10285000D960196157465F6199614F46DF6147460C
:102860009F6267461F639963D96319649964D96449
:10287000196559659965D9651E665E669E66D96655
:102880007131695C0904C026B60231400A431A60FE
:1028900021683722895C303A0A4010435860216829
:1028A00038228A5C120259460A401043586044227A
:1028B000AA5A002A67D0120241460A409A60422171
:1028C000685A002862D0BD3101400A439A602068EE
:1028D0003621415C09038020400101400A439A608F
:1028E0002A8E1205120DDA60698E09042A48014009
:1028F0000A43DA605322AA5C5A61A1684D228A5CBD
:102900009A61A0684021415A0904F0200003014067
:102910000A439A61A168C98F0902F82676013140FD
:102920000A439A61A1688A8F1205120D4E26895DAD
:10293000090401400A431A62802252045A62A168C3
:102940004F228A5C5020095C09040A43DA6254224F
:10295000AA5C12029A6206215964A0685122825C24
:10296000013A12040D4802400A435A642000FFF75E
:10297000E5FE2000FFF716FE41B0F0BCBB46B246B4
:10298000A946A046F0BD8022520097E701219CE7AE
:1029900011001000230032000000FF0F0000FF03B1
:1029A00010B50400100003230B40022B00D010BD13
:1029B000012C03D00A2C01D05008F8E78008F6E774
:1029C000F8B5DE4657464E464546E0B58B461600FE
:1029D0001A009C68002843D11D6B8B00A8469844C0
:1029E000D76843461D888C236B43FF1813699C46A8
:1029F0002B015D1BAD0065447A23FB5C99469A462A
:102A0000012832D08423FC5C013CA4038023DB0139
:102A10001C40AB8D013B9B049B0C1C43F460372393
:102A2000EB5C7B20385C0438C0B2012856D91B0708
:102A30002343F3603220285C01285DD031004046FA
:102A4000FFF71AFE041E04D1EA895346012B5CD01D
:102A500001242000F0BCBB46B246A946A046F8BD02
:102A60005D6B8B00A8469844BAE76023E35C0E30A8
:102A700018405D23E35C1B019C46FF2361460B402D
:102A800003435E20205C0002F0210901084003435B
:102A9000A8890004FC218903084003435F20205CCF
:102AA0000006034333606B8BA88B00040343736001
:102AB0002B892020285C0004E024E402204003430A
:102AC0004946012908D0802040040343B360002315
:102AD000F3603361143695E70020F6E73A20385C5E
:102AE0008446404640888445A1D87A20385C012835
:102AF0009DD13823EB5C9AE77F30385A58459DD0FA
:102B0000802109020B43F36098E77A33FB5C043BB6
:102B1000DBB2012B1DD92123EF5C92B2390048466C
:102B2000FFF73EFF01383023EB5C013B1B061B0C1B
:102B300000040C4A104003433F07C022920517408F
:102B40003B433622AA5C920713430322134373616B
:102B50007FE73A23F95C43465B889942DBD82A8AAF
:102B6000D9E7C0460000FF0FF0B5DE4657464E4697
:102B70004546E0B589B082460C0048698B680493ED
:102B80000027002105E04279012393401F430830CC
:102B90000131226893898B42F5D8A069002105E0B4
:102BA00045790123AB401F43083001312C23D35C0E
:102BB0008B42F5D87523049AD35C022B06D0052BE3
:102BC00020D06323049AD35C079303E06423049A20
:102BD000D35C07936423049AD35C05937423D35C7A
:102BE000022B19D0042B12D16733D35C06935346C2
:102BF000012B14D0A66A236B0393082302930025AC
:102C0000B94629E06D23049AD35C0793E2E7632376
:102C1000049AD35C0693EAE7059B0693E7E7E66A26
:102C2000636B039353460293E9E7079B019301E02B
:102C3000069B01935346012B2CD032000199484644
:102C4000FFF702FD22682C23D15C002924D14346E2
:102C5000012B3DD018360135029B9D4253D22300F3
:102C6000320029005046FFF7ABFEAB00039A9446B2
:102C700063445A8893461A88E7688C235343FF18A5
:102C80007A23FB5C9846012BD2D0022BCDD0059B3A
:102C90000193CFE71436D0E74346012B03D0002041
:102CA0000023AC460CE06A33049AD35C0193F6E748
:102CB000A269DD00521955790122AA40104301335F
:102CC0009942F5D8654632000199FFF7BDFCBEE791
:102CD0006733049AD35C9C46BF685B46DB00FF18F1
:102CE0000020002307E03A68D900521851790122E8
:102CF0008A40104301337A799A42F4D8320061460F
:102D0000FFF7A2FCA6E709B0F0BCBB46B246A94655
:102D1000A046F0BDF8B5CE688C234343F61837685B
:102D20007368328F7B21715C072926D02320395CA0
:102D30000124A1433954110005E099790325A943E1
:102D400099710A3321004C1E0029F6D17B23F35CD4
:102D5000042B13D0062B17D0012B0FD07B23F35C51
:102D6000023B032B09D828230022FA54336FFF3289
:102D70001A4202D0F36B00221A71F8BDB06A202308
:102D8000F95C07F0B9F8E9E7B06A2023F95C520072
:102D900007F0B2F8E2E7000070B5050042689368FA
:102DA00006490B409360032304E029002000FFF74D
:102DB000B1FF23005C1E002BF7D170BDFFFBFFFFAE
:102DC00010B500238B800A884C88438BE3189A4205
:102DD00001D9121B8A8010BDF8B5DE4657464E4613
:102DE0004546E0B58A46CD688C234343ED18002361
:102DF00098469B46994637E06C6853461B68DB89CA
:102E00005A4653439A00D2185200A4186E695B00C8
:102E1000F6187423EB5A80229200C02189000B40DF
:102E2000934201D05F4603E02B6A9846FAE70137E8
:102E30002B8FBB4215D92868534632002100FFF77B
:102E400070FB4B460343994628682100FFF7B8FF03
:102E50000A3402364346002BE9D001239C46E04465
:102E6000E5E701239C46E3445B46002BC4D048467B
:102E7000F0BCBB46B246A946A046F8BDF0B5816A93
:102E80004368056823242A5D0126B2432A5500229F
:102E900027E002269F793E4230D1EF8B3C190F7814
:102EA000002F01D0013F0F709F88A74205D8202432
:102EB0002C5D0C709C79B4439C710C78002C02D171
:102EC0009C7934439C719C79264204D02326AC5DC6
:102ED00001273C43AC556446002C00D00A33013135
:102EE0000132048F640094420BD92C8901263700EB
:102EF0001740BC461642CCD16C89CBE7EF8BE41B64
:102F0000CDE7F0BDF0B5DE4657464E464546E0B546
:102F100083B03A23C35C9946826A43680668716A43
:102F20008B462324315D0125A943315500210091B1
:102F30008A468C460027B8465D4601954F460CE010
:102F40003489F58B641B11E00124A246D0444C4621
:102F50000C1BA2460A3301320131048F8C4221D965
:102F60009C79002CECD13489F58B64191578002DEF
:102F700001D0013D15709D88A54204D82024345D00
:102F8000147000249C711478002C01D101349C71C0
:102F90009C79002CDED0B942D6D20124A346DC4471
:102FA0000091D7E74746019B9B4663467B43DBB2D4
:102FB0002822B354012B02D92823D732F2542823D4
:102FC000F35C012B0ED063461F4304D02322B35C75
:102FD00001210B43B35403B0F0BCBB46B246A94633
:102FE000A046F0BD6B461B885A461380524692B2EB
:102FF00059464A80002158468180494651435B1812
:10300000C380E0E710B57B23C35C042B02D0062B02
:1030100003D010BDFFF776FFFBE7FFF72FFFF8E7C0
:1030200010B5CB688C225043181843680268948806
:10303000002208E03931415C91420BD80168CC880C
:1030400008E00A330132018F914208D97A21415CAC
:103050000129EFD01988A142F3D91C80F1E710BDF6
:1030600010B5CB688C2242439B187B229B5C072BBC
:1030700000D110BDFFF7D4FFFBE730B5D3688C2239
:103080005043181842688B005B185B00D318046823
:10309000A2887A25455D012D04D01988914200D976
:1030A0001A8030BD3935405D8842F6D8E288F4E7B1
:1030B00010B5D3688C2444431B197B241B5D072B5C
:1030C00000D110BDFFF7D9FFFBE710B501F02EFAD4
:1030D00010BD10B501F0E8FA10BD000003689B6850
:1030E00019682B4B0B6000234B60802252058A60CD
:1030F000284ACA600B614B618B61CB610B624B62EA
:103100008B620B634B630222FF328A630B650B6792
:103110004B67813A0120885004321F488850BC32E6
:103120008B50C0328B5004321C48885004328B5074
:1031300004328B5014328B5005E01A00C0329200DA
:10314000002050500133122BF7D9002305E05A1C00
:10315000FF329200002050500133072BF7D9002393
:10316000A022D2008B500E4A8B50FC328B500D4A5D
:103170008B5004320C4888500C4A0D488850043259
:103180000C4888500C4A8B5004328B507047C04614
:10319000110010000111000006000300230032009E
:1031A0000405000004060000140900010C060000DC
:1031B00010004000000401871406000010B50B6ADF
:1031C0000922DA620A6A30230024D454012801D08B
:1031D000052802D10B6A0E22DA62042800D010BD45
:1031E0000A6A30230130D0540A680333D35C022BBF
:1031F000F5D10B6A0E22DA62F1E70000F0B5C1B03A
:103200000400802252000021684606F075FE4B4BF8
:10321000009380235B0501933123059380235B0298
:103220000793F0231B010A930223FF330C93444BB3
:10323000189319931A9323689B681868236ADB8B89
:10324000012B63D0013B1B043E4A13401193216ABA
:10325000CB8E002B5DD01B0202930B8F03934A8F02
:10326000120413430393A2685323D35C3122134304
:1032700005934823CB5C8A8F120413430693822361
:10328000DB051C938023DB051D932F4B1E9301232D
:103290001F9383332D4A6946CA5008332C4ACA50BB
:1032A0002268593BD35C012B37D08823294A6946D1
:1032B000CA50294B24AA1900E0C9E0C2E0C9E0C203
:1032C000096811602BAA19001C31E0C9E0C2E0C9ED
:1032D000E0C20968116032AA383362CB62C262CBA5
:1032E00062C21B681360236A5A78062A19D02368C1
:1032F0009B685B680222694603F0AAFD200002F089
:10330000B1F8192005F004FA41B0F0BD134A00925B
:1033100098E780235B0002939FE78733104ACA50E7
:10332000C7E746329A5C012AE1D022229B5C012B3E
:10333000DDD0BC230B4A6946CA50D8E71100100003
:10334000230032000000FF03000006080A00020408
:10335000000100400000080998AD000011001001B4
:10336000000A02040001018730B583B01C001B6A0B
:103370001D7885420ED01870256A2223E954216AEF
:103380002A33CA54032825D004283FD002280AD063
:1033900003B030BD22255D5D8D42ECD14C255D5DD5
:1033A0009542E8D1F4E72000FFF728FF00940123BD
:1033B00000220021092001F0E1FB2300012200216D
:1033C000092001F014FC230001220021092001F052
:1033D000BBFBDDE700940023002200210E2001F05A
:1033E000CDFB2300002200210E2001F000FCE36948
:1033F00000225A75230000210E2001F0A5FB2000B9
:10340000FFF76CFE200002F02DF8C1E700940023C6
:1034100000220021092001F0B1FB2300002200213D
:10342000092001F0E4FBE36900225A752300002122
:10343000092001F089FB2000FFF750FE200002F078
:1034400011F8A5E770B505000C00FEF796FE2A6896
:103450002B79072B00D901BE012C00D901BE002C0D
:1034600005D1012199405164FEF78BFE70BD012109
:1034700099401164F8E770B506000D0014001300C0
:103480000422002103F0F8FB226A9368190708D48C
:1034900008210B439360226A2523D654226A013304
:1034A000D55470BDF0B5C64600B586B005000C0019
:1034B0000B689B681E6800230093019302930B6ABC
:1034C000402290469A5A013A80231B0213430393E9
:1034D000174B0493174B0593684602F005F8236ACF
:1034E00042469A5A93009B181803C01A192105F0F6
:1034F000C7FA210002F020F8002812D0C8239B014F
:10350000F758FB030FD43F043F0C002033685B00E7
:103510005B083360002808D12F6006B080BCB84635
:10352000F0BD0720F2E70520F0E700232B60F4E769
:10353000FA0040000000FF0FF8B505000F00110071
:103540000023002007E02C68DE00A419667901241E
:10355000B440204301336C799C42F4D83A00FFF721
:1035600073F8F8BDF0B5D6464F464646C0B50600DE
:103570001500506900290ED1126B2B6A5B8E9B00DF
:10358000D118D25A4B889846EF688C235343BA46D9
:103590009A44002306E0526BEFE79A00B21800212C
:1035A00011600133052BF8D92A6A4923D25C8023A4
:1035B000DB03134333612A6A4C23D45C012C1AD0F9
:1035C0002E335146CB5C012B13D00121138C022CDE
:1035D00013D0013B928E013A9204920C1B04494C89
:1035E00023401A43F26089010B43736100240021D8
:1035F0000CE00021EAE70021E8E78023DB00E8E7B0
:103600004279012393401C43083001312A68938991
:103610008B42F5D8A869002105E047790123BB401A
:103620001C43083001312C23D35C8B42F5D82B6A24
:103630005B78042B26D0062B26D0022B20D000212D
:1036400032002000FFF700F82A6A4C23D35C022BDB
:103650001CD0012B04D07A215046415C012930D185
:10366000012B2CD0534698684346DB00C018052236
:103670003100FFF761FFE0BCBA46B146A846F0BD95
:103680000121DDE70621DBE70721D9E75378042B89
:103690000FD00024002307E0AA69D90052185179FD
:1036A00001228A401443013329682C228A5C9A4201
:1036B000F2D8320005212000FEF7C6FFDBE7906A52
:1036C000D5E784683B239946C15C404605F0D8F9AC
:1036D000C000201803223100FFF72EFF53469D68DB
:1036E0003A235246D45C53464A46995C404605F01C
:1036F0004DFA6418E000281802223100FFF71CFF81
:10370000B9E7C0460000FF0FF8B50400036ADD8B7F
:10371000002D00D10135188C9A8E0023002105F070
:103720005BFA02000B002800002105F055FA0500A5
:103730000E001922002305F02FFA02000B00002EC4
:1037400004D101D1182D01D80122002316001F0039
:10375000B6185F41B6185F4123681868044905F040
:103760008FF901000522300001F036F9F8BDC0469E
:1037700040420F00F0B5C64600B586B00500140003
:1037800013689B681E68126A49236420D054220083
:103790006846FFF7E7FE2100684601F0A5FE20001D
:1037A000FFF7B2FF210001F0C7FE002826D0C82392
:1037B0009B01F758FB0324D43F043F0C0023984699
:1037C00033685B005B0833604346002B1CD1104814
:1037D0007843246AA18E05F053F94923E45C4443FD
:1037E0006421200005F04CF90A4B9C4200D90A489C
:1037F0002860404606B080BCB846F0BD0723984616
:10380000DEE705239846DBE700232B60F1E7C0469F
:1038100076030000632D3101400D0300F0B5CE4664
:10382000474680B587B0140013689B681F6800295D
:1038300054D1126B8300D018D25A43889946E56858
:103840008C235343ED18236A4C229A5C022A47D0FA
:103850007A22AA5C022A47D0492264209854220086
:103860006846FFF77FFE2100684601F03DFE20001C
:10387000FFF74AFF210001F05FFE002838D0C8237F
:103880009B01FE58F30336D43604360C00239846C9
:103890003B685B005B083B604346002B18D11B482C
:1038A0007043266AB18E05F0EBF84923F45C44437B
:1038B0006421200005F0E4F84C23F35C022B1DD0BA
:1038C000134B9C4200D913482A694B469B00D050A9
:1038D000404607B0C0BCB946B046F0BD526BA9E740
:1038E0004732C8209854BAE7473232209854B6E796
:1038F00007239846CCE705239846C9E7064B9C4228
:1039000000D90648F3681860E2E7C0467603000075
:10391000632D3101400D030063688909006A1800B6
:10392000F8B506000C00FEF728FC35683179072948
:1039300000D901BE0F2322009A4300D001BE4E00E1
:103940007618AA6807231F00B740BA432340B34044
:103950001343AB60AA6901231E008E40B243E40802
:1039600023408B401343AB61FEF70BFCF8BDF0B571
:10397000D6464F464646C0B515001F00DB688C2270
:1039800042439B189B68C90059180C68002D05D04C
:10399000032399464B79984600260EE00223994668
:1039A000F8E729002000FFF74DFD0E212000FFF76A
:1039B000B7FFAA4526D00834013646451CD201215E
:1039C00069402000FFF73EFD49462000FFF7A8FFB1
:1039D0003A6A2423D05C04F09BFE22682379082BEA
:1039E00000D901BE5068D84001231A000240924617
:1039F0000342D6D09A46D4E70020E0BCBA46B1468E
:103A0000A846F0BD0F20F8E7F8B5CE46474680B58A
:103A100006000F0090461D00DB688C224243914651
:103A20004B447A229A5C022A0BD02B004246FFF7C5
:103A30009EFF0400002C22D12000C0BCB946B04635
:103A4000F8BD3932995C380005F01AF801002B00F6
:103A500042463000FFF78BFF041EEBD1EC684C446C
:103A60003B23E15C380005F091F83A23E35CC91888
:103A70002B0042463000FFF77AFF0400DAE72A0005
:103A800039003000FFF7F7FCD6E770B505000C1ED3
:103A900022D00A682423D35C834201D8012070BD60
:103AA00003F050F8236A9A6969008A5A824215D055
:103AB0009A68D20708D49883226A2323D554226AAD
:103AC000936801210B439360230004220021280006
:103AD00003F0D2F80F20E2E70120E0E70020DEE764
:103AE00070B50500002400E001342A682423D35C6B
:103AF000A34207D929002000FFF7C7FF0028F3D011
:103B00000F2000E0002070BD70B504000D0003F030
:103B100019F82B6A9B696400185370BDF0B5D6463E
:103B20004F464646C0B582B08246894690461F0041
:103B30005C69002504E0012393400B6408340135DF
:103B40003E68B689AE4219D92068217901230093D5
:103B50004346524600F052FF4B46002B05D02168E9
:103B60002279072AE7D901BEE5E721682279072AE9
:103B700000D901BE012393404B64DFE702B0E0BCF3
:103B8000BA46B146A846F0BD70B505000C00FFF777
:103B900015FB052D08D00021236A30229A5CD86AD3
:103BA0002300FFF7BBFF70BD0121F5E7F0B5D64656
:103BB0004F464646C0B582B08246894690461F00B1
:103BC0009C69002504E0012393400B64083401350F
:103BD0003B682C269E5DAE4219D9206821790123CD
:103BE00000934346524600F009FF4B46002B05D098
:103BF00021682279072AE6D901BEE4E72168227903
:103C0000072A00D901BE012393404B64DEE702B0CE
:103C1000E0BCBA46B146A846F0BD70B505000C0040
:103C20000A682C23D35C002B00D170BDFFF7C6FAC5
:103C3000052D08D00021236A30229A5CD86A23001F
:103C4000FFF7B4FFF1E70121F5E7F0B5DE4657468F
:103C50004E464546E0B587B00290039193461B68F7
:103C60009A460024002C06D007B0F0BCBB46B246F2
:103C7000A946A046F0BD53469B68E200121B920085
:103C80009B189F681D7B1E691B7D99460495012327
:103C9000984600935B46029A2900380000F0AEFE79
:103CA0004B460593434600935B46029A49463000D3
:103CB00000F0A4FE039B002B13D0049B072B00D91C
:103CC00001BE0123AB403B64039B002B11D0059B3D
:103CD000072B00D901BE01234A46934033640134C7
:103CE000C0E7049B072B00D901BE0123AB407B64D6
:103CF000EAE7059B072B00D901BE01234A46934002
:103D00007364ECE710B50B00012807D0052808D034
:103D1000002109200022FFF798FF10BD00210E208E
:103D2000F8E701210E20F5E7F8B5CE46474680B505
:103D300005000300002200210120FFF715FB2900E8
:103D40000520FFF721FF29000520FFF766FF290066
:103D50000520FFF7D7FF2A6A2423D05C04F0D8FCA3
:103D600000239946002608E039329F5C013A9B5CAB
:103D7000FF1812E00F23994601362A682423D35CEA
:103D8000B34217D9EB688C2272439B187A229A5C53
:103D90000A2AF1D0022AE7D01F8F0024BC42EBD2BE
:103DA0002B00012221003000FFF72EFE0028E1D178
:103DB0000134F3E729000120FFF7E6FE2900012086
:103DC000FFF72BFF29000120FFF79CFF2A6A24231D
:103DD000D05C04F09DFC002398461BE039329F5CC8
:103DE000013A9B5CFF1824E00134BC420FD2EB681F
:103DF0009B197A229B5C0A2BF6D02B000022210013
:103E00004046FFF701FE0028EED00F23994601231C
:103E10009C46E0442A682423D35C43450BD9EB68D5
:103E20008C26424656439B197A229A5C022AD5D0A8
:103E30001F8F0024D9E74846C0BCB946B046F8BD3C
:103E4000F8B50D00141E47D012682423D35C8342BA
:103E500044D9E3688C2646439B197A229A5C012A4E
:103E60000CD000230120AB4239D9012837D02000E3
:103E700000F04BFC071E07D0022030E01B8F226AA7
:103E8000917951700020EEE76368882212019A60F0
:103E90002100032001F090FBE3689B199B68EA0076
:103EA000216A9B188B622300012201210220FFF767
:103EB0005BFAE3689B197B229A5C072A0AD0D868D0
:103EC000AD00401922003900FFF754FC636800225E
:103ED0009A6004E00137F2E7012000E00120F8BD1C
:103EE000F0B5C64600B5060000239846002516E04A
:103EF00039329F5C013A9B5CFF1820E00134BC42E0
:103F00000CD2320021002800FFF79AFF0028F5D0DC
:103F10004346002BF2D10F339846EFE70135326864
:103F20002423D35CAB420CD9F3688C226A439B18E0
:103F30007A229A5C0A2AF1D0022AD9D01F8F002453
:103F4000DDE7404680BCB846F0BDF8B505000E0080
:103F5000141E40D0002905D1176B0823AB4204D8AA
:103F60000120F8BD576B0123F8E7200000F0CDFBDE
:103F7000002801D00220F4E76368882212019A60C9
:103F80002100033001F018FB226A4C230021D15498
:103F9000236A5D86AB00F95AE2688C234B43D21842
:103FA0007A21525C012A04D00120636800229A60C1
:103FB000D7E7226A91795170E268D3187A22995C26
:103FC000230000220220FFF7CFF922003100280051
:103FD000FFF724FCE9E70120C3E710B50021FFF754
:103FE000B4FF10BD10B50A000121FFF7AEFF10BDF0
:103FF000F0B5C64600B50500066B436B9846002732
:10400000002400E00134072C14D8A300F25AEB6816
:104010008C2151435B187A229B5C0A2BF2D02A0038
:1040200000212000FFF7D9FF0028EBD0002FE9D1B5
:104030000F37E7E70024002C03D0380080BCB846D7
:10404000F0BDA3004246D15AEB688C224A439B182C
:104050007A229B5C0A2B01D10134ECE72900200075
:10406000FFF7C0FF0028F7D0002FF5D10F37F3E797
:1040700070B50C1E2DD00A682C23D35C002B05D103
:104080000B6A5B79042B01D0012070BD236A5A7939
:104090005A70200000F039FB002801D00220F4E71C
:1040A0006368882212019A602100033001F084FACB
:1040B000236A00255D862300022201210220FFF7EA
:1040C00053F9220000210020FFF7A8FB63689D60E0
:1040D000DBE70120D9E70000F8B5CE46474680B5BA
:1040E00005000C009046FEF748F8072C00D901BEE9
:1040F000434BEB181B0A434A944663441B021B685C
:10410000A200D3400F261E40072C00D901BE3C4B15
:10411000EB181B0A3B4A944663441B021A68A7002B
:104120000F21B9408A431A60FEF72BF8FEF725F8F5
:10413000072C00D901BE62001219AB68D3400727D3
:104140001F40AB69E340DB00082213401F43072CEC
:1041500000D901BE0123A3406B64072C00D901BE26
:1041600062001219AB68072191408B4306219140F0
:104170000B43AB60AB690122A24093431343AB6195
:10418000FDF7FFFF43461B6AD88F04F0C1FAFDF725
:10419000F4FF072C00D901BE61000919AB689846ED
:1041A000072399461A008A40434693431A004B4618
:1041B0003B408B401343AB60AA6901231900A14027
:1041C0008A43FF083B40A3401343AB61072C00D94F
:1041D00001BE0B4B9C4665442D0A0A4B9C46654428
:1041E0002D022B68A4000F22A2409343A6401E4339
:1041F0002E60FDF7C6FFC0BCB946B046F8BDC0464C
:104200000000FCBF00024000F0B5CE46474680B536
:1042100085B0040000230393029303689B681A6827
:1042200090469F681B7B9946026A40230321D15226
:10423000314B10224146CA5088239B000F3ACA5086
:10424000036A2732DA87036ADA8F002A01D1013242
:10425000DA87220049463800FFF73EFF0026009625
:10426000062309224946380000F0C8FB210003A8B4
:10427000FFF718F905000096002309224946380087
:1042800000F0BCFB002D05D0280005B0C0BCB9462D
:10429000B046F0BD88239B004246D650164B174AC5
:1042A0004146CA50220049463800FFF715FF0096E4
:1042B000062309224946380000F0A0FB210002A88D
:1042C000FFF7F0F805000096002309224946380060
:1042D00000F094FB002D0BD1029B09485843039931
:1042E00004F0CEFB074B9C466044236A1882CBE760
:1042F000236A00221A82C7E70C0600001000400063
:10430000B3060000C6020000F0B5D6464F4646464A
:10431000C0B584B006000F0015001C0000230393F5
:10432000002C00D1A1E0192A00D9A0E0002A00D178
:10433000A5E0012801D901269AE0200000F0E5F966
:10434000002800D09DE06368882212019A60002E48
:1043500068D0012E71D0012600239A462100032047
:1043600001F02AF900287BD1002E7AD12300002207
:1043700000210330FEF7F8FF6801401B8000401960
:104380000001FA21890004F07BFB236AD887236AA5
:10439000DA8F002A01D10132DA87220049464046ED
:1043A000FFF79AFE38486843FA2104F069FB0300DE
:1043B0004001C01A8000C018C000344904F060FBFE
:1043C00001308023DB01984200D33148226A402328
:1043D000D052002500953A3B09224946404600F05C
:1043E0000DFB210003A8FFF75DF8060000950023F0
:1043F00009224946404600F001FB002E29D1039ACC
:1044000053019B18D9015B181801801A800080188D
:10441000204904F035FB80B253461880002F20D08D
:1044200038601EE023689B689A6890461B7B99461B
:10443000236A442292469A4490E723689B681A694B
:1044400090461B7D9946236A462292469A4400264E
:1044500084E7002352461380002F02D03B6000E027
:104460000526636800229A6002E0012600E001262A
:10447000300004B0E0BCBA46B146A846F0BD012603
:10448000F6E70226F4E7C046308C1100649D29024D
:10449000FF3F0000A086010030B583B00400002378
:1044A00001930300052201A90020FFF72DFF05005D
:1044B0002300052201A90120FFF726FF002800D1D3
:1044C000280003B030BD70B505000C1E2BD00800CD
:1044D00000F01BF9002801D0022025E06368882243
:1044E00012019A602100033001F066F8002804D020
:1044F0000520636800229A6016E023000022002154
:104500000430FEF731FF2000FFF77EFE002805D1C2
:10451000002DEED0236A1B8A2B60EAE7002DE8D03D
:1045200000232B60E5E7012070BD000070B504009A
:104530000D00434B18427AD1002900D17AE00800DF
:1045400000F0E3F8002800D076E0E30725D4002649
:104550002900032001F030F8002800D06EE0230786
:1045600027D4230631D463063CD4E30646D4E305BE
:1045700050D4A4065CD52A683323D35C002B57D0D3
:1045800029000020FFF774FD002851D02A6A9368A3
:1045900020210B4393600F264AE02800FFF7A0FA82
:1045A000061ED5D02A6A936801210B4393600F261B
:1045B000CEE72800FFF7B8FB0028D2D02A6A93681C
:1045C00008210B4393600F26CBE729000020FFF75B
:1045D0007AFF0028C7D02A6A936880210B43936032
:1045E0000F26C0E72800FFF757FF0028BDD02A6A32
:1045F000936840210B4393600F26B6E72800FFF72E
:10460000F7FC0028B3D02A6A936810210B4393600B
:104610000F26ACE72800FFF763FC0028A9D02A6A20
:10462000916880235B000B4393600F26A1E701266E
:10463000300070BD0126FBE70226F9E70526F7E703
:1046400006FEFFFF10B5040001000120FFF79CFAF1
:1046500021000120FFF7E1FA21000120FFF752FBC2
:10466000226A00231370226A537010BD036ADA8B2A
:10467000002A01D10132DA831A8C002A02D10132D8
:10468000FF321A841A8C032A01D804221A84198C46
:1046900080225201914200D91A8464229A861A8C8F
:1046A0005208DA869A87704770B50500026824239D
:1046B000D65C002404E029002000FFF725FA01342D
:1046C000B442F8D32800FFF7D1FF2A6A0023137001
:1046D0002A6A5370296A22228B542B6ADA789A71DB
:1046E0002B6A1A79DA712B6A9A785A7170BD10B5F3
:1046F00000F0F4FF10BD10B5021E04D00821002008
:10470000FFF7F5FF10BD0120FCE743689B688020A0
:104710001840704710B5002000F069F910BD10B5C1
:1047200001F060FE10BDF8B504000F00161E74D035
:10473000D36900225A753100002000F03DFF042C9F
:1047400022D01DD8012C21D0022C21D10223042FEC
:1047500022D00125052F2FD0062F3CD0012F48D085
:10476000F36900225A75002D58D1012F56D131001E
:104770000020FEF7F9F931000120FEF7F5F94DE0D0
:10478000052C07D10623E2E70423E0E70123DEE757
:104790000023DCE70023DAE7621E012A03D9042C98
:1047A00001D00125D6E7326A9179994202D09371FE
:1047B0000025CFE70025CDE7012C03D0052C01D043
:1047C000022CC9D1326AD179994202D0D371002525
:1047D000C2E70025C0E7621E012A01D9042CBDD121
:1047E000326A5179994202D053710025B6E700250B
:1047F000B4E7631E012B01D9042CB1D1B368742234
:104800009A5CE4B2A24201D10025A9E774229C542B
:104810003000FDF7C7FE0500A2E701252800F8BD1E
:10482000F0B5CE46474680B583B006000D00CC6893
:104830008C234343E41820682323C35C1B070AD45A
:1048400000277A23E35C012B0FD0380003B0C0BCF3
:10485000B946B046F0BD8023E25A043000910023EF
:10486000310001F0EDFD0700EBE77A33E35C043B38
:10487000DBB2012BE9D820682323C35CDB06E4D537
:104880008023E35A8222A25A9B18013B99460630A4
:10489000009500234A46310001F0D2FD0743002372
:1048A000002B10D0002B01D010231F433B23E25CD0
:1048B00043465B889A42C8D323689A88D9889980EE
:1048C0002368DA80C1E7296BDA004A44920088182D
:1048D0008046895A024A9142E4D90133E0E7C04652
:1048E000FCFF00008B68DB6A5843800B00D0013866
:1048F00080235B02984200D270470148FCE7C04623
:10490000FFFF000070B50C1E1DD08B68D8618D684C
:10491000FFF7E8FF286263689B68102210001840C8
:104920001A420FD023689B681A68136F1B0C1B0474
:10493000136723689B681A68136FA168096A0B43A1
:104940001367002070BD0120FCE7000070B582B045
:104950000500FA235B000193002837D003F00EFC1A
:10496000019801A903F04EFC041EF9D1184B1E68F2
:1049700003F02AFC3006AE68164904F081F8F062B4
:10498000AE68F0692900FFF7ADFF3062AE68706A6B
:104990002900FFF7A7FFB062AA68136A01936B684A
:1049A0009B689B0601D5936A01932B689B681A68E4
:1049B000136F1B0C1B0413672B689B681A68136F1B
:1049C00001990B431367200002B070BD0124FAE780
:1049D0002000034040420F0010B50B00111E03D011
:1049E000584304F04DF810BD01204042FBE710B5DC
:1049F00008008B681B69984710BD0000F8B5CE46CB
:104A0000474680B505000C0016001F00FDF7B5FBFA
:104A1000002F4DD1072C00D901BE0F233A009A4335
:104A200000D001BE464BEB181B0A464A944663442D
:104A30001B021A689046A1008C460F2162469140E5
:104A400042468A430F2139406746B9400A431A60FB
:104A5000072C00D901BE0F2332009A4300D001BEBB
:104A600061000919AA6807231F008F40BA43334029
:104A70008B401343AB60AA6901231900A1408A430C
:104A8000F6083340A3401343AB61089B002B4BD087
:104A9000072C00D901BE6B6A0121A140FF220A4008
:104AA00013436B62FDF76DFBC0BCB946B046F8BD61
:104AB000072C00D901BE0F2332009A4300D001BE5B
:104AC00061000919AB689846072399461A008A4085
:104AD000434693431A004B4633408B401343AB602D
:104AE000AA6901231900A1408A43F6083340A34074
:104AF0001343AB61072C00D901BE0F233A009A4340
:104B000000D001BE0E4BEB181B0A0E4A94466344BC
:104B10001B021A68A6000F21B1408A430F213940B9
:104B2000B1400A431A60B0E7072C00D901BE6B6A96
:104B30000121A140FF220A4093436B62B2E7C046C5
:104B40000000FCBF00024000F0B583B004000D007F
:104B500016001F001B689B68197B986800922B0049
:104B60002200FFF74BFF3B689B68197D1869009690
:104B70002B002200FFF742FF03B0F0BDF0B5DE4688
:104B800057464E464546E0B583B083468A46914631
:104B900098460C9F7C69002504E0012393400B6438
:104BA000083401353B689E89AE4219D920682179C5
:104BB0004346009353465A46FFF720FF4B46002BCF
:104BC00005D021682279072AE7D901BEE5E72168E7
:104BD0002279072A00D901BE012393404B64DFE705
:104BE00003B0F0BCBB46B246A946A046F0BDF0B546
:104BF000D6464F464646C0B582B082468946904664
:104C00001F009C69002604E001259D40556408347E
:104C100001363A682C23D35CB3420DD92068217940
:104C2000434600934B465246FFF7E8FE226823793D
:104C3000072BE9D901BEE7E702B0E0BCBA46B146AE
:104C4000A846F0BD4268936881210B43936070478A
:104C500010B54268936801218B4393604268936862
:104C60007F318B43936083685B68002B01D0002009
:104C7000984710BD70B50A6903011B1A9B00D31831
:104C80009D8E002D00D0013DCB688C2242439B18A5
:104C90007B229B5C072B04D00C6B8B6A0C330022AD
:104CA00018E04C6BCB6A20330022002A00D070BD84
:104CB0002188814203D004342C330132F5E719688E
:104CC0000B4E314019602E0431431960F3E7043470
:104CD00018330132072AEAD821888142F7D11968AE
:104CE000034E314019602E0431431960EFE7C0468E
:104CF000FFFF00F030B5CB688C2242439B187B222B
:104D00009B5C072B04D00A6B896A1031002316E0E4
:104D10004C6BCB6A24330022002A00D030BD21889E
:104D2000814203D004342C330132F5E71D68FF21A2
:104D3000090229431960F5E7043218310133072BC2
:104D4000ECD814888442F7D10D68FF2424022C4348
:104D50000C60F1E770B50400914211D80125022CD6
:104D600003D0049A9A4200D20025002C06D11900E3
:104D7000049803F00BFF002900D02500280070BD27
:104D80000025ECE7020080231B02044801E04008F4
:104D90005B08012801D91A42F9D07047FFFF0000D3
:104DA00010B5828D8B684D215C5CA418988FFFF73D
:104DB000E9FF01308008844203D30220082318430E
:104DC00010BD0020FAE7032303405B1801330120E4
:104DD0009840704770B504000E001D00424310005B
:104DE000642103F04DFE0300EB40A01BE84083422A
:104DF00000D8180070BD0000F0B5DE4657464E469C
:104E00004546E0B587B004000768BA8D8B684D2130
:104E10005E5CB61880225202964200D32D4E362296
:104E2000BD5C4A329543323A9A5C91468822A25C34
:104E300092468722A25C9346988FFFF7A3FF0390C8
:104E400049462800FFF7BFFF04907A23E55C012D57
:104E500021D00A2D1CD004230593F8894B465A46CD
:104E60000599FFF7B7FF02000096039B049950468F
:104E7000FFF770FF8046012D10D004204346034306
:104E8000180007B0F0BCBB46B246A946A046F0BD2C
:104E9000723B0593E1E708230593DEE77B23E35CA0
:104EA000043BDBB2012BE8D80028E6D0388A4B4619
:104EB0005A460599FFF78EFF02003604360C00961D
:104EC000039B04995046FFF745FF8045D5D000234A
:104ED0009846D2E7FFFF000010B5FFF77BFF0F28D1
:104EE00005D8072805D8032805D9012000E00320AC
:104EF00010BD0220FCE70020FAE7F8B504000668C0
:104F0000F58928008A684E23D35C8722A25C7A2127
:104F1000615C012909D0012914D00A2910D000218F
:104F2000FFF7DAFF80231843F8BD7B27E45D043CDC
:104F3000E4B2012CEFD8348AA542ECD92000EAE78C
:104F40000239EDE70821EBE7F8B5DE4657464E4655
:104F50004546E0B58346C468002399469A4698467C
:104F600051E07A33E35C072B57D0002555E000254C
:104F700058E03623F356002B18DB002F1DD17A237F
:104F8000E75C012F23D00A2F1ED00123994603236B
:104F90002B40012B1ED0F389534527D38022520189
:104FA000934226D980231B01994622E059462000CE
:104FB000FFF7A3FF3623F054DFE759462000FFF741
:104FC0001BFF2123F054DAE7723B9A46DFE7082300
:104FD0009A46DCE73533F05C4A3398435B469A687F
:104FE0004E23D15CFFF7EFFE8244D4E780231B0100
:104FF0009946012F28D080231B01994538D08C3445
:1050000001239C46E0444346022B31D826682123E5
:10501000F55C5933E35C012BA3D07A23E25A184B99
:105020009A42A4D004231F002F402B42A1D1013B60
:105030002B40012B9DD02B07A1D559463000FFF7FF
:10504000AFFE2123F0549AE77B23E35C043BDBB201
:10505000012BD0D8338A534507D380225201934283
:10506000C9D980231B01994602E080231B01994680
:105070004846F0BCBB46B246A946A046F8BDC0466D
:105080000107000010B50400010000208023DB01AF
:1050900000E09B08002B07D01A0002434008914211
:1050A000F7D3891A1843F4E703004343A34200D21D
:1050B000013010BDF8B5CE46474680B50400150056
:1050C00013689B681B68984641184B1E994601E07F
:1050D000198001344C4522D82B6BA6009F5B290018
:1050E000380001F085FD0028F3D02B6B9B19588800
:1050F000C8239B014246D158EB688C227A439B1807
:105100005B688200121852009B189A79042082432F
:105110009A71C803DCD5042002439A71D8E7C0BC59
:10512000B946B046F8BD0000F0B5DE4657464E46DB
:105130004546E0B583B00190160052680092B76B07
:1051400033689B681B689A464318013B9946294B74
:105150005046C0584005400D274B5446E358002B9D
:105160000CDB0323009A1377009C019B2376617666
:1051700003F086FCA07600239B462DE001231377E5
:10518000F2E71B689B88A34221D91C1B3C80023795
:1051900001354D451DD8C8239B015246D4582404DF
:1051A000240C726BAB00D35A98463100180001F002
:1051B0001FFD0028EBD0F3688C2241464A439B1820
:1051C0007A229A5C022ADCD00A2ADFD1D9E70024AD
:1051D000DCE701239C46E344009B9B7E5B4501D9B1
:1051E000019DD6E703B0F0BCBB46B246A946A04637
:1051F000F0BDC0461034000014340000F8B50400BF
:105200000D0016008B1E012B01D9012708E00D06A9
:1052100080277F043D4003E0012003F079FA013C40
:1052200033689B681868C0235B00C3583B40AB429F
:1052300003D1002CF0D1042000E00020F8BD0000D4
:10524000F0B5C64600B5904613689B681F680C0011
:10525000242900D9242443469A684623D45200299D
:1052600062D043469E6A43001B18DB00F618802379
:105270009B01FD183B685B005B083B6080230022BC
:10528000FA500133FF33FB58DB0106D5A2235B0044
:1052900080225202FA5000220DE0A2235B0001326C
:1052A000FA50BA2042460221FF30FFF7A7FFF2E78B
:1052B00008CE08C5013263001B195B009342F7D882
:1052C000043D2B68042213432B60FB681F490B40ED
:1052D000FB603A681E4B1A4080231B0213433B605D
:1052E000BA680A4080235B001B1B1B0419490B4052
:1052F0001343BB6043469B681A68002A03D06121B0
:105300005B5C012B13D043469A686123D35C012B6D
:1053100011D001228023FA50396880231B060B43E9
:105320003B60A0235B00FA5080BCB846F0BD43460A
:10533000D8699047E7E78033FF33FB58DB01E8D5B6
:10534000A2235B0080225200FA50E2E7FFFF00FC3C
:10535000FF0FFFFF0000FF03F8B5040003689B6820
:105360001D68866890235B00EA580833EB581340A9
:10537000DB032AD490235B00EB58DB0705D542689A
:1053800091688023DB000B43936090235B00274AE6
:10539000EA506368DB8ADB070CD42B685B005B0890
:1053A0002B60A2235B0080225200EA502000FFF70E
:1053B0004FFCF8BDB08E4623F15A2200FFF7B4FE31
:1053C0006268D37E0133D376E7E790235B00174A08
:1053D000EA50B08E4627F15B2200FFF76BFEF35BCD
:1053E000B28E9B189BB2B386F18E8B420DD8C91A30
:1053F00001312B6F1B0C1B042B6761230022F2541D
:10540000B08E2200FFF71CFFD3E72B685B005B0820
:105410002B60A2235B0080225200EA5062689388CE
:10542000013393802000FFF713FCC2E71100110144
:105430000200002000E00130012383409342FAD3B0
:105440000F2800D870470F20FCE710B5FFF7F0FFDA
:1054500001238340180080235B00984200D810BDD0
:105460001800FCE770B5050003689B681C6823689A
:105470005B005B08236001238022A35002689268CE
:105480001168C02252008A5813421CD0226880231F
:105490001B06134323600023636794225200A3502A
:1054A000083A0E49A150203A0D49A150A9688F3AF7
:1054B0008B5423680B4A13402360A26880235B054A
:1054C0001343A36070BD4433FF330122E2503C20FC
:1054D0002A000021FF30FFF791FED7E711001101EC
:1054E000111101C1FFFFFCFF10B502000B689B68A2
:1054F0001C68216880231B060B43236090235B00FC
:105500000A49E150203B0A49E1500621200001F000
:1055100073FD084BE25806210A43E250E258053970
:105520000A43E250E0239B01E15010BD110011013C
:10553000111101C13430000070B505000B689A6884
:10554000146818680A4903F09BFA01000522280034
:10555000FFF742FA00E0013880235B00E2581A426C
:1055600001D10028F7D180235B00024AE25070BDD0
:1055700040420F00111101C110B503689B681C68FF
:10558000FFF770FF8023DB000022E2500DE0930163
:10559000E318C121C9005918C020800408600449DB
:1055A0008C466344034919600132022AEFD910BDC9
:1055B0000C06000000101000F0B5C64600B582B021
:1055C00005000C000F68BB681B6898468A68552365
:1055D000D25C824276D0032A15D005D9053AD2B2E0
:1055E000012A17D9012602E0022A11D90126A26850
:1055F00073230021D154002E56D1062D68D8AB005C
:10560000344AD3589F460800FFF71CF80026EEE7FF
:105610000026ECE70026EAE700940123002200219F
:105620000920FFF7ABFA2300012200210920FFF730
:10563000DEFA6268936830218B439360E36900224D
:105640005A752300013200210920FFF77DFA616AB3
:10565000BB685B680222404601F0FAFB002801D0DB
:10566000402630E084235B0000224146CA501833B4
:10567000194ACA50193003F04BF815E00094012381
:10568000002200210920FFF779FA230001220021DE
:105690000920FFF7ACFAE36900225A7523000132B2
:1056A00000210920FFF750FA002E0CD1A2685523E3
:1056B000D55408E02000FFF75FFFF5E72000FFF773
:1056C000D1FEF1E70026300002B080BCB846F0BD44
:1056D0000126F8E740AE000011001101F0B5D646F2
:1056E0004F464646C0B506000F00141E00D1ADE07F
:1056F000002900D1ACE0072800D9B0E00B18013B2D
:105700009846072B01D90125A3E01000FEF7FDFF05
:10571000802800D1A5E02000FFF794FAA3689946FD
:1057200023689B681B689A46732300224946CA5423
:105730001E3BCB5C022B56D0042B54D02100022000
:10574000FFF73AFF051E00D083E0626893683021BE
:105750008B4393606268936820390B439360712395
:1057600003224946CA5453461A68C0239B02134376
:105770005246136013683C4A134052461360136F3D
:105780003A4A134052461367136F80225202134362
:1057900051460B6723689B6819680B6F1B0C1B0431
:1057A0000B6723689B6819680B6FA068006A034346
:1057B0000B67002351464B672933FF33CA50B3B2FE
:1057C000482249468B528B864246CA866123012273
:1057D000CA54242F01D81233CA5422003900300091
:1057E000FFF72EFD35E048234A46D35AB342A5D1F0
:1057F0004623D35ABB42A1D1242F9FD8636899680E
:10580000802292010D001540114297D19B68DB0662
:1058100094D5732301224946CA548E86A3681B6817
:10582000002B01D0E069984753461B685B005B087A
:1058300052461360126880231B06134352461360BE
:10584000A0235B0001225146CA5002E0012500E07E
:1058500001252800E0BCBA46B146A846F0BD0125A6
:10586000F7E74025F5E7C046FF0FFFFFFFFF00C049
:10587000F0B5D6464F464646C0B582B080460C00CD
:1058800015004618013E002A00D148E1002900D148
:1058900047E1082900D94CE1002E01D0012741E160
:1058A00052689368A5490B4093602800FEF72DFFCE
:1058B000802800D13FE129000220FFF77DFE071E6E
:1058C00000D02FE12800FFF7BDF9AB689A462B689E
:1058D0009B681B689946732301225146CA548B8EDC
:1058E000434532D0534642469A86DE864623524688
:1058F000D4522B3303225146CA544B461A68C02354
:105900009B0213434A46136013688D4A13404A466C
:1059100013608C4B5367536F012213434A465367FE
:1059200013685B005B081360C0235B00D358DB0186
:105930001FD5A2235B00802252024946CA5001971C
:10594000EA6A2C21434659432FE0CB8EB342C9D19A
:105950006B689B689B06C5D5C0235B004A46D2583E
:10596000803BFF3B110019401A4200D0C5E00F00F8
:1059700096E0802300224946CA50C4330132CA50FF
:105980003C202A000221FF30FFF738FC019000285C
:10599000D6D0070033E0BB005618F65880231B0111
:1059A000FB189B0048461E500137A3001B195B00E3
:1059B0001B19BB42EFD8644A944663449B004A4695
:1059C0009A5804210A4349465A50F02189014B460E
:1059D0005B5801221343484643505C4BC3581A425C
:1059E00000D188E0019FC0235B004A46D358DB0109
:1059F00005D5A2235B00802252004946CA50002FE1
:105A00004ED14B46DB68524A13404A46D360136876
:105A10004B4A13404A461360136F4E4A13404A469E
:105A20001367AB684A22995A8022D201914202D36D
:105A30004A22494999524B461B6FA9684A228A5A01
:105A4000120413434A461367126F80231B06134345
:105A50004A4613672B689B681A68136F1B0C1B045C
:105A600013672B689B681A68136FA968896A0B43D0
:105A70001367802301224946CA508E68344B1E406A
:105A800021008020400002F0FBFF0B3844438023BC
:105A90005B001B1B1B04314A13401E434B469E6098
:105AA0006A68936830218B4393606A689368103901
:105AB0000B439360002F35D153461B68002B01D058
:105AC000E86998474B461B685B005B084A461360D1
:105AD000126880231B0613434A46136094235B001D
