:1000000000200020F5030000DD030000DF030000F6
:1000100000000000000000000000000000000000E0
:10002000000000000000000000000000DD030000F0
:100030000000000000000000DD030000DD03000000
:10004000DD030000DD030000DD030000DD03000030
:10005000DD030000DD030000DD030000DD03000020
:10006000DD030000DD030000DD030000DD03000010
:10007000DD030000000000000000000000000000A0
:100080000000000000000000000000000000000070
:100090000000000000000000000000000000000060
:1000A0000000000000000000000000000000000050
:1000B0000000000000000000000000000000000040
:1000C0000448054B10B5834203D0044B002B00D0ED
:1000D000984710BDC0060020C006002000000000A8
:1000E00006480749091A8B10C90FC91810B54910DD
:1000F00003D0044B002B00D0984710BDC006002051
:10010000C00600200000000010B5074C2378002B2B
:1001100009D1FFF7D5FF054B002B02D0044800E0C2
:1001200000BF0123237010BDE00600200000000086
:1001300004B40000054B10B5002B03D0044905485A
:1001400000E000BFFFF7CCFF10BDC046000000007C
:10015000E406002004B40000402292029A1A92465B
:100160007047C046174B002B00D1134B9D46FFF73D
:10017000F3FF00218B460F461348144A121A0AF067
:100180008FF80E4B002B00D098470D4B002B00D062
:1001900098470020002104000D000D48002802D0DF
:1001A0000C4800E000BF0AF083F82000290000F0AE
:1001B00071FE0AF061F8C04600000800000000006F
:1001C000E903000000200020E0060020280B0020AA
:1001D000000000000000000010B500F0ABF800F0D7
:1001E00013F800F04AF800F05FF810BD10B500F009
:1001F00043F800F057F800F099F810BD10B5FFF77C
:10020000EBFFFFF7F3FF10BD10B50021012008F050
:1002100027F822220021012007F068FF0021012099
:1002200007F0FCFF0121012008F01AF82222012129
:10023000012007F05BFF0121012007F0EFFF002103
:10024000022008F00DF8012319220021022007F0F6
:1002500071FF0021022007F0E1FF0021032007F0D9
:10026000FFFF002300220021032007F063FF00218D
:10027000032007F0D3FF10BD704710B50022012105
:10028000002007F0A7FF00220321012007F0A2FFB2
:100290008020400108F0FCF9002008F009FA08F07D
:1002A00019FA10BD7047000010B5154A154C02210F
:1002B000200006F079FD144A0321200006F074FDA9
:1002C000124A0421200006F06FFD114A052120008A
:1002D00006F06AFD0F4A104C0021200006F064FD74
:1002E0000E4A0221200006F05FFD0D4A0321200086
:1002F00006F05AFD0B4A01210B4806F055FD10BDD2
:1003000018A900000002044030A9000078A90000EC
:1003100060A9000000A9000000030440A8A9000093
:1003200090A9000048A9000000040440704701BEE5
:100330007047000070B5302008F092F81A4C802504
:100340002D062563194807F025FD002007F084FEDF
:10035000A36A0C229343A362A36AB4329343A362B9
:1003600000F098F8002007F09BFFE36A1D43E56268
:100370000F4807F00FFD002007F06EFE011E0ED1A2
:10038000094B9A6A0C218A439A629A6AB4318A4369
:100390009A62202008F064F800F07CF870BD062016
:1003A000FFF7C5FFECE7C0460000034000366E01D2
:1003B0000048E80110B5044808F082F8002801D090
:1003C000002010BD0148FCE70C06002000000206DA
:1003D00010B5FFF713FFFFF7EDFF10BDFEE710B5F7
:1003E00008F03CF810BD704710B5FFF7FCFF10BDDA
:1003F0007047000010B5FFF7FBFF00F03FF8174C07
:100400001749C022200009F077FF164B9C60BFF30C
:100410004F8F154A09E01468990050686458445099
:10042000013391688B42F6D30C32104B9A4201D2C1
:100430000023F6E70E4909E00A6898001218002028
:10044000106001334A689342F6D30831094B994250
:1004500001D20023F6E7FFF785FEC046000000202A
:100460000000000000ED00E010B400001CB400002B
:100470001CB4000024B400007047000010B5034B0A
:10048000034A9A6372B6FFF7F7FF10BD00000340FE
:100490006588EDAC70B5114B9B6A9B0903251D4027
:1004A0000124AC4007F004FE64080019E84014D0B1
:1004B0000B4B1860441E0B49200008F075F9013001
:1004C000094B1870FA218900200008F06DF90130FD
:1004D000064B1860C003064B186070BD0000034057
:1004E0002806002040420F0034060020300600207D
:1004F0002C06002010B50249024804F0B9FA10BDDC
:100500002C0100200000294010B582B06A46144B2F
:1005100011CB11C2134802F04FF8002801D002B0ED
:1005200010BD1149684607F01BFF6B4600229B5E19
:10053000002B07DB1F21194001228A400B48C021F4
:1005400049004250002B06DB1F2213401E3A9A40FE
:100550001300064A1360034801F078FFDFE7C04646
:10056000D8A900002C010020F504000000E100E003
:1005700010B5124806F0C4FA00281AD0104B1B68B8
:10058000002B10D001F032FE96235B00984213DB63
:100590000B4B00221A600B4801F027FE0749002090
:1005A00002F0DBF808E001F027FE054B01221A609B
:1005B000E8E7034B00221A6010BDC0462C01002062
:1005C000200A0020C0A9000010B5944A0021022092
:1005D00006F0B9FA002806D1904A0021033006F04F
:1005E000B2FA00281DD08D4A0021052006F0ABFA92
:1005F000002821D08A4B952292009A5A89495B5A49
:1006000019000A318A4230DD854B9A2189005B5AF4
:1006100019000A318A423FDC0A3293425CDCFF2037
:100620003BE07E4A0021043006F08DFA0028DAD142
:100630007D4B00221A70C4E0784A0021063006F093
:1006400082FA0028D6D1754A0021073006F07BFADD
:100650000028CFD1714A0021083006F074FA002832
:10066000C8D1714B00221A70ABE00A3293420BDD05
:100670006B4A9A208000125A10000A3083422DDC07
:1006800091422DDBFF2008E0654B9A2292009B5A95
:10069000994227DBFF2000E00020614A634BD35AD8
:1006A0009F218900525A11000A318B4235DD5C4A84
:1006B0005F49525A11000A318B4215DD584AA42174
:1006C0008900525A11000A318B426CDC0A339A427B
:1006D00000DD7EE0FF2167E00220DEE70120DCE7AD
:1006E0000220DAE70220D8E70A339A420DDD4C4BAC
:1006F000A424A4001B5B1C000A34A24200DD6AE0B3
:10070000994200DA69E0FF214EE0454BA4229200B5
:100710009B5A994263DBFF2146E00A339A4228DD67
:100720003F4B434C1B5B1C000A34A2420BDD3C4B8D
:10073000A424A4001B5B1C000A34A24251DC994291
:1007400051DBFF2130E099420BDA354AA4218900C0
:10075000525A11000A318B4247DC944247DBFF2199
:1007600022E02F4BA42292009B5A9C4241DBFF21A6
:100770001AE02B4B2E4A9B5A99420CDA284AA421A4
:100780008900525A11000A318B4234DC0A339A42F2
:1007900033DCFF2108E0224BA42292009B5A9942AD
:1007A0002DDBFF2100E00021224B4A0052189B184C
:1007B0001C5C214B1B78A34203D0FF2901D0FF28EA
:1007C0001FD1194B1B78002B02D11B4BFF221A7033
:1007D00010BD0321E8E70221E6E70321E4E7032156
:1007E000E2E70121E0E70321DEE70221DCE7032164
:1007F000DAE70321D8E70221D6E70321D4E7032172
:10080000D2E7094B01221A70200000F0E7F800F04F
:100810008FF801F0F1FC084B1C70D2E72C0100208E
:100820008C0100205E0200001C0A00207202000001
:1008300086020000380600201D0A002010B5104A6C
:100840000121002004F001F9002815D101F0D9FDA3
:10085000040007E007F0E8FE200001F0D6FD01F0FB
:10086000D0FD0400064804F0FEF80028F2D1200074
:1008700001F0CBFD002010BD01204042FBE7C04647
:100880002C01002010B5104A0721012004F0DDF8EA
:10089000002815D101F0B5FD040007E007F0C4FE03
:1008A000200001F0B2FD01F0ACFD0400064804F0A8
:1008B000DAF80028F2D1200001F0A7FD002010BDD9
:1008C00001204042FBE7C0462C01002010B5024841
:1008D00001F037FE10BDC0462C01002010B50249C2
:1008E000002001F001FE10BD2C01002010B5054ACA
:1008F0000021002006F027F9002801D0012010BDBA
:100900000020FCE72C01002010B5064A0121064812
:1009100006F04AFA054A1368F0218B431360002061
:1009200010BDC04648A90000000404400004024075
:1009300070B5044C01252564012007F063FD656452
:1009400070BDC0460003044010B50249024807F0DC
:1009500067F910BD240A00200000254070B5174A31
:100960001749184806F094FF002800D001BE164928
:10097000164807F0F5FC051E00D001BE0F4C1449C7
:10098000104E23000422300007F03CF9114B636441
:10099000114B80221A60326880231B061343336098
:1009A000F36EA278002A06D0802252001343054A33
:1009B000D366280070BD0022F8E7C046240A002054
:1009C000E8A800000000254049090000D0AF000061
:1009D0007C0A0020690D000000E100E010B5044928
:1009E0000870044B0122044807F000F910BDC0460E
:1009F000780A0020240A002000002540014B1868D6
:100A00007047C046800A002010B500F05DFCA84B7E
:100A100001221A80A74B5B78012B06D00A2B00D944
:100A200034E19B00A44AD3589F46A24B9B78012BEC
:100A300003D0A24801F0D9FB10BDA14801F0D5FBBD
:100A4000A04B01221A60F7E79A4B9B78012B09D043
:100A5000022B12D0032B17D0042B1CD09A4801F084
:100A6000C4FBE9E7994801F0C0FB964B1B68002BDB
:100A7000E2D1944B02221A60DEE7954801F0B5FB03
:100A8000904B03221A60D7E7924801F0AEFB8D4BE2
:100A900004221A60D0E7904801F0A7FB894B052299
:100AA0001A60C9E7834B9B78012B05D0062B24D80D
:100AB0009B008A4AD3589F46894801F096FBBBE7C2
:100AC000884801F092FBB7E7874801F08EFB7D4B29
:100AD00006221A60B0E7854801F087FBACE784483E
:100AE00001F083FB774B07221A60A5E7814801F0EC
:100AF0007CFB744B08221A609EE77F4801F075FB6F
:100B00009AE76C4B9B78012B07D0022B0CD0032B60
:100B100011D07A4801F069FB8EE7794801F065FB56
:100B2000684B09221A6087E7764801F05EFB654B47
:100B30000A221A6080E7744801F057FB614B0B22D0
:100B40001A6079E75B4B9B78012B0BD0022B10D0FE
:100B5000032B15D0042B1AD0052B1FD06B4801F0A6
:100B600044FB69E76A4801F040FB564B0C221A60CF
:100B700062E7684801F039FB524B0D221A605BE7CF
:100B8000654801F032FB4F4B0E221A6054E7634870
:100B900001F02BFB4B4B0F221A604DE7604801F030
:100BA00024FB484B10221A6046E7424B9B78012BEE
:100BB0000BD0022B10D0032B15D0042B1AD0052BF1
:100BC0001FD0584801F011FB36E7574801F00DFBE4
:100BD0003C4B11221A602FE7544801F006FB394BB9
:100BE00012221A6028E7524801F0FFFA354B13220F
:100BF0001A6021E74F4801F0F8FA324B14221A60CC
:100C00001AE74D4801F0F1FA2E4B15221A6013E74E
:100C1000284B9B78012B05D0022B0AD0474801F0C6
:100C2000E4FA09E7464801F0E0FA264B16221A607A
:100C300002E7444801F0D9FA224B17221A60FBE67A
:100C40001C4B9B78012B05D0022B0AD03E4801F0AB
:100C5000CCFAF1E63D4801F0C8FA1A4B18221A60A6
:100C6000EAE63B4801F0C1FA164B19221A60E3E6A6
:100C7000384801F0BAFA134B1A221A60DCE63648FB
:100C800001F0B3FA0F4B1B221A60D5E6334801F08E
:100C9000ACFA084C607801F0A7FA314801F0A5FAE7
:100CA000A07801F0A1FA2F4801F09FFAC4E6C046EF
:100CB000BA0A00207C0A002088AF0000F0A90000DA
:100CC000E0A90000800A0020BCAA000014AA0000CD
:100CD00038AA00005CAA000080AA0000B4AF00009F
:100CE000E0AA000000AB000020AB000048AB000011
:100CF00068AB000098AB0000C4AB00005CAC000027
:100D0000E4AB00000CAC000034AC000048AD0000C7
:100D10007CAC0000A8AC0000CCAC0000F0AC000043
:100D200020AD000020AE000068AD000090AD0000D6
:100D3000B4AD0000D4AD0000FCAD00007CAE0000FE
:100D400040AE00005CAE0000F8AE0000A8AE0000AF
:100D5000CCAE00001CAF00004CAF000064AF000040
:100D600080AF000084AF000010B50400830607D5F3
:100D700043060AD5114B12490422124806F042FFDD
:100D8000E30601D5640611D510BD0C490D4806F0E7
:100D900044FF0428EED10A4B1B78012BEAD1084B03
:100DA000DB78172BE6D1FFF72FFEE3E7034B06496D
:100DB0000122044806F01AFFE6E7C046240A002094
:100DC0007C0A002000002540780A0020002070479F
:100DD00010B5054807F074FB044807F071FB0448A0
:100DE00007F06EFB10BDC0466C06002050060020C8
:100DF0009006002010B5FFF787FDFFF7AFFD002834
:100E000000D001BE00F080FA002800D001BE01F041
:100E1000A9FA064801F0E9F9054801F0E6F90548A4
:100E200001F0E3F9044801F0E0F910BDD8AF00008B
:100E3000E4AF000024B0000064B00000F8B5070083
:100E40000E00134C22000421042003F01AFE22009D
:100E50000421042003F015FE2100102002F0E3FA23
:100E60000500E36819692422380009F045FA2200D8
:100E70000621042003F005FE2100202002F0D3FA11
:100E8000236AD9680422300009F036FA2800F8BD38
:100E90002C01002030B58DB001230B93FFF798FA99
:100EA000002800D001BE62B6FFF792FFFFF7A2FF55
:100EB000FFF72AFB01A902A8FFF7C0FF002800D016
:100EC00001BEC44C200003F0A5FE2100C24803F07F
:100ED0007DFE01F07BF80025FEE0FFF78FFD002886
:100EE00003D1BE4B1B78002B09D0BD4B1B68002BD8
:100EF0000FD0BC4B01221A6001F08AF9F6E01430E1
:100F000001F052F8B84B01221A60B84B00221A6067
:100F1000EBE7B34B01221A605020FFF75FFDFFF7AC
:100F200007FDE6E7B14B1B68002B12D101F06AF90F
:100F30001D2800DCDAE001F06BF9AC4B01221A60ED
:100F4000A74B00221A607020FFF748FDFFF7F0FC66
:100F5000CCE001F057F908F0C5FF0022A44B08F0DF
:100F600047F9A44C08F088FF2060FFF747FDA24B2B
:100F700018602068142802DC1B68002B20D09E4BD0
:100F80001B68002B15D09D4801F02FF99A4B18686B
:100F900001F02AF99A4801F028F9924A00231360D7
:100FA000924A1360904A1360964B924A12681A60F4
:100FB0009CE0002000F0F8FF934801F016F9ECE700
:100FC000904B1B689842EFD008F08CFF02000B009A
:100FD00000208E4908F0CEFB07F0C0FC80B200F084
:100FE000E3FFE1E78A4801F000F9834B186801F05C
:100FF000FBF8834801F0F9F87A4B1B68012B00D00D
:1010000089E0784A00231360784A1360764A1360B7
:1010100081E0804B1B68002B1BD07F4B1B68012B92
:1010200026D07D4B1B68002B54D10B9B012B38D055
:1010300001F0F4F83C2841DD684B1B78002B39D0D7
:10104000764B02221A706349754803F0BFFD0025F4
:1010500040E0FFF7F3FB002803D0724B01221A7027
:1010600038E0FFF73BFCFFF741FC6B4B1860D4E71F
:101070000B935849FA20800003F0A8FDFFF702FC0B
:10108000644B1860002803D0664B01221A7021E0DF
:10109000FFF71CFCFFF798FA4E494F4803F096FD06
:1010A00018E001F0C1F800250B954A495E4803F0AD
:1010B0008DFD0FE05D4801F043F9C1E745495A480D
:1010C00003F084FD06E0FFF7B9FB002838D0554B4C
:1010D00001221A70FFF74CFA4F4B1B68012B00D10D
:1010E000FBE6404B1B68012B00D11BE7FFF786FC9A
:1010F000414B18601B68002B02D14D4B00221A6037
:101100003D4B1B68002B0AD0494B1A683A4B1B68B1
:101110009A4200D066E7384B1A68454B1A60414B3B
:101120001B78002B53D03F4B00221A703B4B1B788F
:10113000022BC8D0032B24D0012B00D169E7FEE796
:10114000FFF7CCFBFFF7D2FB334B18601B68012B7A
:101150000FD0314B1B68002BBCD10135192D03D9A1
:101160002E4B03221A7000251A492D4803F02EFD3C
:10117000B0E72A4B01221A701649174803F026FDE2
:10118000A8E7144804F004FE01E007F04DFA114806
:1011900003F069FC041EF8D10E4D2900012001F076
:1011A000A3F9280005F0C9FC051E08D01B4B01223D
:1011B0001A700849084803F009FD25008AE7174B13
:1011C00002221A700349164803F000FD82E707F077
:1011D0002BFA81E72C010020E44D0000BC0A00201E
:1011E0009C0A0020980A0020A00A00208C0A0020F7
:1011F00000000840840A0020900A0020A4B00000EB
:1012000084AF000088060020C0B000000000344019
:10121000D8B00000880A0020A40A00204C06002054
:10122000040D03008C06002050C30000400D030095
:10123000940A002070B505000C0001801348484353
:10124000642107F0B1FAE881002C0FD16968AA681F
:10125000072A00D901BE012393404B640C4B1B7835
:10126000002B0ED00A4B01221A7070BD642CF5D1F0
:101270006968AA68072A00D901BE012393400B645C
:10128000ECE7044801F05CF8ECE7C046204E0000B3
:10129000BC0A002050C3000070B50D001400074BBD
:1012A00001001800FFF7C6FF05482900FFF7C2FF3D
:1012B00004482100FFF7BEFF70BDC046E00A0020D1
:1012C000D00A0020C00A002010B5044B00221A608A
:1012D00000210020FFF7E0FF10BDC046B40A002047
:1012E00010B5040043608260018005484843054909
:1012F00007F05AFAE08100232373002010BDC04696
:10130000204E0000A086010010B50A4C0A482300B8
:1013100004220021FFF7E4FF0848230005220021F2
:10132000FFF7DEFF0648074B01220021FFF7D8FF39
:1013300010BDC04600020440E00A0020D00A002090
:10134000C00A00200004044010B51F4B1868142880
:101350001BD927281ED908F0F5FD00221B4B08F0E9
:1013600009FA07F0FBFA132820D808F0EBFD020079
:101370000B000020164908F0FDF907F0EFFA80B2E3
:1013800000220021FFF788FF04E080B20022002144
:10139000FFF782FF0C4C206808F0D4FD00220D4BB3
:1013A00007F0C6FB07F0DAFA206010BD002200212A
:1013B0000020FFF771FF044B00221A60064A1388D1
:1013C00001331380F1E7C046B40A00200000444016
:1013D0000000344000001440BA0A002010B5144B3D
:1013E000186803280CD908280FD90938022811D801
:1013F0000323181A80B200220021FFF74DFF04E0FA
:1014000080B200220021FFF747FF094A1368013329
:10141000136010BD002200210020FFF73DFF044BA8
:1014200000221A60034A138801331380F1E7C04693
:10143000B40A0020BA0A002010B51F4B18681428FF
:101440001BD927281ED908F07DFD00221B4B08F070
:1014500091F907F083FA132820D808F073FD0200F1
:101460000B000020164908F085F907F077FA81B2E1
:1014700000220020FFF710FF04E081B200220020CC
:10148000FFF70AFF0C4C206808F05CFD00220D4BB2
:1014900007F04EFB07F062FA206010BD0022002129
:1014A0000020FFF7F9FE044B00221A60064A138859
:1014B00001331380F1E7C046B40A00200000444025
:1014C0000000344000001440BA0A002010B51F4B41
:1014D000186814281BD927281ED908F033FD0022CC
:1014E0001B4B08F047F907F039FA132820D808F009
:1014F00029FD02000B000020164908F03BF907F017
:101500002DFA82B200210020FFF7C6FE04E082B26D
:1015100000210020FFF7C0FE0C4C206808F012FDEF
:1015200000220D4B07F004FB07F018FA206010BDF5
:10153000002200210020FFF7AFFE044B00221A60BA
:10154000064A138801331380F1E7C046B40A00202D
:10155000000044400000344000001440BA0A00205B
:1015600010B51F4B186814281BD927281ED908F05E
:10157000E9FC00221B4B08F0FDF807F0EFF91328F7
:1015800020D808F0DFFC02000B000020164908F00C
:10159000F1F807F0E3F980B202000100FFF77CFEEA
:1015A00004E080B202000100FFF776FE0C4C2068D8
:1015B00008F0C8FC00220D4B07F0BAFA07F0CEF98C
:1015C000206010BD002200210020FFF765FE044BC3
:1015D00000221A60064A138801331380F1E7C046DF
:1015E000B40A0020000044400000344000001440D1
:1015F000BA0A0020F8B5334B1868142837D908F018
:10160000A1FC0022304B08F0B5F807F0A7F9132829
:101610004AD808F097FC02000B0000202A4908F085
:10162000A9F804000D00294A294B07F0E1FD060046
:101630000F00264A274B2000290007F0D9FD07F0AC
:101640008DF984B23000390007F088F980B20022A9
:101650002100FFF721FE1B4C206808F073FC0022DC
:101660001D4B07F065FA07F079F92060F8BD08F026
:1016700069FC04000D00154A154B07F0B9FD060082
:101680000F00124A134B2000290007F0B1FD07F0AC
:1016900065F984B23000390007F060F980B20022A9
:1016A0002100FFF7F9FDD6E7002200210020FFF717
:1016B000F3FD044B00221A60084A1388013313809B
:1016C000D4E7C046B40A0020000034409A999999A2
:1016D0009999E93F9999D93F00001440BA0A00202E
:1016E00010B5244B1868142828D908F02BFC0022C8
:1016F000214B08F03FF807F031F913282CD808F0F7
:1017000021FC02000B0000201B4908F033F81B4AA3
:101710001B4B07F06DFD07F021F980B2020000219C
:10172000FFF7BAFD134C206808F00CFC0022154BA3
:1017300007F0FEF907F012F9206010BD08F002FC76
:101740000E4A0F4B07F054FD07F008F980B2020073
:101750000021FFF7A1FDE5E7002200210020FFF7AF
:101760009BFD044B00221A60074A13880133138043
:10177000E3E7C046B40A0020000034409A999999E2
:101780009999E93F00001440BA0A002010B51E4B99
:101790001868142824D908F0D5FB00221B4B07F049
:1017A000E9FF07F0DBF8132820D808F0CBFB020094
:1017B0000B000020154907F0DDFF07F0CFF880B2DD
:1017C00000220021FFF768FD0F4C206808F0BAFBEB
:1017D00000220F4B07F0ACF907F0C0F8206010BDF5
:1017E00080B200220021FFF757FDEDE70022002123
:1017F0000020FFF751FD044B00221A60054A1388B0
:1018000001331380EBE7C046B40A002000003440E7
:1018100000000840BA0A002010B51E4B18681428B2
:1018200024D908F08FFB00221B4B07F0A3FF07F021
:1018300095F8132820D808F085FB02000B00002043
:10184000154907F097FF07F089F881B200220020C0
:10185000FFF722FD0F4C206808F074FB00220F4BAD
:1018600007F066F907F07AF8206010BD81B2002217
:101870000020FFF711FDEDE7002200210020FFF717
:101880000BFD044B00221A60054A138801331380B4
:10189000EBE7C046B40A00200000344000000840D6
:1018A000BA0A002010B51E4B1868142824D908F075
:1018B00049FB00221B4B07F05DFF07F04FF8132890
:1018C00020D808F03FFB02000B000020154907F06C
:1018D00051FF07F043F882B200210020FFF7DCFC43
:1018E0000F4C206808F02EFB00220F4B07F020F968
:1018F00007F034F8206010BD82B200210020FFF70D
:10190000CBFCEDE7002200210020FFF7C5FC044BD3
:1019100000221A60054A138801331380EBE7C046A2
:10192000B40A00200000344000000840BA0A002039
:10193000F8B5334B1868142837D908F003FB002298
:10194000304B07F017FF07F009F813284AD808F0C2
:10195000F9FA02000B0000202A4907F00BFF0400EF
:101960000D00294A294B07F043FC06000F00264AC8
:10197000274B2000290007F03BFC06F0EFFF84B264
:101980003000390006F0EAFF80B200222100FFF7A4
:1019900083FC1B4C206808F0D5FA00221D4B07F091
:1019A000C7F806F0DBFF2060F8BD08F0CBFA0400B2
:1019B0000D00154A154B07F01BFC06000F00124ADC
:1019C000134B2000290007F013FC06F0C7FF84B278
:1019D0003000390006F0C2FF80B200222100FFF77C
:1019E0005BFCD6E7002200210020FFF755FC044BEA
:1019F00000221A60084A138801331380D4E7C046D6
:101A0000B40A0020000034409A9999999999E93FC5
:101A10009999D93F00000840BA0A002010B5244B1C
:101A20001868142828D908F08DFA0022214B07F0F5
:101A3000A1FE06F093FF13282CD808F083FA0200C9
:101A40000B0000201B4907F095FE1B4A1B4B07F0BB
:101A5000CFFB06F083FF80B202000021FFF71CFCE1
:101A6000134C206808F06EFA0022154B07F060F85E
:101A700006F074FF206010BD08F064FA0E4A0F4BA8
:101A800007F0B6FB06F06AFF80B202000021FFF704
:101A900003FCE5E7002200210020FFF7FDFB044BDB
:101AA00000221A60074A138801331380E3E7C04617
:101AB000B40A0020000034409A9999999999E93F15
:101AC00000000840BA0A002010B5BB4B1B681A2B57
:101AD00000D94DE29B00B94AD3589F46B84B01222A
:101AE0001A70B84B00221A80B34B1A60FFF7ECFB58
:101AF00010BDB44B1B88013B9BB2022B0BD9B14BE1
:101B00001B88032BF4D9AF4B00221A80AA4B1A6012
:101B1000FFF7DAFBECE7FFF7C5FEF0E7A94B1B8800
:101B2000013B9BB29622520093420DD3A54B1A88DB
:101B300096235B009A42DBD9A24B00221A809E4B6F
:101B40001A60FFF7C1FBD3E7FFF7ACFEEEE79D4B52
:101B50001B88013B9BB2022B0BD99A4B1B88032B92
:101B6000C6D9984B00221A80934B1A60FFF7ACFB42
:101B7000BEE7FFF7ABFCF0E7924B1B88052BB7D80D
:101B80009B00914AD3589F46FFF7A0FCB0E7FFF7B0
:101B9000DBFBADE78B4B00221A80874B1A60FFF707
:101BA00093FBA5E7874B1B88013B9BB2022B0CD90B
:101BB000844B1B88032B00D89AE7824B00221A80A3
:101BC0007D4B1A60FFF780FB92E7FFF7C9FCEFE758
:101BD0007C4B1B88013B9BB2022B0CD9794B1B8899
:101BE000032B00D884E7774B00221A80724B1A60CF
:101BF000FFF76AFB7CE7FFF7B3FCEFE7714B1B884D
:101C0000052B00D974E79B00704AD3589F46FFF715
:101C1000A7FC6DE7FFF798FB6AE76A4B00221A8082
:101C2000654B1A60FFF750FB62E7664B1B88013B70
:101C30009BB2012B0CD9634B1B88022B00D857E7B2
:101C4000604B00221A805C4B1A60FFF73DFB4FE7A8
:101C5000FFF76EFEEFE75B4B1B88013B9BB2022B4D
:101C60000CD9584B1B88032B00D841E7554B002259
:101C70001A80514B1A60FFF727FB39E7FFF7BAFCD0
:101C8000EFE7504B1B88052B00D931E79B00504AEA
:101C9000D3589F46FFF7AEFC2AE7FFF755FB27E72F
:101CA000484B00221A80444B1A60FFF70DFB1FE7D8
:101CB000444B1B88013B9BB2012B0CD9414B1B8829
:101CC000022B00D814E73F4B00221A803A4B1A60CF
:101CD000FFF7FAFA0CE7FFF79FFDEFE7394B1B8898
:101CE000013B9BB2022B0CD9364B1B88032B00D82F
:101CF000FEE6344B00221A802F4B1A60FFF7E4FAFD
:101D0000F6E6FFF799FBEFE72E4B1B88013B9BB2F2
:101D1000022B0CD92B4B1B88032B00D8E8E6294B50
:101D200000221A80244B1A60FFF7CEFAE0E6FFF794
:101D30000BFBEFE7234B1B88013B9BB2092B0CD914
:101D4000204B1B880A2B00D8D2E61E4B00221A809B
:101D5000194B1A60FFF7B8FACAE6FFF7F5FAEFE792
:101D6000184B1B88013B9BB2092B0CD9154B1B88C8
:101D70000A2B00D8BCE6134B00221A800E4B1A60C7
:101D8000FFF7A2FAB4E6FFF7DFFAEFE70D4B1B8887
:101D9000013B9BB21D2B0CD90A4B1B881E2B00D874
:101DA000A6E6084B00221A80034B1A60FFF78CFA54
:101DB0009EE6FFF733FEEFE7800A002018B100002F
:101DC000B4060020BA0A002084B100009CB10000D3
:101DD000B4B100006D4B1B88013B9BB2022B0CD9A8
:101DE0006A4B1B88032B00D882E6684B00221A80BE
:101DF000674B1A60FFF768FA7AE6FFF71DFBEFE71B
:101E0000624B1B88013B9BB2022B0CD95F4B1B889A
:101E1000032B00D86CE65D4B00221A805C4B1A60E5
:101E2000FFF752FA64E6FFF7B1FCEFE7574B1B8868
:101E3000013B9BB2312B0CD9544B1B88322B00D861
:101E400056E6524B00221A80514B1A60FFF73CFABB
:101E50004EE6FFF745FCEFE74C4B1B88052B00D9FE
:101E600046E69B004B4AD3589F46FFF739FC3FE6B6
:101E7000FFF76AFA3CE6454B00221A80444B1A6091
:101E8000FFF722FA34E6444B01221A703F4B1B88BD
:101E9000013B9BB2022B0CD93C4B1B88032B00D877
:101EA00026E63A4B00221A80394B1A60FFF70CFAEB
:101EB0001EE6FFF749FAEFE7374B00221A70334B63
:101EC0001B88013B9BB2022B0CD9304B1B88032B88
:101ED00000D80DE62D4B00221A802D4B1A60FFF71B
:101EE000F3F905E6FFF7A8FAEFE7284B1B88013B5B
:101EF0009BB2012B0CD9254B1B88022B00D8F7E590
:101F0000224B00221A80224B1A60FFF7DDF9EFE521
:101F1000FFF764FAEFE71D4B1B88013B9BB2022BD6
:101F20000CD91A4B1B88032B00D8E1E5174B002274
:101F30001A80174B1A60FFF7C7F9D9E5FFF74EFA79
:101F4000EFE7124B1B88052B00D9D1E59B00134A04
:101F5000D3589F46FFF7F8F9CAE5FFF76DFAC7E5D2
:101F60000A4B00221A800A4B1A60FFF7ADF9BFE551
:101F70000B4800F03AF9064C206800F035F90948A2
:101F800000F033F900232360B2E5C046BA0A00200E
:101F9000800A0020CCB10000B4060020E4B10000AB
:101FA000E4B0000060B0000010B5074B1B78002BB8
:101FB00005D1002201000020FFF76EF910BD0022BC
:101FC0000021FFF769F9F9E7B406002070B50B4C62
:101FD00010262664FA256D00280006F013FA6664C0
:101FE00010362664280006F00DFA6664044C1E3E86
:101FF0002664280006F006FA666470BD00020440FC
:102000000004044010B56E4B1B7B002B00D16EE02A
:102010006B4A1288642A00D169E0694BDA89694BFE
:102020001B889A420BD8664B59689A68072A00D9D0
:1020300001BE012393404B64614B00221A73624B33
:102040001B7B002B00D16DE05F4A1288642A00D10F
:1020500068E05D4BDA895B4B1B889A420BD85A4B80
:1020600059689A68072A00D901BE012393404B643E
:10207000554B00221A73554B1B7B002B00D16BE094
:10208000524A1288642A00D166E0504BDA894D4BDF
:102090001B889A420BD84D4B59689A68072A00D979
:1020A00001BE012393404B64484B00221A73454AFA
:1020B0001388FA2189008C4663449BB21380444AFA
:1020C000934200D162E03E4B1B88002B07D13E4B70
:1020D0001B88002B03D13D4B1B88002B5AD03D4B56
:1020E00001221A70FA20800000F02AF910BD002B9E
:1020F000A5D1334B1B88002B00D1A0E7304BDA89E8
:10210000304B1B889A4200D299E72D4B59689A6848
:10211000072A00D901BE0123180090400864284A0C
:1021200013738CE7002BA6D1274B1B88002BA2D062
:10213000254BDA89234B1B889A4200D29BE7224B1E
:1021400059689A68072A00D901BE012318009040F7
:1021500008641D4A13738EE7002BA8D11B4B1B8804
:10216000002BA4D0194BDA89164B1B889A4200D257
:102170009DE7164B59689A68072A00D901BE0123CA
:10218000180090400864114A137390E70D4B002229
:102190001A8098E70B4B00221A800E4B1A700E4BD8
:1021A0001B78012B03D00D4B1B68002B03D00C4870
:1021B00000F0C6F89AE70B4800F0C2F896E7C04670
:1021C000E00A0020B80A0020D00A0020C00A00203F
:1021D000204E0000BC0A00204C060020800A00208F
:1021E00050C30000400D030070477047014B188832
:1021F00080B27047F60A0020014B00221A80704717
:10220000F60A0020014B188880B27047F20A0020BD
:10221000014B00221A807047F20A0020014B1888F7
:1022200080B27047F00A0020014B00221A807047EC
:10223000F00A002010B5044B186C044B1B68C01842
:1022400080B206F025FA10BD00000340F80A002015
:1022500010B506F03FFA264AD36C01218B43D364B4
:10226000244B1B78002B17D0FFF7CCFE224A138893
:10227000FA2189008C4663449BB213801F4A934223
:1022800012D91D4B00221A801D4A13780133137096
:102290001C4B01221A7007E0194B03221A70194BCC
:1022A000023A1A70FFF7C6FF154B1B78032B05D0B7
:1022B0000F4AD36C01210B43D36410BD104B002295
:1022C0001A70FEF79BFB00280FD10F4A13880133C9
:1022D0009BB213800D4A138801339BB213800C4AC2
:1022E000138801339BB21380E2E7FFF7EDFBECE7C5
:1022F00000000340BC0A0020F40A0020E34D000067
:10230000B50600208C060020F00A0020F20A00200A
:10231000F60A002010B582B004000023019301A941
:1023200005F004FE002807D0A0000019C000FA2123
:10233000890006F039FA0190019802B010BD000042
:1023400010B5FFF7E7FF054B1860054AD06B1B6817
:10235000C01880B206F09CF910BDC046F80A0020F3
:102360000000034010B5002006F0A2F9194B1B6CC9
:102370001B0C1B0700D001BE06F0ACF9154AD16A50
:1023800080231B060B43D362022006F03BF8124861
:10239000FFF7D6FF1149124805F0E2FF002800D0F0
:1023A00001BE104B20221A600A4BDA6C01210A434D
:1023B000DA6400229A639A6B0B4B9A4204D006F0BF
:1023C00045F8012802D010BD01BEF8E70748FFF725
:1023D0000CFFF8E70000034050C30000512200004A
:1023E00038B2000000E100E06588EDACFCB100000F
:1023F0000230800803D001300238FCD1C046C0460C
:102400007047EFF3108072B6704780F31088704702
:1024100070B5050004F0B1FB041E01D0200070BDB2
:10242000280000F097FE280004F0B2F904436B681E
:10243000DB79002BF2D1280004F0AEFC280000F07C
:10244000F6FF6B680122DA71E8E70000F8B50500D5
:102450004268916880231B020B439360FFF7D8FF0B
:10246000041E0CD0280000F0FFF9280000F08CF9C1
:102470006A6893681A490B4093602000F8BD2800F1
:1024800004F0E6F920430700280002F0F6FA0743BB
:10249000280004F075F80743280002F0DAFA074331
:1024A0002B6818680F4906F07FF9010005220D48D6
:1024B00002F0F6FB0600280002F0D5FA00280AD048
:1024C000002E01D0013EF6E7042704E02900200099
:1024D00000F074FF0134082CF8D93C00C2E7C04674
:1024E000FF7FFFFF40420F0070B504000E00082878
:1024F00024D8CD688C234343ED187B23EB5C072B5A
:1025000001D101241BE004F0DFFB002801D10824E5
:1025100015E03100200000F051FF3100200000F0F4
:1025200039FE04007A23EB5C012B02D001231C430B
:1025300005E03100280000F013FF00E00124200036
:1025400070BD70B505000026092300E023005C1E65
:10255000002B13D02900200004F0B6FB0028F5D092
:10256000EB688C2262439B187B229B5C072BEDD08F
:1025700029002000FFF7B8FF0643E7E7300070BDF1
:1025800010B5040003689B6818685A681378002B1C
:1025900001D0802010BD022104F0AEFC002801D043
:1025A0000820F7E72100013003F01EF9F2E710B52B
:1025B000FFF7E6FF10BD0000F8B5051E00D18EE064
:1025C00082680023742153540131535413605360C3
:1025D000D3609360C3681B68002406E02320195C65
:1025E0000626314319543C330134082CF6D9002314
:1025F000D3613C49D1622E6853614C2153541D393B
:10260000705C283150542A39705C2B315054273972
:10261000705C28315054F18A1186318B51863421F7
:10262000705C1F3150541E39705C1F3150542E495C
:1026300091874E2153544F33B131D1540133713905
:10264000D15401338D39D154EB681B68002101E06E
:102650003C330131082910D89888002804D123245C
:10266000185D082738431855D8880028F0D123244E
:10267000185D102738431855EAE7F18B4023D152F3
:10268000B38BD387718C4423D152318C023BD1520E
:10269000413B722153542539032050540D3153547A
:1026A000013153540131535401310330505401313D
:1026B00002385054013106305054013153540B4B01
:1026C00053624A236831D1522900002003F08CF86C
:1026D000002800D0F8BD2800FFF769FFFAE70120C5
:1026E000F8E7C0468F0200004C080000400D0300D0
:1026F00010B54988C94389B212888A420BD0232178
:10270000425C0424A24342541A6A936821390B4361
:102710009360022010BD0020FCE7002303720288B2
:102720004280C3717047F8B50E00D5688C234343CF
:10273000ED180027002F00D0F8BD6868B400A41978
:1027400064000019FFF7E9FF6B681B195A88696973
:102750007300D243CA520137ECE770B505000E0092
:10276000CB688C2242439B187B229A5C072A0AD0B2
:102770001B8F05E0320021002800FFF7D4FF230063
:102780005C1E002BF6D170BD70B50500092304E076
:1027900029002000FFF7E1FF23005C1E002BF7D18A
:1027A00070BD09881180002B08D07422825A8021C4
:1027B0008900C020800002408A4200D07047002279
:1027C0001A70FBE7F0B5DE4657464E464546E0B583
:1027D00083B00191CD688C234343ED187423EB5AE9
:1027E00099467B23EB5C072B08D00F234A461A40FF
:1027F000904600239A460026002E31D003B0F0BC4C
:10280000BB46B246A946A046F0BD53462800FFF796
:10281000C8FF01342B8FA34224D96968019B1B6830
:10282000DA897243121993009A1852008918F0003D
:1028300043466343C318EA695B00D2184B461B0644
:10284000E7D57423EF5A8D33FF339C460133FF33B2
:102850001F406745D9D12B6A00199A468244D4E7B4
:102860003400D7E70136C7E770B50500092304E057
:1028700029002000FFF7A6FF23005C1E002BF7D1E4
:1028800070BD504380235B009B1A59434018000AD7
:102890007047F0B5C64600B582B005000C001700C1
:1028A0009846FFF725FF061E2ED1208861888842B2
:1028B00001D30023E371AB8B01901B1899420AD915
:1028C000E379AA89934202D20133E37119E020002F
:1028D000FFF723FF15E043461A682823D35C002B3B
:1028E00004D16B8BCB18019A9A420AD80902237A39
:1028F00019432223EA5C0002FFF7C3FF030A638047
:1029000020726388DB433B80300002B080BCB84655
:10291000F0BDF8B506000C0015001F007423C35A63
:1029200080229200C02189000B40934208D0208869
:102930002988726AFFF7A5FF80B228802080F8BD41
:10294000208800022B881B0239781943726AFFF72E
:1029500098FF030A9BB22B8038702380EFE710B5F5
:102960007424045B240600D410BDFFF7D2FFFBE7FC
:10297000F0B58FB0060087683C006334456A703557
:1029800023493822684607F0B7FC002302E0FF2203
:10299000E25401330D2BFAD968230022FA54B268AD
:1029A0000C33D35C012B0BD0022B12D16422BA5C06
:1029B000FF2A01D001230DE09B3A0121B95409E01F
:1029C0006322BA5CFF2A05D16323FE3AFA54613BC5
:1029D00000E001236B22BA5CFF2A04D0B1686222B6
:1029E0008B54002305E0943ABB540133DBB2F5E786
:1029F00001330D2B08D8E25CFF2AF9D09200990030
:102A000068460958A950F3E700200FB0F0BDC04652
:102A100040B2000070B51568854315605468844362
:102A200054609368834393604E0701D50543156056
:102A30008D0701D504435460C90701D50343936052
:102A400070BD0000F0B5068843889C46D0688C2392
:102A50007343C0187A23C45C9568176933019B1BC4
:102A60009B00FB189B8E002B00D0013B1B04254FC5
:102A70003B40CF683B43CB60012C14D0022C21D0CB
:102A80000A2C24D08023DB0352689268D20407D436
:102A9000012C23D005682E22AA5C1343012C26D0DA
:102AA0000B610020F0BD5A23EB5C012BE6D10568D9
:102AB0003123ED5C2D07E023DB051D40C0231B0403
:102AC0002B43E1E75B23EB5C012BD9D1EFE75C23E0
:102AD000EB5C012BEBD08023DB03D5E73A22825C51
:102AE0006245D7D805682F22AA5C1343D6E7406811
:102AF00062469200624452008218527A12021343D4
:102B0000CEE7C0460000FF0FF0B5446A2B4B220011
:102B100090321900E0C9E0C2E0C9E0C20968116062
:102B2000043219001C31E0C9E0C2E0C9E0C2096802
:102B300011600432383362CB62C262CB62C21B685E
:102B4000136082685A23D35C012B0FD082685B2309
:102B5000D35C012B15D082687523D35C052B1BD069
:102B600082685C23D35C012B1DD0F0BD134B220087
:102B70009032543362CB62C262CB62C21B68136074
:102B8000E4E70E4B2200AC32703362CB62C262CB00
:102B900062C21B681360DEE72200AC321169FB33AE
:102BA0000B431361DCE7054BC8348C3307CB07C4F8
:102BB00007CB07C41B682360D7E7C04678B2000084
:102BC000F0B5DE4657464E464546E0B5C1B0040076
:102BD000856880235B009B461A000021684607F049
:102BE0005FFB5E4A009280204005019031239A46A7
:102BF000059380235B0299460793F0231B019846B7
:102C00000A930223FF339C460C93554E189619964F
:102C10001A96636A1A60586000219960D960196138
:102C200057465F6199614F46DF6147469F6267463D
:102C30001F639963D96319649964D96419655965E7
:102C40009965D9651E665E669E66D9667131695C56
:102C50000904C026B60231400A431A6021683722AF
:102C6000895C303A0A4010435860216838228A5CF7
:102C7000120259460A40104358604422AA5A002AB8
:102C800067D0120241460A409A604221685A0028E1
:102C900062D0BD3101400A439A6020683621415C10
:102CA00009038020400101400A439A602A8E1205E0
:102CB000120DDA60698E09042A4801400A43DA607D
:102CC0005322AA5C5A61A1684D228A5C9A61A0686D
:102CD0004021415A0904F020000301400A439A614F
:102CE000A168C98F0902F826760131400A439A612A
:102CF000A1688A8F1205120D4E26895D09040140D4
:102D00000A431A62802252045A62A1684F228A5CE6
:102D10005020095C09040A43DA625422AA5C1202B8
:102D20009A6206215964A0685122825C013A120419
:102D30000D4802400A435A642000FFF7E5FE2000D8
:102D4000FFF716FE41B0F0BCBB46B246A946A0460E
:102D5000F0BD8022520097E701219CE7110010008E
:102D6000230032000000FF0F0000FF0310B5040035
:102D7000100003230B40022B00D010BD012C03D008
:102D80000A2C01D05008F8E78008F6E7F0B5DE46D7
:102D900057464E464546E0B583B0844615001A00B6
:102DA0009B689946002842D1106B8B00C018D368ED
:102DB00007888C247C431B1916693C01E41BA40082
:102DC00036197A241C5DA346A0466446012C32D0F5
:102DD00084241C5D013CA4038027FF013C40B78D87
:102DE000BC4601277F42B946CC446746BF04BF0CAE
:102DF0003C43EC603727F75D3F073C43EC603227EC
:102E0000F75D012F00D172E02900FFF71BFE041EC1
:102E100005D1F2894346012B00D172E00124200044
:102E200003B0F0BCBB46B246A946A046F0BD506B0D
:102E30008B00C018BBE75F344F463C5D0F2727402F
:102E4000BC465D244F463C5D2401A246FF24574604
:102E50003C4067463C4301945E27BC464F4664466F
:102E60003C5D2402A446F0242401674627403C0030
:102E7000019F27430197B7893F04BC46FC27BF0346
:102E8000BA466746544627403C00019F2743BA464E
:102E90005F27BC464F4664463C5D240657462743A1
:102EA0002F60748BB78B3F043C436C603489A2461F
:102EB0002027F75D3F04BC46E027FF02B94667467E
:102EC0004C4627403C00574627433C005F46012FB5
:102ED0000AD080277F04BC4667463C43AC60002490
:102EE000EC602C61143573E70027BC46F4E77F37AC
:102EF000DB5B8B4200D187E780231B022343EB601F
:102F000082E72033F35C984619005846FFF72EFFFE
:102F100001383023F35C013B1B061B0C0004084AFC
:102F20001040034342461207C02189050A4013435B
:102F30003622B25C92071343032213436B616EE7A0
:102F40000000FF0FF0B5DE4657464E464546E0B559
:102F500089B082460C0048698B68049300270021E1
:102F600005E04279012393401F4308300131226874
:102F700093898B42F5D8A069002105E045790123AA
:102F8000AB401F43083001312C23D35C8B42F5D872
:102F90007523049AD35C022B06D0052B20D0632323
:102FA000049AD35C079303E06423049AD35C0793E9
:102FB0006423049AD35C05937423D35C022B19D049
:102FC000042B12D16733D35C06935346012B14D0E4
:102FD000A66A236B0393082302930025B94629E0D0
:102FE0006D23049AD35C0793E2E76323049AD35CCE
:102FF0000693EAE7059B0693E7E7E66A636B0393AC
:1030000053460293E9E7079B019301E0069B019376
:103010005346012B2CD0320001994846FFF7FAFCA9
:1030200022682C23D15C002924D14346012B3DD0BA
:1030300018360135029B9D4253D2230032002900ED
:103040005046FFF7A3FEAB00039A944663445A88A8
:1030500093461A88E7688C235343FF187A23FB5C56
:103060009846012BD2D0022BCDD0059B0193CFE700
:103070001436D0E74346012B03D000200023AC4692
:103080000CE06A33049AD35C0193F6E7A269DD0091
:10309000521955790122AA40104301339942F5D8BB
:1030A000654632000199FFF7B5FCBEE76733049A25
:1030B000D35C9C46BF685B46DB00FF180020002302
:1030C00007E03A68D9005218517901228A4010432A
:1030D00001337A799A42F4D832006146FFF79AFCBC
:1030E000A6E709B0F0BCBB46B246A946A046F0BD73
:1030F00070B5CA688C235843101806684368028F5D
:103100007B21415C072917D02324315D0125A94388
:103110003155110005E099790325A94399710A33C6
:1031200021004C1E0029F6D17B23C35C042B04D064
:10313000062B08D0012B00D070BD806A2023F15CE3
:1031400007F0AEF8F8E7806A2023F15C520007F040
:10315000A7F8F1E770B505004268936806490B408F
:103160009360092304E029002000FFF7C1FF23003A
:103170005C1E002BF7D170BDFFFBFFFF10B50023D5
:103180008B800A884C88438BE3189A4201D9121B22
:103190008A8010BDF0B5DE4657464E464546E0B53E
:1031A00083B08B46CD688C234343ED187423EB5AD0
:1031B0000F221A4000920026002301939A4649E00C
:1031C0006C685B461B68DB8901994B439A00D218F7
:1031D0005200A4186A695B0090469844EF690B019D
:1031E000FF187423EB5A80229200C02189000B4003
:1031F000934205D0019B99463B004F46994605E016
:103200002E6A019BDB00F618F4E701372B8FBB42D7
:103210001DD933004A4621002800FFF7A0FB28688B
:103220005B4642462100FFF734FB534603439A4670
:1032300028682100FFF7A2FF0A3402239C46E044DD
:10324000009B5B009944002EDFD00136DDE7019B37
:1032500001330193019B002BB2D0504603B0F0BC68
:10326000BB46B246A946A046F0BDF0B5826A4368A7
:1032700004682325615D0126B1436155002606E0FF
:103280002189E58B491B0BE00A3301320136018F9E
:10329000B14220D999790029F2D12189E58B4919C8
:1032A0001578002D01D0013D15709D888D4204D800
:1032B0002021615C1170002199711178002901D1E0
:1032C0000131997199790029DED02325615D0127AB
:1032D00039436155D8E7F0BDF0B5816A43680568A8
:1032E00023242A5D0126B2432A55002227E0022624
:1032F0009F793E4230D1EF8B3C190F78002F01D0DF
:10330000013F0F709F88A74205D820242C5D0C70C8
:103310009C79B4439C710C78002C02D19C79344385
:103320009C719C79264204D02326AC5D01273C4346
:10333000AC556446002C00D00A3301310132048FB1
:10334000640094420BD92C89012637001740BC46F3
:103350001642CCD16C89CBE7EF8BE41BCDE7F0BDF7
:1033600010B57B23C35C012B02D0062B03D010BD0C
:10337000FFF77BFFFBE7FFF7AFFFF8E710B5CB6880
:103380008C2250431818436802689488002208E091
:103390003931415C91420BD80168CC8808E00A338E
:1033A0000132018F914208D97A21415C0129EFD085
:1033B0001988A142F3D91C80F1E710BD10B5CB6884
:1033C0008C2242439B187B229B5C072B00D110BDB3
:1033D000FFF7D4FFFBE730B5D3688C2250431818B1
:1033E00042688B005B185B00D3180468A2887A25BA
:1033F000455D012D04D01988914200D91A8030BD55
:103400003935405D8842F6D8E288F4E710B5D368D4
:103410008C2444431B197B241B5D072B00D110BD5A
:10342000FFF7D9FFFBE710B501F02EFA10BD10B57C
:1034300001F0E8FA10BD000003689B6819682B4B87
:103440000B6000234B60802252058A60284ACA60C4
:103450000B614B618B61CB610B624B628B620B63C7
:103460004B630222FF328A630B650B674B67813A1D
:103470000120885004321F488850BC328B50C03223
:103480008B5004321C48885004328B5004328B50CD
:1034900014328B5005E01A00C032920000205050C8
:1034A0000133122BF7D9002305E05A1CFF3292009A
:1034B000002050500133072BF7D90023A022D2005F
:1034C0008B500E4A8B50FC328B500D4A8B5004327D
:1034D0000C4888500C4A0D48885004320C488850DB
:1034E0000C4A8B5004328B507047C04611001000BC
:1034F0000111000006000300230032000405000053
:1035000004060000140900010C0600001000400031
:10351000000401871406000010B50B6A0922DA6264
:103520000A6A30230024D454012801D0052802D18E
:103530000B6A0E22DA62042800D010BD0A6A30231A
:103540000130D0540A680333D35C022BF5D10B6AE7
:103550000E22DA62F1E70000F0B5C1B0040080226B
:1035600052000021684606F09BFE4B4B00938023DF
:103570005B0501933123059380235B020793F023BE
:103580001B010A930223FF330C93444B18931993A6
:103590001A9323689B681868236ADB8B012B63D01E
:1035A000013B1B043E4A13401193216ACB8E002B32
:1035B0005DD01B0202930B8F03934A8F12041343B7
:1035C0000393A2685323D35C31221343059348230A
:1035D000CB5C8A8F1204134306938223DB051C9372
:1035E0008023DB051D932F4B1E9301231F938333F1
:1035F0002D4A6946CA5008332C4ACA502268593BA2
:10360000D35C012B37D08823294A6946CA50294BFD
:1036100024AA1900E0C9E0C2E0C9E0C2096811604B
:103620002BAA19001C31E0C9E0C2E0C9E0C2096858
:10363000116032AA383362CB62C262CB62C21B68AD
:103640001360236A5A78062A19D023689B685B683E
:103650000222694603F068FC200002F01BF81920E2
:1036600004F0EAFE41B0F0BD134A009298E78023CF
:103670005B0002939FE78733104ACA50C7E7463280
:103680009A5C012AE1D022229B5C012BDDD0BC2375
:103690000B4A6946CA50D8E71100100023003200D7
:1036A0000000FF03000006080A00020400010040B9
:1036B0000000080920B3000011001001000A0204F4
:1036C0000001018730B583B01C001B6A1D7885425C
:1036D0000ED01870256A2223E954216A2A33CA546D
:1036E000032825D004283FD002280AD003B030BDDB
:1036F00022255D5D8D42ECD14C255D5D9542E8D182
:10370000F4E72000FFF728FF0094012300220021A6
:10371000092001F097FB230001220021092001F07C
:10372000CAFB230001220021092001F071FBDDE723
:1037300000940023002200210E2001F083FB2300CF
:10374000002200210E2001F0B6FBE36900225A7529
:10375000230000210E2001F05BFB2000FFF76CFE30
:10376000200001F097FFC1E7009400230022002110
:10377000092001F067FB230000220021092001F04D
:103780009AFBE36900225A7523000021092001F009
:103790003FFB2000FFF750FE200001F07BFFA5E774
:1037A00070B505000C00FEF72CFE2A682B79072B5C
:1037B00000D901BE012C00D901BE002C05D1012188
:1037C00099405164FEF721FE70BD012199401164BA
:1037D000F8E770B506000D00140013000422002164
:1037E00003F0B6FA226A9368190708D408210B433C
:1037F0009360226A2523D654226A0133D55470BDC2
:10380000F0B5C64600B586B005000C000B689B6895
:103810001E6800230093019302930B6A4022904696
:103820009A5A013A80231B0213430393174B0493C4
:10383000174B0593684601F06FFF236A42469A5A78
:1038400093009B181803C01A192104F0ADFF210042
:1038500001F08AFF002812D0C8239B01F758FB0310
:103860000FD43F043F0C002033685B005B083360DB
:10387000002808D12F6006B080BCB846F0BD0720F4
:10388000F2E70520F0E700232B60F4E7FA004000A0
:103890000000FF0FF8B505000F0011000023002005
:1038A00007E02C68DE00A41966790124B4402043A7
:1038B00001336C799C42F4D83A00FFF7ABF8F8BDBD
:1038C000F0B5D6464F464646C0B5060015005069CD
:1038D00000290ED1126B2B6A5B8E9B00D118D25A35
:1038E0004B889846EF688C235343BA469A4400238A
:1038F00006E0526BEFE79A00B21800211160013325
:10390000052BF8D92A6A4923D25C8023DB031343B1
:1039100033612A6A4C23D45C012C1AD02E335146D1
:10392000CB5C012B13D00121138C022C13D0013B53
:10393000928E013A9204920C1B04494C23401A4384
:10394000F26089010B437361002400210CE0002127
:10395000EAE70021E8E78023DB00E8E7427901237A
:1039600093401C43083001312A6893898B42F5D873
:10397000A869002105E047790123BB401C430830BA
:1039800001312C23D35C8B42F5D82B6A5B78042B56
:1039900026D0062B26D0022B20D00021320020007A
:1039A000FFF738F82A6A4C23D35C022B1CD0012B7A
:1039B00004D07A215046415C012930D1012B2CD012
:1039C000534698684346DB00C01805223100FFF7D4
:1039D00061FFE0BCBA46B146A846F0BD0121DDE773
:1039E0000621DBE70721D9E75378042B0FD0002409
:1039F000002307E0AA69D9005218517901228A40B0
:103A00001443013329682C228A5C9A42F2D832008E
:103A100005212000FEF7FEFFDBE7906AD5E784680A
:103A20003B239946C15C404604F0BEFEC00020180E
:103A300003223100FFF72EFF53469D683A2352467A
:103A4000D45C53464A46995C404604F033FF641800
:103A5000E000281802223100FFF71CFFB9E7C0463A
:103A60000000FF0FF8B50400036ADD8B002D00D1C4
:103A70000135188C9A8E0023002104F041FF0200CA
:103A80000B002800002104F03BFF05000E00192266
:103A9000002304F015FF02000B00002E04D101D119
:103AA000182D01D80122002316001F00B6185F410F
:103AB000B6185F4123681868044904F075FE0100D8
:103AC0000522300001F0ECF8F8BDC04640420F007E
:103AD000F0B5C64600B586B00500140013689B68B3
:103AE0001E68126A49236420D05422006846FFF7FA
:103AF000E7FE2100684601F00FFE2000FFF7B2FF4D
:103B0000210001F031FE002826D0C8239B01F75880
:103B1000FB0324D43F043F0C0023984633685B002A
:103B20005B0833604346002B1CD110487843246A5D
:103B3000A18E04F039FE4923E45C44436421200053
:103B400004F032FE0A4B9C4200D90A4828604046E5
:103B500006B080BCB846F0BD07239846DEE70523D3
:103B60009846DBE700232B60F1E7C04676030000B0
:103B7000632D3101400D0300F0B5CE46474680B5B8
:103B800087B0140013689B681F68002954D1126B1A
:103B90008300D018D25A43889946E5688C23534352
:103BA000ED18236A4C229A5C022A47D07A22AA5C3A
:103BB000022A47D049226420985422006846FFF721
:103BC0007FFE2100684601F0A7FD2000FFF74AFFB5
:103BD000210001F0C9FD002838D0C8239B01FE5800
:103BE000F30336D43604360C002398463B685B005A
:103BF0005B083B604346002B18D11B487043266A84
:103C0000B18E04F0D1FD4923F45C444364212000CB
:103C100004F0CAFD4C23F35C022B1DD0134B9C42D5
:103C200000D913482A694B469B00D050404607B044
:103C3000C0BCB946B046F0BD526BA9E74732C820B8
:103C40009854BAE7473232209854B6E7072398468B
:103C5000CCE705239846C9E7064B9C4200D90648A5
:103C6000F3681860E2E7C04676030000632D310177
:103C7000400D030063688909006A1800F8B5060062
:103C80000C00FEF7BEFB35683179072900D901BE6B
:103C90000F2322009A4300D001BE4E007618AA6876
:103CA00007231F00B740BA432340B3401343AB6020
:103CB000AA6901231E008E40B243E40823408B40D2
:103CC0001343AB61FEF7A1FBF8BDF0B5D6464F46F6
:103CD0004646C0B515001F00DB688C2242439B1886
:103CE0009B68C90059180C68002D05D0032399461C
:103CF0004B79984600260EE002239946F8E7290002
:103D00002000FFF74DFD0E212000FFF7B7FFAA4569
:103D100026D00834013646451CD2012169402000D6
:103D2000FFF73EFD49462000FFF7A8FF3A6A24232B
:103D3000D05C04F081FB22682379082B00D901BEF6
:103D40005068D84001231A00024092460342D6D060
:103D50009A46D4E70020E0BCBA46B146A846F0BD7A
:103D60000F20F8E7F8B5CE46474680B506000F00AD
:103D700090461D00DB688C22424391464B447A22D8
:103D80009A5C022A0BD02B004246FFF79EFF0400EC
:103D9000002C22D12000C0BCB946B046F8BD393253
:103DA000995C380004F000FD01002B004246300011
:103DB000FFF78BFF041EEBD1EC684C443B23E15C26
:103DC000380004F077FD3A23E35CC9182B00424623
:103DD0003000FFF77AFF0400DAE72A0039003000EC
:103DE000FFF7F7FCD6E770B505000C1E22D00A6875
:103DF0002423D35C834201D8012070BD02F00EFF62
:103E0000236A9A6969008A5A824215D09A68D20751
:103E100008D49883226A2323D554226A9368012107
:103E20000B439360230004220021280002F090FF3E
:103E30000F20E2E70120E0E70020DEE770B5050093
:103E4000002400E001342A682423D35CA34207D96C
:103E500029002000FFF7C7FF0028F3D00F2000E063
:103E6000002070BD70B504000D0002F0D7FE2B6A73
:103E70009B696400185370BDF0B5D6464F46464660
:103E8000C0B582B08246894690461F005C69002515
:103E900004E0012393400B64083401353E68B68981
:103EA000AE4219D920682179012300934346524636
:103EB00000F008FF4B46002B05D021682279072A25
:103EC000E7D901BEE5E721682279072A00D901BEBA
:103ED000012393404B64DFE702B0E0BCBA46B14631
:103EE000A846F0BD70B505000C00FFF715FB052DC9
:103EF00008D00021236A30229A5CD86A2300FFF799
:103F0000BBFF70BD0121F5E7F0B5D6464F464646EA
:103F1000C0B582B08246894690461F009C69002544
:103F200004E0012393400B64083401353B682C26E0
:103F30009E5DAE4219D92068217901230093434642
:103F4000524600F0BFFE4B46002B05D02168227977
:103F5000072AE6D901BEE4E721682279072A00D9B9
:103F600001BE012393404B64DEE702B0E0BCBA46D9
:103F7000B146A846F0BD70B505000C000A682C23B8
:103F8000D35C002B00D170BDFFF7C6FA052D08D019
:103F90000021236A30229A5CD86A2300FFF7B4FF1D
:103FA000F1E70121F5E7F0B5DE4657464E464546B6
:103FB000E0B587B00290039193461B689A460024AF
:103FC000002C06D007B0F0BCBB46B246A946A046BE
:103FD000F0BD53469B68E200121B92009B189F683D
:103FE0001D7B1E691B7D994604950123984600930D
:103FF0005B46029A2900380000F064FE4B460593A8
:10400000434600935B46029A4946300000F05AFE50
:10401000039B002B13D0049B072B00D901BE012367
:10402000AB403B64039B002B11D0059B072B00D9B1
:1040300001BE01234A46934033640134C0E7049B28
:10404000072B00D901BE0123AB407B64EAE7059B47
:10405000072B00D901BE01234A4693407364ECE765
:1040600010B50B00012807D0052808D00021092031
:104070000022FFF798FF10BD00210E20F8E7012174
:104080000E20F5E7F8B5CE46474680B5050003009B
:10409000002200210120FFF715FB29000520FFF772
:1040A00021FF29000520FFF766FF29000520FFF703
:1040B000D7FF2A6A2423D05C04F0BEF90023994676
:1040C000002608E039329F5C013A9B5CFF1812E041
:1040D0000F23994601362A682423D35CB34217D9AB
:1040E000EB688C2272439B187A229A5C0A2AF1D0E0
:1040F000022AE7D01F8F0024BC42EBD22B00012202
:1041000021003000FFF72EFE0028E1D10134F3E753
:1041100029000120FFF7E6FE29000120FFF72BFF11
:1041200029000120FFF79CFF2A6A2423D05C04F0B9
:1041300083F9002398461BE039329F5C013A9B5C6F
:10414000FF1824E00134BC420FD2EB689B197A229D
:104150009B5C0A2BF6D02B00002221004046FFF783
:1041600001FE0028EED00F23994601239C46E0442F
:104170002A682423D35C43450BD9EB688C2642463E
:1041800056439B197A229A5C022AD5D01F8F0024AD
:10419000D9E74846C0BCB946B046F8BDF8B50D00F1
:1041A000141E47D012682423D35C834244D9E368A9
:1041B0008C2646439B197A229A5C012A0CD0002354
:1041C0000120AB4239D9012837D0200000F04BFC48
:1041D000071E07D0022030E01B8F226A91795170B0
:1041E0000020EEE76368882212019A602100032014
:1041F00001F0FAFAE3689B199B68EA00216A9B18B0
:104200008B622300012201210220FFF75BFAE368A1
:104210009B197B229A5C072A0AD0D868AD00401906
:1042200022003900FFF754FC636800229A6004E022
:104230000137F2E7012000E00120F8BDF0B5C646E5
:1042400000B5060000239846002516E039329F5C31
:10425000013A9B5CFF1820E00134BC420CD23200D2
:1042600021002800FFF79AFF0028F5D04346002BD5
:10427000F2D10F339846EFE7013532682423D35C3F
:10428000AB420CD9F3688C226A439B187A229A5C61
:104290000A2AF1D0022AD9D01F8F0024DDE7404638
:1042A00080BCB846F0BDF8B505000E00141E40D025
:1042B000002905D1176B0823AB4204D80120F8BDB3
:1042C000576B0123F8E7200000F0CDFB002801D058
:1042D0000220F4E76368882212019A60210003300B
:1042E00001F082FA226A4C230021D154236A5D86B0
:1042F000AB00F95AE2688C234B43D2187A21525C06
:10430000012A04D00120636800229A60D7E7226A5C
:1043100091795170E268D3187A22995C23000022C7
:104320000220FFF7CFF9220031002800FFF724FC1C
:10433000E9E70120C3E710B50021FFF7B4FF10BD86
:1043400010B50A000121FFF7AEFF10BDF0B5C6465B
:1043500000B50500066B436B98460027002400E07B
:104360000134072C14D8A300F25AEB688C21514376
:104370005B187A229B5C0A2BF2D02A0000212000D5
:10438000FFF7D9FF0028EBD0002FE9D10F37E7E77F
:104390000024002C03D0380080BCB846F0BDA30038
:1043A0004246D15AEB688C224A439B187A229B5C86
:1043B0000A2B01D10134ECE729002000FFF7C0FFF0
:1043C0000028F7D0002FF5D10F37F3E770B50C1E9A
:1043D0002DD00A682C23D35C002B05D10B6A5B79A6
:1043E000042B01D0012070BD236A5A795A70200035
:1043F00000F039FB002801D00220F4E7636888222E
:1044000012019A602100033001F0EEF9236A0025C1
:104410005D862300022201210220FFF753F92200CA
:1044200000210020FFF7A8FB63689D60DBE7012007
:10443000D9E70000F8B5CE46474680B505000C0028
:104440009046FDF7DEFF072C00D901BE434BEB1869
:104450001B0A434A944663441B021B68A200D340D4
:104460000F261E40072C00D901BE3C4BEB181B0A3F
:104470003B4A944663441B021A68A7000F21B940C7
:104480008A431A60FDF7C1FFFDF7BBFF072C00D977
:1044900001BE62001219AB68D34007271F40AB6909
:1044A000E340DB00082213401F43072C00D901BE64
:1044B0000123A3406B64072C00D901BE62001219CE
:1044C000AB68072191408B43062191400B43AB60C1
:1044D000AB690122A24093431343AB61FDF795FF03
:1044E00043461B6AD88F03F0A7FFFDF78AFF072C0E
:1044F00000D901BE61000919AB68984607239946A7
:104500001A008A40434693431A004B463B408B4077
:104510001343AB60AA6901231900A1408A43FF0835
:104520003B40A3401343AB61072C00D901BE0B4BAA
:104530009C4665442D0A0A4B9C4665442D022B6817
:10454000A4000F22A2409343A6401E432E60FDF715
:104550005CFFC0BCB946B046F8BDC0460000FCBF19
:1045600000024000F0B5CE46474680B585B0040055
:1045700000230393029303689B681A6890469F6820
:104580001B7B9946026A40230321D152314B1022F2
:104590004146CA5088239B000F3ACA50036A27320B
:1045A000DA87036ADA8F002A01D10132DA87220022
:1045B00049463800FFF73EFF0026009606230922F1
:1045C0004946380000F07EFB210003A8FFF718F9E8
:1045D00005000096002309224946380000F072FBCE
:1045E000002D05D0280005B0C0BCB946B046F0BDCE
:1045F00088239B004246D650164B174A4146CA5064
:10460000220049463800FFF715FF009606230922CD
:104610004946380000F056FB210002A8FFF7F0F8E9
:1046200005000096002309224946380000F04AFBA5
:10463000002D0BD1029B09485843039904F0B4F8AC
:10464000074B9C466044236A1882CBE7236A00220A
:104650001A82C7E70C06000010004000B3060000F5
:10466000C6020000F0B5D6464F464646C0B584B0F7
:1046700006000F0015001C0000230393002C00D13E
:10468000A1E0192A00D9A0E0002A00D1A5E0012864
:1046900001D901269AE0200000F0E5F9002800D0B9
:1046A0009DE06368882212019A60002E68D0012E76
:1046B00071D0012600239A462100032001F094F8CE
:1046C00000287BD1002E7AD1230000220021033064
:1046D000FEF7F8FF6801401B800040190001FA2135
:1046E000890004F061F8236AD887236ADA8F002AE8
:1046F00001D10132DA87220049464046FFF79AFE8F
:1047000038486843FA2104F04FF803004001C01A0A
:104710008000C018C000344904F046F801308023FE
:10472000DB01984200D33148226A4023D052002551
:1047300000953A3B09224946404600F0C3FA210061
:1047400003A8FFF75DF806000095002309224946FB
:10475000404600F0B7FA002E29D1039A53019B1866
:10476000D9015B181801801A80008018204904F0D4
:104770001BF880B253461880002F20D038601EE00E
:1047800023689B689A6890461B7B9946236A44225B
:1047900092469A4490E723689B681A6990461B7D6D
:1047A0009946236A462292469A44002684E70023CB
:1047B00052461380002F02D03B6000E0052663685C
:1047C00000229A6002E0012600E00126300004B0D9
:1047D000E0BCBA46B146A846F0BD0126F6E702267F
:1047E000F4E7C046308C1100649D2902FF3F0000B1
:1047F000A086010030B583B00400002301930300BC
:10480000052201A90020FFF72DFF05002300052246
:1048100001A90120FFF726FF002800D1280003B0DE
:1048200030BD70B505000C1E2BD0080000F01BF940
:10483000002801D0022025E06368882212019A60D6
:104840002100033000F0D0FF002804D00520636869
:1048500000229A6016E02300002200210430FEF7B7
:1048600031FF2000FFF77EFE002805D1002DEED09D
:10487000236A1B8A2B60EAE7002DE8D000232B6017
:10488000E5E7012070BD000070B504000D00434B4A
:1048900018427AD1002900D17AE0080000F0E3F84C
:1048A000002800D076E0E30725D400262900032065
:1048B00000F09AFF002800D06EE0230727D42306DB
:1048C00031D463063CD4E30646D4E30550D4A406B1
:1048D0005CD52A683323D35C002B57D029000020F5
:1048E000FFF774FD002851D02A6A936820210B43FA
:1048F00093600F264AE02800FFF7A0FA061ED5D0E5
:104900002A6A936801210B4393600F26CEE72800A3
:10491000FFF7B8FB0028D2D02A6A936808210B431E
:1049200093600F26CBE729000020FFF77AFF0028CD
:10493000C7D02A6A936880210B4393600F26C0E793
:104940002800FFF757FF0028BDD02A6A936840214E
:104950000B4393600F26B6E72800FFF7F7FC00280B
:10496000B3D02A6A936810210B4393600F26ACE7FB
:104970002800FFF763FC0028A9D02A6A91688023E9
:104980005B000B4393600F26A1E70126300070BD4A
:104990000126FBE70226F9E70526F7E706FEFFFFFB
:1049A00010B5040001000120FFF79CFA210001204E
:1049B000FFF7E1FA21000120FFF752FB226A0023F2
:1049C0001370226A537010BD036ADA8B002A01D17A
:1049D0000132DA831A8C002A02D10132FF321A84A2
:1049E0001A8C032A01D804221A84198C80225201BD
:1049F000914200D91A8464229A861A8C5208DA8667
:104A00009A87704770B5050002682423D65C00249D
:104A100004E029002000FFF725FA0134B442F8D35E
:104A20002800FFF7D1FF2A6A002313702A6A537007
:104A3000296A22228B542B6ADA789A712B6A1A79A6
:104A4000DA712B6A9A785A7170BD10B500F05EFF6A
:104A500010BD10B5021E04D008210020FFF7F5FF9D
:104A600010BD0120FCE743689B6880201840704718
:104A700010B5002000F01FF910BD10B501F056FD73
:104A800010BDF8B504000F00161E74D0D3690022C3
:104A90005A753100002000F0A7FE042C22D01DD84A
:104AA000012C21D0022C21D10223042F22D0012558
:104AB000052F2FD0062F3CD0012F48D0F3690022BC
:104AC0005A75002D58D1012F56D131000020FEF724
:104AD00039FA31000120FEF735FA4DE0052C07D1F7
:104AE0000623E2E70423E0E70123DEE70023DCE717
:104AF0000023DAE7621E012A03D9042C01D0012524
:104B0000D6E7326A9179994202D093710025CFE7B6
:104B10000025CDE7012C03D0052C01D0022CC9D1F2
:104B2000326AD179994202D0D3710025C2E70025BB
:104B3000C0E7621E012A01D9042CBDD1326A517925
:104B4000994202D053710025B6E70025B4E7631EF1
:104B5000012B01D9042CB1D1B36874229A5CE4B260
:104B6000A24201D10025A9E774229C543000FDF730
:104B7000FFFE0500A2E701252800F8BD10B582B0B0
:104B80000400CB688C2242439B1818682322825C65
:104B9000120702D4002002B010BD80229A5A0430BD
:104BA00000910023210001F0EFFCF4E78B68DB6A41
:104BB0005843800B00D0013880235B02984200D21A
:104BC00070470148FCE7C046FFFF000070B50C1EAF
:104BD0001DD08B68D8618D68FFF7E8FF2862636895
:104BE0009B681022100018401A420FD023689B685F
:104BF0001A68136F1B0C1B04136723689B681A68E1
:104C0000136FA168096A0B431367002070BD012070
:104C1000FCE7000070B582B00500FA235B00019349
:104C2000002837D003F03EF9019801A903F07EF97E
:104C3000041EF9D1184B1E6803F05AF93006AE680D
:104C4000164903F0B1FDF062AE68F0692900FFF784
:104C5000ADFF3062AE68706A2900FFF7A7FFB0624F
:104C6000AA68136A01936B689B689B0601D5936AD7
:104C700001932B689B681A68136F1B0C1B04136746
:104C80002B689B681A68136F01990B431367200008
:104C900002B070BD0124FAE72000034040420F003B
:104CA00010B50B00111E03D0584303F07DFD10BD5D
:104CB00001204042FBE710B508008B681B6998474C
:104CC00010BD0000F8B5CE46474680B505000C0083
:104CD00016001F00FDF795FB002F4DD1072C00D9C2
:104CE00001BE0F233A009A4300D001BE464BEB1899
:104CF0001B0A464A944663441B021A689046A10068
:104D00008C460F216246914042468A430F2139402A
:104D10006746B9400A431A60072C00D901BE0F2329
:104D200032009A4300D001BE61000919AA68072326
:104D30001F008F40BA4333408B401343AB60AA69D6
:104D400001231900A1408A43F6083340A3401343CE
:104D5000AB61089B002B4BD0072C00D901BE6B6ABE
:104D60000121A140FF220A4013436B62FDF74DFB76
:104D7000C0BCB946B046F8BD072C00D901BE0F2310
:104D800032009A4300D001BE61000919AB68984611
:104D9000072399461A008A40434693431A004B461C
:104DA00033408B401343AB60AA6901231900A14033
:104DB0008A43F6083340A3401343AB61072C00D964
:104DC00001BE0F233A009A4300D001BE0E4BEB18F0
:104DD0001B0A0E4A944663441B021A68A6000F2160
:104DE000B1408A430F213940B1400A431A60B0E70D
:104DF000072C00D901BE6B6A0121A140FF220A40A5
:104E000093436B62B2E7C0460000FCBF0002400063
:104E1000F0B583B004000D0016001F001B689B68EE
:104E2000197B986800922B002200FFF74BFF3B682C
:104E30009B68197D186900962B002200FFF742FF3E
:104E400003B0F0BDF0B5DE4657464E464546E0B5E8
:104E500083B083468A46914698460C9F7C6900251C
:104E600004E0012393400B64083401353B689E89BC
:104E7000AE4219D9206821794346009353465A46D9
:104E8000FFF720FF4B46002B05D021682279072A27
:104E9000E7D901BEE5E721682279072A00D901BEDA
:104EA000012393404B64DFE703B0F0BCBB46B2463E
:104EB000A946A046F0BDF0B5D6464F464646C0B519
:104EC00082B08246894690461F009C69002604E015
:104ED00001259D405564083401363A682C23D35C83
:104EE000B3420DD920682179434600934B46524680
:104EF000FFF7E8FE22682379072BE9D901BEE7E72F
:104F000002B0E0BCBA46B146A846F0BD426893681C
:104F100081210B439360704710B54268936801216B
:104F20008B439360426893687F318B4393608368BF
:104F30005B68002B01D00020984710BD70B50A694E
:104F400003011B1A9B00D3189D8E002D00D0013D3C
:104F5000CB688C2242439B187B229B5C072B04D09E
:104F60000C6B8B6A0C33002218E04C6BCB6A20333D
:104F70000022002A00D070BD2188814203D0043471
:104F80002C330132F5E719680B4E314019602E04BD
:104F900031431960F3E7043418330132072AEAD8A1
:104FA00021888142F7D11968034E314019602E04DF
:104FB00031431960EFE7C046FFFF00F030B5CB6822
:104FC0008C2242439B187B229B5C072B04D00A6BEC
:104FD000896A1031002316E04C6BCB6A243300221F
:104FE000002A00D030BD2188814203D004342C3304
:104FF0000132F5E71D68FF21090229431960F5E731
:10500000043218310133072BECD814888442F7D1CD
:105010000D68FF2424022C430C60F1E770B50400F6
:10502000914211D80125022C03D0049A9A4200D251
:105030000025002C06D11900049803F03BFC002940
:1050400000D02500280070BD0025ECE70200802379
:105050001B02044801E040085B08012801D91A42FC
:10506000F9D07047FFFF000010B5828D8B684D218D
:105070005C5CA418988FFFF7E9FF01308008844238
:1050800003D302200823184310BD0020FAE70323AE
:1050900003405B18013301209840704770B504004D
:1050A0000E001D0042431000642103F07DFB03004D
:1050B000EB40A01BE840834200D8180070BD000000
:1050C000F0B5DE4657464E464546E0B583B004008F
:1050D000036898469A8D8B684D215D5CAD188022DF
:1050E0005202954200D31C4D362241468E5C4A3214
:1050F0009643323A9F5C3A32A25C91468722A25C88
:105100009346988FFFF7A2FF824639003000FFF7E1
:10511000BEFF06007A23E35C012B1AD00A2B16D0BF
:1051200004214346D8893B005A46FFF7B7FF0200E7
:105130000095534631004846FFF770FF042318439B
:1051400003B0F0BCBB46B246A946A046F0BD08215C
:10515000E7E70821E5E7C046FFFF000010B5FFF7CD
:105160009DFF0F2805D8072805D8032805D9012059
:1051700000E0032010BD0220FCE70020FAE710B594
:1051800004000368D8898A684E23D35C8722A25C16
:105190007A21615C012909D00A2905D00021FFF795
:1051A000DDFF8023184310BD0239F8E70821F6E738
:1051B000F8B5DE4657464E464546E0B58146C468DA
:1051C00000239A469846002723E07A33E35C072BB6
:1051D00028D0002526E0002529E03623F356002BB1
:1051E00038DB5B46002B3CD17A23E35C012B42D0B9
:1051F0000A2B3DD001239A4603232B40012B3DD09F
:10520000F389434546D38022520193424CD88C34D3
:105210000137082F41D826682123F55C5933E35C18
:10522000012BD2D07A23E25A214B9A42D3D00423C5
:105230001A002A4093462B42CFD1013B2B40012B31
:10524000CBD02B07D0D549463000FFF70DFF2123E7
:10525000F054C9E749462000FFF791FF3623F05488
:10526000BFE749462000FFF72BFF2123F054BBE79F
:10527000023B9846C0E708239846BDE73533F05C0B
:105280004A3398434B469A684E23D15CFFF7FFFEA2
:105290008044B5E780231B019A465046F0BCBB46CC
:1052A000B246A946A046F8BD80231B019A46F4E702
:1052B0000107000010B50400010000208023DB017D
:1052C00000E09B08002B07D01A00024340089142DF
:1052D000F7D3891A1843F4E703004343A34200D2EB
:1052E000013010BDF8B5CE46474680B50400150024
:1052F00013689B681B68984641184B1E994601E04D
:10530000198001344C4522D82B6BA6009F5B2900E5
:10531000380001F0D9FC0028F3D02B6B9B1958887A
:10532000C8239B014246D158EB688C227A439B18D4
:105330005B688200121852009B189A7904208243FD
:105340009A71C803DCD5042002439A71D8E7C0BC27
:10535000B946B046F8BD0000F0B5DE4657464E46A9
:105360004546E0B583B00190160052680092B76BD5
:1053700033689B681B689A464318013B9946294B42
:105380005046C0584005400D274B5446E358002B6B
:105390000CDB0323009A1377009C019B2376617634
:1053A00003F002FAA07600239B462DE00123137739
:1053B000F2E71B689B88A34221D91C1B3C80023763
:1053C00001354D451DD8C8239B015246D4582404AD
:1053D000240C726BAB00D35A98463100180001F0D0
:1053E00073FC0028EBD0F3688C2241464A439B189B
:1053F0007A229A5C022ADCD00A2ADFD1D9E700247B
:10540000DCE701239C46E344009B9B7E5B4501D97E
:10541000019DD6E703B0F0BCBB46B246A946A04604
:10542000F0BDC0461034000014340000F8B504008C
:105430000D0016008B1E012B01D9012708E00D0677
:1054400080277F043D4003E0012002F0F5FF013C8E
:1054500033689B681868C0235B00C3583B40AB426D
:1054600003D1002CF0D1042000E00020F8BD0000A2
:10547000F0B5C64600B5904613689B681F680C00DF
:10548000242900D9242443469A684623D45200296B
:1054900062D043469E6A43001B18DB00F618802347
:1054A0009B01FD183B685B005B083B60802300228A
:1054B000FA500133FF33FB58DB0106D5A2235B0012
:1054C00080225202FA5000220DE0A2235B0001323A
:1054D000FA50BA2042460221FF30FFF7A7FFF2E759
:1054E00008CE08C5013263001B195B009342F7D850
:1054F000043D2B68042213432B60FB681F490B40BB
:10550000FB603A681E4B1A4080231B0213433B602A
:10551000BA680A4080235B001B1B1B0419490B401F
:105520001343BB6043469B681A68002A03D061217D
:105530005B5C012B13D043469A686123D35C012B3B
:1055400011D001228023FA50396880231B060B43B7
:105550003B60A0235B00FA5080BCB846F0BD4346D8
:10556000D8699047E7E78033FF33FB58DB01E8D584
:10557000A2235B0080225200FA50E2E7FFFF00FC0A
:10558000FF0FFFFF0000FF03F8B5040003689B68EE
:105590001D68866890235B00EA580833EB58134077
:1055A000DB032AD490235B00EB58DB0705D5426868
:1055B00091688023DB000B43936090235B00274AB4
:1055C000EA506368DB8ADB070CD42B685B005B085E
:1055D0002B60A2235B0080225200EA502000FFF7DC
:1055E0009BFCF8BDB08E4623F15A2200FFF7B4FEB3
:1055F0006268D37E0133D376E7E790235B00174AD6
:10560000EA50B08E4627F15B2200FFF76BFEF35B9A
:10561000B28E9B189BB2B386F18E8B420DD8C91AFD
:1056200001312B6F1B0C1B042B6761230022F254EA
:10563000B08E2200FFF71CFFD3E72B685B005B08EE
:105640002B60A2235B0080225200EA50626893889C
:10565000013393802000FFF75FFCC2E711001101C6
:105660000200002000E00130012383409342FAD37E
:105670000F2800D870470F20FCE710B5FFF7F0FFA8
:1056800001238340180080235B00984200D810BD9E
:105690001800FCE770B5050003689B681C68236868
:1056A0005B005B08236001238022A350026892689C
:1056B0001168C02252008A5813421CD022688023ED
:1056C0001B06134323600023636794225200A350F8
:1056D000083A0E49A150203A0D49A150A9688F3AC5
:1056E0008B5423680B4A13402360A26880235B0518
:1056F0001343A36070BD4433FF330122E2503C20CA
:105700002A000021FF30FFF791FED7E711001101B9
:10571000111101C1FFFFFCFF10B502000B689B686F
:105720001C68216880231B060B43236090235B00C9
:105730000A49E150203B0A49E1500621200001F0CE
:10574000C7FC084BE25806210A43E250E2580539EB
:105750000A43E250E0239B01E15010BD110011010A
:10576000111101C13430000070B505000B689A6852
:10577000146818680A4903F017F801000522280088
:10578000FFF78EFA00E0013880235B00E2581A42EE
:1057900001D10028F7D180235B00024AE25070BD9E
:1057A00040420F00111101C110B503689B681C68CD
:1057B000FFF770FF8023DB000022E2500DE0930131
:1057C000E318C121C9005918C020800408600449A9
:1057D0008C466344034919600132022AEFD910BD97
:1057E0000C06000000101000F0B5C64600B582B0EF
:1057F00005000C000F68BB681B6898468A68552333
:10580000D25C824276D0032A15D005D9053AD2B2AD
:10581000012A17D9012602E0022A11D90126A2681D
:1058200073230021D154002E56D1062D68D8AB0029
:10583000344AD3589F460800FFF7B2F80026EEE737
:105840000026ECE70026EAE700940123002200216D
:105850000920FFF7F7FA2300012200210920FFF7B2
:105860002AFB6268936830218B439360E3690022CE
:105870005A752300013200210920FFF7C9FA616A35
:10588000BB685B680222404601F04EFB002801D055
:10589000402630E084235B0000224146CA50183382
:1058A000194ACA50193002F0C7FD15E000940123CF
:1058B000002200210920FFF7C5FA23000122002160
:1058C0000920FFF7F8FAE36900225A752300013234
:1058D00000210920FFF79CFA002E0CD1A268552365
:1058E000D55408E02000FFF75FFFF5E72000FFF741
:1058F000D1FEF1E70026300002B080BCB846F0BD12
:105900000126F8E7C8B3000011001101F0B5D64632
:105910004F464646C0B506000F00141E00D1ADE04C
:10592000002900D1ACE0072800D9B0E00B18013BFA
:105930009846072B01D90125A3E01000FFF793F843
:10594000802800D1A5E02000FFF7E0FAA36899467F
:1059500023689B681B689A46732300224946CA54F1
:105960001E3BCB5C022B56D0042B54D021000220CE
:10597000FFF73AFF051E00D083E06268936830218C
:105980008B4393606268936820390B439360712363
:1059900003224946CA5453461A68C0239B02134344
:1059A0005246136013683C4A134052461360136F0B
:1059B0003A4A134052461367136F80225202134330
:1059C00051460B6723689B6819680B6F1B0C1B04FF
:1059D0000B6723689B6819680B6FA068006A034314
:1059E0000B67002351464B672933FF33CA50B3B2CC
:1059F000482249468B528B864246CA866123012241
:105A0000CA54242F01D81233CA542200390030005E
:105A1000FFF72EFD35E048234A46D35AB342A5D1BD
:105A20004623D35ABB42A1D1242F9FD863689968DB
:105A3000802292010D001540114297D19B68DB0630
:105A400094D5732301224946CA548E86A3681B68E5
:105A5000002B01D0E069984753461B685B005B0848
:105A600052461360126880231B061343524613608C
:105A7000A0235B0001225146CA5002E0012500E04C
:105A800001252800E0BCBA46B146A846F0BD012574
:105A9000F7E74025F5E7C046FF0FFFFFFFFF00C017
:105AA000F0B5D6464F464646C0B582B080460C009B
:105AB00015004618013E002A00D148E1002900D116
:105AC00047E1082900D94CE1002E01D0012741E12E
:105AD00052689368A5490B4093602800FEF7C3FF06
